{
  "_format": "hh-sol-artifact-1",
  "contractName": "ReferralContract",
  "sourceName": "contracts/ReferralContract.sol",
  "abi": [
    {
      "inputs": [],
      "stateMutability": "nonpayable",
      "type": "constructor"
    },
    {
      "anonymous": false,
      "inputs": [
        {
          "indexed": false,
          "internalType": "address",
          "name": "previousAdmin",
          "type": "address"
        },
        {
          "indexed": false,
          "internalType": "address",
          "name": "newAdmin",
          "type": "address"
        }
      ],
      "name": "AdminChanged",
      "type": "event"
    },
    {
      "anonymous": false,
      "inputs": [
        {
          "indexed": true,
          "internalType": "address",
          "name": "beacon",
          "type": "address"
        }
      ],
      "name": "BeaconUpgraded",
      "type": "event"
    },
    {
      "anonymous": false,
      "inputs": [
        {
          "indexed": true,
          "internalType": "address",
          "name": "previousOwner",
          "type": "address"
        },
        {
          "indexed": true,
          "internalType": "address",
          "name": "newOwner",
          "type": "address"
        }
      ],
      "name": "OwnershipTransferred",
      "type": "event"
    },
    {
      "anonymous": false,
      "inputs": [
        {
          "indexed": true,
          "internalType": "address",
          "name": "implementation",
          "type": "address"
        }
      ],
      "name": "Upgraded",
      "type": "event"
    },
    {
      "inputs": [
        {
          "internalType": "string",
          "name": "programCode",
          "type": "string"
        },
        {
          "internalType": "address",
          "name": "tokenAddress",
          "type": "address"
        }
      ],
      "name": "addProgram",
      "outputs": [],
      "stateMutability": "nonpayable",
      "type": "function"
    },
    {
      "inputs": [
        {
          "internalType": "address",
          "name": "",
          "type": "address"
        }
      ],
      "name": "addressJoined",
      "outputs": [
        {
          "internalType": "string",
          "name": "",
          "type": "string"
        }
      ],
      "stateMutability": "view",
      "type": "function"
    },
    {
      "inputs": [],
      "name": "admin",
      "outputs": [
        {
          "internalType": "address",
          "name": "",
          "type": "address"
        }
      ],
      "stateMutability": "view",
      "type": "function"
    },
    {
      "inputs": [
        {
          "internalType": "string",
          "name": "programCode",
          "type": "string"
        },
        {
          "internalType": "address",
          "name": "userAddress",
          "type": "address"
        }
      ],
      "name": "checkJoined",
      "outputs": [
        {
          "internalType": "bool",
          "name": "",
          "type": "bool"
        }
      ],
      "stateMutability": "view",
      "type": "function"
    },
    {
      "inputs": [],
      "name": "debug",
      "outputs": [
        {
          "internalType": "string",
          "name": "",
          "type": "string"
        }
      ],
      "stateMutability": "view",
      "type": "function"
    },
    {
      "inputs": [
        {
          "internalType": "string",
          "name": "programCode",
          "type": "string"
        }
      ],
      "name": "getInfoProgram",
      "outputs": [
        {
          "components": [
            {
              "internalType": "string",
              "name": "code",
              "type": "string"
            },
            {
              "internalType": "address",
              "name": "tokenAddress",
              "type": "address"
            },
            {
              "internalType": "uint256",
              "name": "incentiveL0",
              "type": "uint256"
            },
            {
              "internalType": "uint256",
              "name": "incentiveL1",
              "type": "uint256"
            },
            {
              "internalType": "uint256",
              "name": "incentiveL2",
              "type": "uint256"
            },
            {
              "internalType": "bool",
              "name": "paused",
              "type": "bool"
            }
          ],
          "internalType": "struct ReferralContract.Program",
          "name": "",
          "type": "tuple"
        }
      ],
      "stateMutability": "view",
      "type": "function"
    },
    {
      "inputs": [],
      "name": "initialize",
      "outputs": [],
      "stateMutability": "nonpayable",
      "type": "function"
    },
    {
      "inputs": [
        {
          "internalType": "string",
          "name": "programCode",
          "type": "string"
        },
        {
          "internalType": "string",
          "name": "uid",
          "type": "string"
        },
        {
          "internalType": "string",
          "name": "referCode",
          "type": "string"
        }
      ],
      "name": "joinProgram",
      "outputs": [],
      "stateMutability": "nonpayable",
      "type": "function"
    },
    {
      "inputs": [
        {
          "internalType": "string",
          "name": "programCode",
          "type": "string"
        }
      ],
      "name": "leaveProgram",
      "outputs": [],
      "stateMutability": "nonpayable",
      "type": "function"
    },
    {
      "inputs": [],
      "name": "owner",
      "outputs": [
        {
          "internalType": "address",
          "name": "",
          "type": "address"
        }
      ],
      "stateMutability": "view",
      "type": "function"
    },
    {
      "inputs": [
        {
          "internalType": "string",
          "name": "",
          "type": "string"
        }
      ],
      "name": "paused",
      "outputs": [
        {
          "internalType": "bool",
          "name": "",
          "type": "bool"
        }
      ],
      "stateMutability": "view",
      "type": "function"
    },
    {
      "inputs": [
        {
          "internalType": "string",
          "name": "",
          "type": "string"
        }
      ],
      "name": "programs",
      "outputs": [
        {
          "internalType": "string",
          "name": "code",
          "type": "string"
        },
        {
          "internalType": "address",
          "name": "tokenAddress",
          "type": "address"
        },
        {
          "internalType": "uint256",
          "name": "incentiveL0",
          "type": "uint256"
        },
        {
          "internalType": "uint256",
          "name": "incentiveL1",
          "type": "uint256"
        },
        {
          "internalType": "uint256",
          "name": "incentiveL2",
          "type": "uint256"
        },
        {
          "internalType": "bool",
          "name": "paused",
          "type": "bool"
        }
      ],
      "stateMutability": "view",
      "type": "function"
    },
    {
      "inputs": [
        {
          "internalType": "string",
          "name": "",
          "type": "string"
        },
        {
          "internalType": "address",
          "name": "",
          "type": "address"
        }
      ],
      "name": "rUserFromUser",
      "outputs": [
        {
          "internalType": "address",
          "name": "",
          "type": "address"
        }
      ],
      "stateMutability": "view",
      "type": "function"
    },
    {
      "inputs": [
        {
          "internalType": "string",
          "name": "programCode",
          "type": "string"
        }
      ],
      "name": "removeCampaign",
      "outputs": [],
      "stateMutability": "nonpayable",
      "type": "function"
    },
    {
      "inputs": [],
      "name": "renounceOwnership",
      "outputs": [],
      "stateMutability": "nonpayable",
      "type": "function"
    },
    {
      "inputs": [
        {
          "internalType": "string",
          "name": "programCode",
          "type": "string"
        },
        {
          "internalType": "uint256",
          "name": "amount",
          "type": "uint256"
        }
      ],
      "name": "setIncentiveAmountL0",
      "outputs": [],
      "stateMutability": "nonpayable",
      "type": "function"
    },
    {
      "inputs": [
        {
          "internalType": "string",
          "name": "programCode",
          "type": "string"
        },
        {
          "internalType": "uint256",
          "name": "amount",
          "type": "uint256"
        }
      ],
      "name": "setIncentiveAmountL1",
      "outputs": [],
      "stateMutability": "nonpayable",
      "type": "function"
    },
    {
      "inputs": [
        {
          "internalType": "string",
          "name": "programCode",
          "type": "string"
        },
        {
          "internalType": "uint256",
          "name": "amount",
          "type": "uint256"
        }
      ],
      "name": "setIncentiveAmountL2",
      "outputs": [],
      "stateMutability": "nonpayable",
      "type": "function"
    },
    {
      "inputs": [
        {
          "internalType": "string",
          "name": "programCode",
          "type": "string"
        }
      ],
      "name": "setPause",
      "outputs": [],
      "stateMutability": "nonpayable",
      "type": "function"
    },
    {
      "inputs": [
        {
          "internalType": "string",
          "name": "programCode",
          "type": "string"
        }
      ],
      "name": "setUnPause",
      "outputs": [],
      "stateMutability": "nonpayable",
      "type": "function"
    },
    {
      "inputs": [],
      "name": "token",
      "outputs": [
        {
          "internalType": "contract IERC20",
          "name": "",
          "type": "address"
        }
      ],
      "stateMutability": "view",
      "type": "function"
    },
    {
      "inputs": [
        {
          "internalType": "address",
          "name": "tokenAddress",
          "type": "address"
        },
        {
          "internalType": "uint256",
          "name": "amount",
          "type": "uint256"
        }
      ],
      "name": "transferBack",
      "outputs": [],
      "stateMutability": "nonpayable",
      "type": "function"
    },
    {
      "inputs": [
        {
          "internalType": "address",
          "name": "newOwner",
          "type": "address"
        }
      ],
      "name": "transferOwnership",
      "outputs": [],
      "stateMutability": "nonpayable",
      "type": "function"
    },
    {
      "inputs": [
        {
          "internalType": "string",
          "name": "",
          "type": "string"
        },
        {
          "internalType": "string",
          "name": "",
          "type": "string"
        }
      ],
      "name": "uidJoined",
      "outputs": [
        {
          "internalType": "bool",
          "name": "",
          "type": "bool"
        }
      ],
      "stateMutability": "view",
      "type": "function"
    },
    {
      "inputs": [
        {
          "internalType": "address",
          "name": "newImplementation",
          "type": "address"
        }
      ],
      "name": "upgradeTo",
      "outputs": [],
      "stateMutability": "nonpayable",
      "type": "function"
    },
    {
      "inputs": [
        {
          "internalType": "address",
          "name": "newImplementation",
          "type": "address"
        },
        {
          "internalType": "bytes",
          "name": "data",
          "type": "bytes"
        }
      ],
      "name": "upgradeToAndCall",
      "outputs": [],
      "stateMutability": "payable",
      "type": "function"
    },
    {
      "inputs": [
        {
          "internalType": "string",
          "name": "",
          "type": "string"
        },
        {
          "internalType": "address",
          "name": "",
          "type": "address"
        },
        {
          "internalType": "uint256",
          "name": "",
          "type": "uint256"
        }
      ],
      "name": "userFollowers",
      "outputs": [
        {
          "internalType": "address",
          "name": "",
          "type": "address"
        }
      ],
      "stateMutability": "view",
      "type": "function"
    },
    {
      "inputs": [
        {
          "internalType": "string",
          "name": "",
          "type": "string"
        }
      ],
      "name": "userJoined",
      "outputs": [
        {
          "internalType": "address",
          "name": "",
          "type": "address"
        }
      ],
      "stateMutability": "view",
      "type": "function"
    },
    {
      "inputs": [],
      "name": "version",
      "outputs": [
        {
          "internalType": "string",
          "name": "",
          "type": "string"
        }
      ],
      "stateMutability": "pure",
      "type": "function"
    }
  ],
  "bytecode": "0x60a06040523073ffffffffffffffffffffffffffffffffffffffff1660809073ffffffffffffffffffffffffffffffffffffffff1660601b8152503480156200004757600080fd5b50600060019054906101000a900460ff16806200006f575060008054906101000a900460ff16155b620000b1576040517f08c379a0000000000000000000000000000000000000000000000000000000008152600401620000a89062000152565b60405180910390fd5b60008060019054906101000a900460ff16159050801562000102576001600060016101000a81548160ff02191690831515021790555060016000806101000a81548160ff0219169083151502179055505b8015620001245760008060016101000a81548160ff0219169083151502179055505b50620001d4565b60006200013a602e8362000174565b9150620001478262000185565b604082019050919050565b600060208201905081810360008301526200016d816200012b565b9050919050565b600082825260208201905092915050565b7f496e697469616c697a61626c653a20636f6e747261637420697320616c72656160008201527f647920696e697469616c697a6564000000000000000000000000000000000000602082015250565b60805160601c6146e16200020860003960008181610a2a01528181610ab901528181610c4a0152610cd901526146e16000f3fe6080604052600436106101c25760003560e01c80638da5cb5b116100f7578063c8f2835f11610095578063e9bd876311610064578063e9bd876314610656578063f2fde38b1461067f578063f851a440146106a8578063fc0c546a146106d3576101c2565b8063c8f2835f1461059e578063cb25b67d146105c7578063d075d344146105f0578063de4e02301461062d576101c2565b80639e3c2fc7116100d15780639e3c2fc7146104cd578063a0d0e36e146104f6578063b5dd4a3214610533578063befe757314610575576101c2565b80638da5cb5b1461043c578063922f91781461046757806398641963146104a4576101c2565b8063588ee29b11610164578063715018a61161013e578063715018a6146103a857806373742514146103bf57806379c7d9c4146103fc5780638129fc1c14610425576101c2565b8063588ee29b146103035780636326a0a01461032e5780636890228c1461036b576101c2565b80633659cfe6116101a05780633659cfe6146102565780633bdc4cb61461027f5780634f1ef286146102bc57806354fd4d50146102d8576101c2565b80630b3d3f46146101c75780631ac260e8146101f05780632edcf7c91461022d575b600080fd5b3480156101d357600080fd5b506101ee60048036038101906101e991906136cb565b6106fe565b005b3480156101fc57600080fd5b506102176004803603810190610212919061368a565b61094c565b6040516102249190613d6e565b60405180910390f35b34801561023957600080fd5b50610254600480360381019061024f9190613889565b610982565b005b34801561026257600080fd5b5061027d600480360381019061027891906135a8565b610a28565b005b34801561028b57600080fd5b506102a660048036038101906102a1919061371f565b610bd7565b6040516102b39190613d2a565b60405180910390f35b6102d660048036038101906102d191906135d1565b610c48565b005b3480156102e457600080fd5b506102ed610d85565b6040516102fa9190613da4565b60405180910390f35b34801561030f57600080fd5b50610318610dc2565b6040516103259190613da4565b60405180910390f35b34801561033a57600080fd5b50610355600480360381019061035091906135a8565b610e50565b6040516103629190613da4565b60405180910390f35b34801561037757600080fd5b50610392600480360381019061038d91906136cb565b610ef0565b60405161039f9190613d6e565b60405180910390f35b3480156103b457600080fd5b506103bd610fa5565b005b3480156103cb57600080fd5b506103e660048036038101906103e19190613786565b61102d565b6040516103f39190613d6e565b60405180910390f35b34801561040857600080fd5b50610423600480360381019061041e919061368a565b611088565b005b34801561043157600080fd5b5061043a6111b6565b005b34801561044857600080fd5b506104516112d8565b60405161045e9190613d2a565b60405180910390f35b34801561047357600080fd5b5061048e6004803603810190610489919061368a565b611302565b60405161049b9190613d2a565b60405180910390f35b3480156104b057600080fd5b506104cb60048036038101906104c6919061368a565b61134b565b005b3480156104d957600080fd5b506104f460048036038101906104ef9190613889565b61146e565b005b34801561050257600080fd5b5061051d6004803603810190610518919061368a565b611514565b60405161052a919061402e565b60405180910390f35b34801561053f57600080fd5b5061055a6004803603810190610555919061368a565b611673565b60405161056c96959493929190613dc6565b60405180910390f35b34801561058157600080fd5b5061059c6004803603810190610597919061368a565b61177a565b005b3480156105aa57600080fd5b506105c560048036038101906105c09190613625565b61192e565b005b3480156105d357600080fd5b506105ee60048036038101906105e991906137f2565b611b8b565b005b3480156105fc57600080fd5b50610617600480360381019061061291906136cb565b612749565b6040516106249190613d2a565b60405180910390f35b34801561063957600080fd5b50610654600480360381019061064f9190613889565b6127a1565b005b34801561066257600080fd5b5061067d6004803603810190610678919061368a565b612847565b005b34801561068b57600080fd5b506106a660048036038101906106a191906135a8565b612975565b005b3480156106b457600080fd5b506106bd612a6d565b6040516106ca9190613d2a565b60405180910390f35b3480156106df57600080fd5b506106e8612a93565b6040516106f59190613d89565b60405180910390f35b610706612ab9565b73ffffffffffffffffffffffffffffffffffffffff166107246112d8565b73ffffffffffffffffffffffffffffffffffffffff161461077a576040517f08c379a000000000000000000000000000000000000000000000000000000000815260040161077190613f2e565b60405180910390fd5b600073ffffffffffffffffffffffffffffffffffffffff1660cb836040516107a29190613d13565b908152602001604051809103902060010160009054906101000a900473ffffffffffffffffffffffffffffffffffffffff1673ffffffffffffffffffffffffffffffffffffffff161461082a576040517f08c379a000000000000000000000000000000000000000000000000000000000815260040161082190613fce565b60405180910390fd5b6040518060c001604052808381526020018273ffffffffffffffffffffffffffffffffffffffff16815260200166470de4df8200008152602001662386f26fc10000815260200166038d7ea4c6800081526020016000151581525060cb836040516108959190613d13565b908152602001604051809103902060008201518160000190805190602001906108bf929190613353565b5060208201518160010160006101000a81548173ffffffffffffffffffffffffffffffffffffffff021916908373ffffffffffffffffffffffffffffffffffffffff16021790555060408201518160020155606082015181600301556080820151816004015560a08201518160050160006101000a81548160ff0219169083151502179055509050505050565b60ca818051602081018201805184825260208301602085012081835280955050505050506000915054906101000a900460ff1681565b61098a612ab9565b73ffffffffffffffffffffffffffffffffffffffff166109a86112d8565b73ffffffffffffffffffffffffffffffffffffffff16146109fe576040517f08c379a00000000000000000000000000000000000000000000000000000000081526004016109f590613f2e565b60405180910390fd5b8060cb83604051610a0f9190613d13565b9081526020016040518091039020600401819055505050565b7f000000000000000000000000000000000000000000000000000000000000000073ffffffffffffffffffffffffffffffffffffffff163073ffffffffffffffffffffffffffffffffffffffff161415610ab7576040517f08c379a0000000000000000000000000000000000000000000000000000000008152600401610aae90613e6e565b60405180910390fd5b7f000000000000000000000000000000000000000000000000000000000000000073ffffffffffffffffffffffffffffffffffffffff16610af6612ac1565b73ffffffffffffffffffffffffffffffffffffffff1614610b4c576040517f08c379a0000000000000000000000000000000000000000000000000000000008152600401610b4390613e8e565b60405180910390fd5b610b5581612b18565b610bd481600067ffffffffffffffff811115610b9a577f4e487b7100000000000000000000000000000000000000000000000000000000600052604160045260246000fd5b6040519080825280601f01601f191660200182016040528015610bcc5781602001600182028036833780820191505090505b506000612b97565b50565b60ce838051602081018201805184825260208301602085012081835280955050505050506020528160005260406000208181548110610c1557600080fd5b90600052602060002001600092509250509054906101000a900473ffffffffffffffffffffffffffffffffffffffff1681565b7f000000000000000000000000000000000000000000000000000000000000000073ffffffffffffffffffffffffffffffffffffffff163073ffffffffffffffffffffffffffffffffffffffff161415610cd7576040517f08c379a0000000000000000000000000000000000000000000000000000000008152600401610cce90613e6e565b60405180910390fd5b7f000000000000000000000000000000000000000000000000000000000000000073ffffffffffffffffffffffffffffffffffffffff16610d16612ac1565b73ffffffffffffffffffffffffffffffffffffffff1614610d6c576040517f08c379a0000000000000000000000000000000000000000000000000000000008152600401610d6390613e8e565b60405180910390fd5b610d7582612b18565b610d8182826001612b97565b5050565b60606040518060400160405280600281526020017f7631000000000000000000000000000000000000000000000000000000000000815250905090565b60d28054610dcf906141d3565b80601f0160208091040260200160405190810160405280929190818152602001828054610dfb906141d3565b8015610e485780601f10610e1d57610100808354040283529160200191610e48565b820191906000526020600020905b815481529060010190602001808311610e2b57829003601f168201915b505050505081565b60d06020528060005260406000206000915090508054610e6f906141d3565b80601f0160208091040260200160405190810160405280929190818152602001828054610e9b906141d3565b8015610ee85780601f10610ebd57610100808354040283529160200191610ee8565b820191906000526020600020905b815481529060010190602001808311610ecb57829003601f168201915b505050505081565b60008073ffffffffffffffffffffffffffffffffffffffff1660cd84604051610f199190613d13565b908152602001604051809103902060008473ffffffffffffffffffffffffffffffffffffffff1673ffffffffffffffffffffffffffffffffffffffff16815260200190815260200160002060009054906101000a900473ffffffffffffffffffffffffffffffffffffffff1673ffffffffffffffffffffffffffffffffffffffff161415905092915050565b610fad612ab9565b73ffffffffffffffffffffffffffffffffffffffff16610fcb6112d8565b73ffffffffffffffffffffffffffffffffffffffff1614611021576040517f08c379a000000000000000000000000000000000000000000000000000000000815260040161101890613f2e565b60405180910390fd5b61102b6000612d68565b565b60cc82805160208101820180518482526020830160208501208183528095505050505050818051602081018201805184825260208301602085012081835280955050505050506000915091509054906101000a900460ff1681565b611090612ab9565b73ffffffffffffffffffffffffffffffffffffffff166110ae6112d8565b73ffffffffffffffffffffffffffffffffffffffff1614611104576040517f08c379a00000000000000000000000000000000000000000000000000000000081526004016110fb90613f2e565b60405180910390fd5b6000151560cb826040516111189190613d13565b908152602001604051809103902060050160009054906101000a900460ff16151514611179576040517f08c379a000000000000000000000000000000000000000000000000000000000815260040161117090613f4e565b60405180910390fd5b600160cb8260405161118b9190613d13565b908152602001604051809103902060050160006101000a81548160ff02191690831515021790555050565b600060019054906101000a900460ff16806111dc575060008054906101000a900460ff16155b61121b576040517f08c379a000000000000000000000000000000000000000000000000000000000815260040161121290613eee565b60405180910390fd5b60008060019054906101000a900460ff16159050801561126b576001600060016101000a81548160ff02191690831515021790555060016000806101000a81548160ff0219169083151502179055505b611273612e2e565b3360c960006101000a81548173ffffffffffffffffffffffffffffffffffffffff021916908373ffffffffffffffffffffffffffffffffffffffff16021790555080156112d55760008060016101000a81548160ff0219169083151502179055505b50565b6000609760009054906101000a900473ffffffffffffffffffffffffffffffffffffffff16905090565b60cf818051602081018201805184825260208301602085012081835280955050505050506000915054906101000a900473ffffffffffffffffffffffffffffffffffffffff1681565b600060d060003373ffffffffffffffffffffffffffffffffffffffff1673ffffffffffffffffffffffffffffffffffffffff1681526020019081526020016000208054611397906141d3565b80601f01602080910402602001604051908101604052809291908181526020018280546113c3906141d3565b80156114105780601f106113e557610100808354040283529160200191611410565b820191906000526020600020905b8154815290600101906020018083116113f357829003601f168201915b50505050509050600060cc836040516114299190613d13565b9081526020016040518091039020826040516114459190613d13565b908152602001604051809103902060006101000a81548160ff0219169083151502179055505050565b611476612ab9565b73ffffffffffffffffffffffffffffffffffffffff166114946112d8565b73ffffffffffffffffffffffffffffffffffffffff16146114ea576040517f08c379a00000000000000000000000000000000000000000000000000000000081526004016114e190613f2e565b60405180910390fd5b8060cb836040516114fb9190613d13565b9081526020016040518091039020600201819055505050565b61151c6133d9565b600060cb8360405161152e9190613d13565b90815260200160405180910390206040518060c0016040529081600082018054611557906141d3565b80601f0160208091040260200160405190810160405280929190818152602001828054611583906141d3565b80156115d05780601f106115a5576101008083540402835291602001916115d0565b820191906000526020600020905b8154815290600101906020018083116115b357829003601f168201915b505050505081526020016001820160009054906101000a900473ffffffffffffffffffffffffffffffffffffffff1673ffffffffffffffffffffffffffffffffffffffff1673ffffffffffffffffffffffffffffffffffffffff1681526020016002820154815260200160038201548152602001600482015481526020016005820160009054906101000a900460ff161515151581525050905080915050919050565b60cb818051602081018201805184825260208301602085012081835280955050505050506000915090508060000180546116ac906141d3565b80601f01602080910402602001604051908101604052809291908181526020018280546116d8906141d3565b80156117255780601f106116fa57610100808354040283529160200191611725565b820191906000526020600020905b81548152906001019060200180831161170857829003601f168201915b5050505050908060010160009054906101000a900473ffffffffffffffffffffffffffffffffffffffff16908060020154908060030154908060040154908060050160009054906101000a900460ff16905086565b611782612ab9565b73ffffffffffffffffffffffffffffffffffffffff166117a06112d8565b73ffffffffffffffffffffffffffffffffffffffff16146117f6576040517f08c379a00000000000000000000000000000000000000000000000000000000081526004016117ed90613f2e565b60405180910390fd5b600073ffffffffffffffffffffffffffffffffffffffff1660cb8260405161181e9190613d13565b908152602001604051809103902060010160009054906101000a900473ffffffffffffffffffffffffffffffffffffffff1673ffffffffffffffffffffffffffffffffffffffff1614156118a7576040517f08c379a000000000000000000000000000000000000000000000000000000000815260040161189e90613ece565b60405180910390fd5b60cb816040516118b79190613d13565b9081526020016040518091039020600080820160006118d69190613427565b6001820160006101000a81549073ffffffffffffffffffffffffffffffffffffffff02191690556002820160009055600382016000905560048201600090556005820160006101000a81549060ff0219169055505050565b611936612ab9565b73ffffffffffffffffffffffffffffffffffffffff166119546112d8565b73ffffffffffffffffffffffffffffffffffffffff16146119aa576040517f08c379a00000000000000000000000000000000000000000000000000000000081526004016119a190613f2e565b60405180910390fd5b8160d160006101000a81548173ffffffffffffffffffffffffffffffffffffffff021916908373ffffffffffffffffffffffffffffffffffffffff1602179055508060d160009054906101000a900473ffffffffffffffffffffffffffffffffffffffff1673ffffffffffffffffffffffffffffffffffffffff166370a08231306040518263ffffffff1660e01b8152600401611a479190613d2a565b60206040518083038186803b158015611a5f57600080fd5b505afa158015611a73573d6000803e3d6000fd5b505050506040513d601f19601f82011682018060405250810190611a9791906138dd565b11611ad7576040517f08c379a0000000000000000000000000000000000000000000000000000000008152600401611ace90613fee565b60405180910390fd5b60d160009054906101000a900473ffffffffffffffffffffffffffffffffffffffff1673ffffffffffffffffffffffffffffffffffffffff1663a9059cbb33836040518363ffffffff1660e01b8152600401611b34929190613d45565b602060405180830381600087803b158015611b4e57600080fd5b505af1158015611b62573d6000803e3d6000fd5b505050506040513d601f19601f82011682018060405250810190611b869190613661565b505050565b6000151560ca84604051611b9f9190613d13565b908152602001604051809103902060009054906101000a900460ff16151514611bfd576040517f08c379a0000000000000000000000000000000000000000000000000000000008152600401611bf490613fae565b60405180910390fd5b600073ffffffffffffffffffffffffffffffffffffffff1660cb84604051611c259190613d13565b908152602001604051809103902060010160009054906101000a900473ffffffffffffffffffffffffffffffffffffffff1673ffffffffffffffffffffffffffffffffffffffff161415611cae576040517f08c379a0000000000000000000000000000000000000000000000000000000008152600401611ca590613ece565b60405180910390fd5b6000819050600081511115611dbd57818051906020012083805190602001201415611d0e576040517f08c379a0000000000000000000000000000000000000000000000000000000008152600401611d0590613f8e565b60405180910390fd5b600073ffffffffffffffffffffffffffffffffffffffff1660cf83604051611d369190613d13565b908152602001604051809103902060009054906101000a900473ffffffffffffffffffffffffffffffffffffffff1673ffffffffffffffffffffffffffffffffffffffff161415611dbc576040517f08c379a0000000000000000000000000000000000000000000000000000000008152600401611db390613eae565b60405180910390fd5b5b6000151560cc85604051611dd19190613d13565b908152602001604051809103902084604051611ded9190613d13565b908152602001604051809103902060009054906101000a900460ff16151514611e4b576040517f08c379a0000000000000000000000000000000000000000000000000000000008152600401611e429061400e565b60405180910390fd5b60008151111561263f57600060cf83604051611e679190613d13565b908152602001604051809103902060009054906101000a900473ffffffffffffffffffffffffffffffffffffffff169050600060019050600073ffffffffffffffffffffffffffffffffffffffff1660cd87604051611ec69190613d13565b908152602001604051809103902060003373ffffffffffffffffffffffffffffffffffffffff1673ffffffffffffffffffffffffffffffffffffffff16815260200190815260200160002060009054906101000a900473ffffffffffffffffffffffffffffffffffffffff1673ffffffffffffffffffffffffffffffffffffffff1614611f5257600090505b6001151560cc87604051611f669190613d13565b908152602001604051809103902086604051611f829190613d13565b908152602001604051809103902060009054906101000a900460ff1615151415611fab57600090505b801561263c57600060cb87604051611fc39190613d13565b908152602001604051809103902060010160009054906101000a900473ffffffffffffffffffffffffffffffffffffffff1690508060d160006101000a81548173ffffffffffffffffffffffffffffffffffffffff021916908373ffffffffffffffffffffffffffffffffffffffff1602179055508260cd886040516120499190613d13565b908152602001604051809103902060003373ffffffffffffffffffffffffffffffffffffffff1673ffffffffffffffffffffffffffffffffffffffff16815260200190815260200160002060006101000a81548173ffffffffffffffffffffffffffffffffffffffff021916908373ffffffffffffffffffffffffffffffffffffffff16021790555060ce876040516120e29190613d13565b908152602001604051809103902060008473ffffffffffffffffffffffffffffffffffffffff1673ffffffffffffffffffffffffffffffffffffffff168152602001908152602001600020339080600181540180825580915050600190039060005260206000200160009091909190916101000a81548173ffffffffffffffffffffffffffffffffffffffff021916908373ffffffffffffffffffffffffffffffffffffffff160217905550600060cb886040516121a09190613d13565b908152602001604051809103902060020154111561228a5760d160009054906101000a900473ffffffffffffffffffffffffffffffffffffffff1673ffffffffffffffffffffffffffffffffffffffff1663a9059cbb8460cb8a6040516122079190613d13565b9081526020016040518091039020600201546040518363ffffffff1660e01b8152600401612236929190613d45565b602060405180830381600087803b15801561225057600080fd5b505af1158015612264573d6000803e3d6000fd5b505050506040513d601f19601f820116820180604052508101906122889190613661565b505b6040518060400160405280600e81526020017f616c6c6f77496e63656e7469766500000000000000000000000000000000000081525060d290805190602001906122d5929190613353565b50600060cd886040516122e89190613d13565b908152602001604051809103902060008573ffffffffffffffffffffffffffffffffffffffff1673ffffffffffffffffffffffffffffffffffffffff16815260200190815260200160002060009054906101000a900473ffffffffffffffffffffffffffffffffffffffff169050600073ffffffffffffffffffffffffffffffffffffffff168173ffffffffffffffffffffffffffffffffffffffff161461263957600060cb8960405161239c9190613d13565b90815260200160405180910390206003015411156124865760d160009054906101000a900473ffffffffffffffffffffffffffffffffffffffff1673ffffffffffffffffffffffffffffffffffffffff1663a9059cbb8260cb8b6040516124039190613d13565b9081526020016040518091039020600301546040518363ffffffff1660e01b8152600401612432929190613d45565b602060405180830381600087803b15801561244c57600080fd5b505af1158015612460573d6000803e3d6000fd5b505050506040513d601f19601f820116820180604052508101906124849190613661565b505b600060cd896040516124989190613d13565b908152602001604051809103902060008373ffffffffffffffffffffffffffffffffffffffff1673ffffffffffffffffffffffffffffffffffffffff16815260200190815260200160002060009054906101000a900473ffffffffffffffffffffffffffffffffffffffff169050600073ffffffffffffffffffffffffffffffffffffffff168173ffffffffffffffffffffffffffffffffffffffff161461263757600060cb8a60405161254c9190613d13565b90815260200160405180910390206004015411156126365760d160009054906101000a900473ffffffffffffffffffffffffffffffffffffffff1673ffffffffffffffffffffffffffffffffffffffff1663a9059cbb8260cb8c6040516125b39190613d13565b9081526020016040518091039020600401546040518363ffffffff1660e01b81526004016125e2929190613d45565b602060405180830381600087803b1580156125fc57600080fd5b505af1158015612610573d6000803e3d6000fd5b505050506040513d601f19601f820116820180604052508101906126349190613661565b505b5b505b50505b50505b600160cc856040516126519190613d13565b90815260200160405180910390208460405161266d9190613d13565b908152602001604051809103902060006101000a81548160ff0219169083151502179055503360cf846040516126a39190613d13565b908152602001604051809103902060006101000a81548173ffffffffffffffffffffffffffffffffffffffff021916908373ffffffffffffffffffffffffffffffffffffffff1602179055508260d060003373ffffffffffffffffffffffffffffffffffffffff1673ffffffffffffffffffffffffffffffffffffffff1681526020019081526020016000209080519060200190612742929190613353565b5050505050565b60cd828051602081018201805184825260208301602085012081835280955050505050506020528060005260406000206000915091509054906101000a900473ffffffffffffffffffffffffffffffffffffffff1681565b6127a9612ab9565b73ffffffffffffffffffffffffffffffffffffffff166127c76112d8565b73ffffffffffffffffffffffffffffffffffffffff161461281d576040517f08c379a000000000000000000000000000000000000000000000000000000000815260040161281490613f2e565b60405180910390fd5b8060cb8360405161282e9190613d13565b9081526020016040518091039020600301819055505050565b61284f612ab9565b73ffffffffffffffffffffffffffffffffffffffff1661286d6112d8565b73ffffffffffffffffffffffffffffffffffffffff16146128c3576040517f08c379a00000000000000000000000000000000000000000000000000000000081526004016128ba90613f2e565b60405180910390fd5b6001151560cb826040516128d79190613d13565b908152602001604051809103902060050160009054906101000a900460ff16151514612938576040517f08c379a000000000000000000000000000000000000000000000000000000000815260040161292f90613fae565b60405180910390fd5b600060cb8260405161294a9190613d13565b908152602001604051809103902060050160006101000a81548160ff02191690831515021790555050565b61297d612ab9565b73ffffffffffffffffffffffffffffffffffffffff1661299b6112d8565b73ffffffffffffffffffffffffffffffffffffffff16146129f1576040517f08c379a00000000000000000000000000000000000000000000000000000000081526004016129e890613f2e565b60405180910390fd5b600073ffffffffffffffffffffffffffffffffffffffff168173ffffffffffffffffffffffffffffffffffffffff161415612a61576040517f08c379a0000000000000000000000000000000000000000000000000000000008152600401612a5890613e4e565b60405180910390fd5b612a6a81612d68565b50565b60c960009054906101000a900473ffffffffffffffffffffffffffffffffffffffff1681565b60d160009054906101000a900473ffffffffffffffffffffffffffffffffffffffff1681565b600033905090565b6000612aef7f360894a13ba1a3210667c828492db98dca3e2076cc3735a920a3ca505d382bbc60001b612f17565b60000160009054906101000a900473ffffffffffffffffffffffffffffffffffffffff16905090565b612b20612ab9565b73ffffffffffffffffffffffffffffffffffffffff16612b3e6112d8565b73ffffffffffffffffffffffffffffffffffffffff1614612b94576040517f08c379a0000000000000000000000000000000000000000000000000000000008152600401612b8b90613f2e565b60405180910390fd5b50565b6000612ba1612ac1565b9050612bac84612f21565b600083511180612bb95750815b15612bca57612bc88484612fda565b505b6000612bf87f4910fdfa16fed3260ed0e7147f7cc6da11a60208b5b9406d12a635614ffd914360001b6130be565b90508060000160009054906101000a900460ff16612d615760018160000160006101000a81548160ff021916908315150217905550612cc48583604051602401612c429190613d2a565b6040516020818303038152906040527f3659cfe6000000000000000000000000000000000000000000000000000000007bffffffffffffffffffffffffffffffffffffffffffffffffffffffff19166020820180517bffffffffffffffffffffffffffffffffffffffffffffffffffffffff8381831617835250505050612fda565b5060008160000160006101000a81548160ff021916908315150217905550612cea612ac1565b73ffffffffffffffffffffffffffffffffffffffff168273ffffffffffffffffffffffffffffffffffffffff1614612d57576040517f08c379a0000000000000000000000000000000000000000000000000000000008152600401612d4e90613e2e565b60405180910390fd5b612d60856130c8565b5b5050505050565b6000609760009054906101000a900473ffffffffffffffffffffffffffffffffffffffff16905081609760006101000a81548173ffffffffffffffffffffffffffffffffffffffff021916908373ffffffffffffffffffffffffffffffffffffffff1602179055508173ffffffffffffffffffffffffffffffffffffffff168173ffffffffffffffffffffffffffffffffffffffff167f8be0079c531659141344cd1fd0a4f28419497f9722a3daafe3b4186f6b6457e060405160405180910390a35050565b600060019054906101000a900460ff1680612e54575060008054906101000a900460ff16155b612e93576040517f08c379a0000000000000000000000000000000000000000000000000000000008152600401612e8a90613eee565b60405180910390fd5b60008060019054906101000a900460ff161590508015612ee3576001600060016101000a81548160ff02191690831515021790555060016000806101000a81548160ff0219169083151502179055505b612eeb613117565b612ef36131f0565b8015612f145760008060016101000a81548160ff0219169083151502179055505b50565b6000819050919050565b612f2a816132d9565b612f69576040517f08c379a0000000000000000000000000000000000000000000000000000000008152600401612f6090613f0e565b60405180910390fd5b80612f967f360894a13ba1a3210667c828492db98dca3e2076cc3735a920a3ca505d382bbc60001b612f17565b60000160006101000a81548173ffffffffffffffffffffffffffffffffffffffff021916908373ffffffffffffffffffffffffffffffffffffffff16021790555050565b6060612fe5836132d9565b613024576040517f08c379a000000000000000000000000000000000000000000000000000000000815260040161301b90613f6e565b60405180910390fd5b6000808473ffffffffffffffffffffffffffffffffffffffff168460405161304c9190613cfc565b600060405180830381855af49150503d8060008114613087576040519150601f19603f3d011682016040523d82523d6000602084013e61308c565b606091505b50915091506130b48282604051806060016040528060278152602001614685602791396132ec565b9250505092915050565b6000819050919050565b6130d181612f21565b8073ffffffffffffffffffffffffffffffffffffffff167fbc7cd75a20ee27fd9adebab32041f755214dbc6bffa90cc0225b39da2e5c2d3b60405160405180910390a250565b600060019054906101000a900460ff168061313d575060008054906101000a900460ff16155b61317c576040517f08c379a000000000000000000000000000000000000000000000000000000000815260040161317390613eee565b60405180910390fd5b60008060019054906101000a900460ff1615905080156131cc576001600060016101000a81548160ff02191690831515021790555060016000806101000a81548160ff0219169083151502179055505b80156131ed5760008060016101000a81548160ff0219169083151502179055505b50565b600060019054906101000a900460ff1680613216575060008054906101000a900460ff16155b613255576040517f08c379a000000000000000000000000000000000000000000000000000000000815260040161324c90613eee565b60405180910390fd5b60008060019054906101000a900460ff1615905080156132a5576001600060016101000a81548160ff02191690831515021790555060016000806101000a81548160ff0219169083151502179055505b6132b56132b0612ab9565b612d68565b80156132d65760008060016101000a81548160ff0219169083151502179055505b50565b600080823b905060008111915050919050565b606083156132fc5782905061334c565b60008351111561330f5782518084602001fd5b816040517f08c379a00000000000000000000000000000000000000000000000000000000081526004016133439190613da4565b60405180910390fd5b9392505050565b82805461335f906141d3565b90600052602060002090601f01602090048101928261338157600085556133c8565b82601f1061339a57805160ff19168380011785556133c8565b828001600101855582156133c8579182015b828111156133c75782518255916020019190600101906133ac565b5b5090506133d59190613467565b5090565b6040518060c0016040528060608152602001600073ffffffffffffffffffffffffffffffffffffffff1681526020016000815260200160008152602001600081526020016000151581525090565b508054613433906141d3565b6000825580601f106134455750613464565b601f0160209004906000526020600020908101906134639190613467565b5b50565b5b80821115613480576000816000905550600101613468565b5090565b600061349761349284614075565b614050565b9050828152602081018484840111156134af57600080fd5b6134ba848285614191565b509392505050565b60006134d56134d0846140a6565b614050565b9050828152602081018484840111156134ed57600080fd5b6134f8848285614191565b509392505050565b60008135905061350f8161463f565b92915050565b60008151905061352481614656565b92915050565b600082601f83011261353b57600080fd5b813561354b848260208601613484565b91505092915050565b600082601f83011261356557600080fd5b81356135758482602086016134c2565b91505092915050565b60008135905061358d8161466d565b92915050565b6000815190506135a28161466d565b92915050565b6000602082840312156135ba57600080fd5b60006135c884828501613500565b91505092915050565b600080604083850312156135e457600080fd5b60006135f285828601613500565b925050602083013567ffffffffffffffff81111561360f57600080fd5b61361b8582860161352a565b9150509250929050565b6000806040838503121561363857600080fd5b600061364685828601613500565b92505060206136578582860161357e565b9150509250929050565b60006020828403121561367357600080fd5b600061368184828501613515565b91505092915050565b60006020828403121561369c57600080fd5b600082013567ffffffffffffffff8111156136b657600080fd5b6136c284828501613554565b91505092915050565b600080604083850312156136de57600080fd5b600083013567ffffffffffffffff8111156136f857600080fd5b61370485828601613554565b925050602061371585828601613500565b9150509250929050565b60008060006060848603121561373457600080fd5b600084013567ffffffffffffffff81111561374e57600080fd5b61375a86828701613554565b935050602061376b86828701613500565b925050604061377c8682870161357e565b9150509250925092565b6000806040838503121561379957600080fd5b600083013567ffffffffffffffff8111156137b357600080fd5b6137bf85828601613554565b925050602083013567ffffffffffffffff8111156137dc57600080fd5b6137e885828601613554565b9150509250929050565b60008060006060848603121561380757600080fd5b600084013567ffffffffffffffff81111561382157600080fd5b61382d86828701613554565b935050602084013567ffffffffffffffff81111561384a57600080fd5b61385686828701613554565b925050604084013567ffffffffffffffff81111561387357600080fd5b61387f86828701613554565b9150509250925092565b6000806040838503121561389c57600080fd5b600083013567ffffffffffffffff8111156138b657600080fd5b6138c285828601613554565b92505060206138d38582860161357e565b9150509250929050565b6000602082840312156138ef57600080fd5b60006138fd84828501613593565b91505092915050565b61390f81614125565b82525050565b61391e81614125565b82525050565b61392d81614137565b82525050565b61393c81614137565b82525050565b600061394d826140d7565b61395781856140ed565b93506139678185602086016141a0565b80840191505092915050565b61397c8161416d565b82525050565b600061398d826140e2565b61399781856140f8565b93506139a78185602086016141a0565b6139b081614294565b840191505092915050565b60006139c6826140e2565b6139d08185614109565b93506139e08185602086016141a0565b6139e981614294565b840191505092915050565b60006139ff826140e2565b613a09818561411a565b9350613a198185602086016141a0565b80840191505092915050565b6000613a32602f83614109565b9150613a3d826142a5565b604082019050919050565b6000613a55602683614109565b9150613a60826142f4565b604082019050919050565b6000613a78602c83614109565b9150613a8382614343565b604082019050919050565b6000613a9b602c83614109565b9150613aa682614392565b604082019050919050565b6000613abe601083614109565b9150613ac9826143e1565b602082019050919050565b6000613ae1601183614109565b9150613aec8261440a565b602082019050919050565b6000613b04602e83614109565b9150613b0f82614433565b604082019050919050565b6000613b27602d83614109565b9150613b3282614482565b604082019050919050565b6000613b4a602083614109565b9150613b55826144d1565b602082019050919050565b6000613b6d601283614109565b9150613b78826144fa565b602082019050919050565b6000613b90602683614109565b9150613b9b82614523565b604082019050919050565b6000613bb3601483614109565b9150613bbe82614572565b602082019050919050565b6000613bd6601283614109565b9150613be18261459b565b602082019050919050565b6000613bf9601383614109565b9150613c04826145c4565b602082019050919050565b6000613c1c600e83614109565b9150613c27826145ed565b602082019050919050565b6000613c3f600b83614109565b9150613c4a82614616565b602082019050919050565b600060c0830160008301518482036000860152613c728282613982565b9150506020830151613c876020860182613906565b506040830151613c9a6040860182613cde565b506060830151613cad6060860182613cde565b506080830151613cc06080860182613cde565b5060a0830151613cd360a0860182613924565b508091505092915050565b613ce781614163565b82525050565b613cf681614163565b82525050565b6000613d088284613942565b915081905092915050565b6000613d1f82846139f4565b915081905092915050565b6000602082019050613d3f6000830184613915565b92915050565b6000604082019050613d5a6000830185613915565b613d676020830184613ced565b9392505050565b6000602082019050613d836000830184613933565b92915050565b6000602082019050613d9e6000830184613973565b92915050565b60006020820190508181036000830152613dbe81846139bb565b905092915050565b600060c0820190508181036000830152613de081896139bb565b9050613def6020830188613915565b613dfc6040830187613ced565b613e096060830186613ced565b613e166080830185613ced565b613e2360a0830184613933565b979650505050505050565b60006020820190508181036000830152613e4781613a25565b9050919050565b60006020820190508181036000830152613e6781613a48565b9050919050565b60006020820190508181036000830152613e8781613a6b565b9050919050565b60006020820190508181036000830152613ea781613a8e565b9050919050565b60006020820190508181036000830152613ec781613ab1565b9050919050565b60006020820190508181036000830152613ee781613ad4565b9050919050565b60006020820190508181036000830152613f0781613af7565b9050919050565b60006020820190508181036000830152613f2781613b1a565b9050919050565b60006020820190508181036000830152613f4781613b3d565b9050919050565b60006020820190508181036000830152613f6781613b60565b9050919050565b60006020820190508181036000830152613f8781613b83565b9050919050565b60006020820190508181036000830152613fa781613ba6565b9050919050565b60006020820190508181036000830152613fc781613bc9565b9050919050565b60006020820190508181036000830152613fe781613bec565b9050919050565b6000602082019050818103600083015261400781613c0f565b9050919050565b6000602082019050818103600083015261402781613c32565b9050919050565b600060208201905081810360008301526140488184613c55565b905092915050565b600061405a61406b565b90506140668282614205565b919050565b6000604051905090565b600067ffffffffffffffff8211156140905761408f614265565b5b61409982614294565b9050602081019050919050565b600067ffffffffffffffff8211156140c1576140c0614265565b5b6140ca82614294565b9050602081019050919050565b600081519050919050565b600081519050919050565b600081905092915050565b600082825260208201905092915050565b600082825260208201905092915050565b600081905092915050565b600061413082614143565b9050919050565b60008115159050919050565b600073ffffffffffffffffffffffffffffffffffffffff82169050919050565b6000819050919050565b60006141788261417f565b9050919050565b600061418a82614143565b9050919050565b82818337600083830152505050565b60005b838110156141be5780820151818401526020810190506141a3565b838111156141cd576000848401525b50505050565b600060028204905060018216806141eb57607f821691505b602082108114156141ff576141fe614236565b5b50919050565b61420e82614294565b810181811067ffffffffffffffff8211171561422d5761422c614265565b5b80604052505050565b7f4e487b7100000000000000000000000000000000000000000000000000000000600052602260045260246000fd5b7f4e487b7100000000000000000000000000000000000000000000000000000000600052604160045260246000fd5b6000601f19601f8301169050919050565b7f45524331393637557067726164653a207570677261646520627265616b73206660008201527f7572746865722075706772616465730000000000000000000000000000000000602082015250565b7f4f776e61626c653a206e6577206f776e657220697320746865207a65726f206160008201527f6464726573730000000000000000000000000000000000000000000000000000602082015250565b7f46756e6374696f6e206d7573742062652063616c6c6564207468726f7567682060008201527f64656c656761746563616c6c0000000000000000000000000000000000000000602082015250565b7f46756e6374696f6e206d7573742062652063616c6c6564207468726f7567682060008201527f6163746976652070726f78790000000000000000000000000000000000000000602082015250565b7f57726f6e6720726566657220636f646500000000000000000000000000000000600082015250565b7f50726f6772616d206e6f7420666f756e64000000000000000000000000000000600082015250565b7f496e697469616c697a61626c653a20636f6e747261637420697320616c72656160008201527f647920696e697469616c697a6564000000000000000000000000000000000000602082015250565b7f455243313936373a206e657720696d706c656d656e746174696f6e206973206e60008201527f6f74206120636f6e747261637400000000000000000000000000000000000000602082015250565b7f4f776e61626c653a2063616c6c6572206973206e6f7420746865206f776e6572600082015250565b7f50726f6772616d2069732072756e6e696e670000000000000000000000000000600082015250565b7f416464726573733a2064656c65676174652063616c6c20746f206e6f6e2d636f60008201527f6e74726163740000000000000000000000000000000000000000000000000000602082015250565b7f43616e6e6f74206a6f696e20796f757273656c66000000000000000000000000600082015250565b7f50726f6772616d2069732070617573696e670000000000000000000000000000600082015250565b7f50726f6772616d206973206578697374696e6700000000000000000000000000600082015250565b7f416d6f756e742065786365656473000000000000000000000000000000000000600082015250565b7f55736572206a6f696e6564000000000000000000000000000000000000000000600082015250565b61464881614125565b811461465357600080fd5b50565b61465f81614137565b811461466a57600080fd5b50565b61467681614163565b811461468157600080fd5b5056fe416464726573733a206c6f772d6c6576656c2064656c65676174652063616c6c206661696c6564a26469706673582212200a14c2594e7c0aa49ad985980bad8fea5af74c3ed9646bd19fa21c990a2c103c64736f6c63430008020033",
  "linkReferences": {},
  "deployedLinkReferences": {}
}