{
  "_format": "hh-sol-artifact-1",
  "contractName": "ReferralContract",
  "sourceName": "contracts/ReferralContract.sol",
  "abi": [
    {
      "inputs": [],
      "stateMutability": "nonpayable",
      "type": "constructor"
    },
    {
      "anonymous": false,
      "inputs": [
        {
          "indexed": false,
          "internalType": "address",
          "name": "previousAdmin",
          "type": "address"
        },
        {
          "indexed": false,
          "internalType": "address",
          "name": "newAdmin",
          "type": "address"
        }
      ],
      "name": "AdminChanged",
      "type": "event"
    },
    {
      "anonymous": false,
      "inputs": [
        {
          "indexed": true,
          "internalType": "address",
          "name": "beacon",
          "type": "address"
        }
      ],
      "name": "BeaconUpgraded",
      "type": "event"
    },
    {
      "anonymous": false,
      "inputs": [
        {
          "indexed": true,
          "internalType": "address",
          "name": "previousOwner",
          "type": "address"
        },
        {
          "indexed": true,
          "internalType": "address",
          "name": "newOwner",
          "type": "address"
        }
      ],
      "name": "OwnershipTransferred",
      "type": "event"
    },
    {
      "anonymous": false,
      "inputs": [
        {
          "indexed": true,
          "internalType": "address",
          "name": "implementation",
          "type": "address"
        }
      ],
      "name": "Upgraded",
      "type": "event"
    },
    {
      "inputs": [
        {
          "internalType": "string",
          "name": "programCode",
          "type": "string"
        },
        {
          "internalType": "address",
          "name": "tokenAddress",
          "type": "address"
        }
      ],
      "name": "addProgram",
      "outputs": [],
      "stateMutability": "nonpayable",
      "type": "function"
    },
    {
      "inputs": [
        {
          "internalType": "address",
          "name": "",
          "type": "address"
        }
      ],
      "name": "addressJoined",
      "outputs": [
        {
          "internalType": "string",
          "name": "",
          "type": "string"
        }
      ],
      "stateMutability": "view",
      "type": "function"
    },
    {
      "inputs": [
        {
          "internalType": "string",
          "name": "programCode",
          "type": "string"
        },
        {
          "internalType": "address",
          "name": "userAddress",
          "type": "address"
        }
      ],
      "name": "checkJoined",
      "outputs": [
        {
          "internalType": "bool",
          "name": "",
          "type": "bool"
        }
      ],
      "stateMutability": "view",
      "type": "function"
    },
    {
      "inputs": [],
      "name": "debug",
      "outputs": [
        {
          "internalType": "string",
          "name": "",
          "type": "string"
        }
      ],
      "stateMutability": "view",
      "type": "function"
    },
    {
      "inputs": [
        {
          "internalType": "address",
          "name": "tokenAddress",
          "type": "address"
        },
        {
          "internalType": "uint256",
          "name": "_amount",
          "type": "uint256"
        }
      ],
      "name": "emergencyWithdrawToken",
      "outputs": [],
      "stateMutability": "nonpayable",
      "type": "function"
    },
    {
      "inputs": [
        {
          "internalType": "string",
          "name": "programCode",
          "type": "string"
        }
      ],
      "name": "getInfoProgram",
      "outputs": [
        {
          "internalType": "string",
          "name": "code",
          "type": "string"
        },
        {
          "internalType": "address",
          "name": "tokenAddress",
          "type": "address"
        },
        {
          "internalType": "uint256",
          "name": "incentiveL0",
          "type": "uint256"
        },
        {
          "internalType": "uint256",
          "name": "incentiveL1",
          "type": "uint256"
        },
        {
          "internalType": "uint256",
          "name": "incentiveL2",
          "type": "uint256"
        },
        {
          "internalType": "bool",
          "name": "paused",
          "type": "bool"
        }
      ],
      "stateMutability": "view",
      "type": "function"
    },
    {
      "inputs": [],
      "name": "initialize",
      "outputs": [],
      "stateMutability": "nonpayable",
      "type": "function"
    },
    {
      "inputs": [
        {
          "internalType": "string",
          "name": "programCode",
          "type": "string"
        },
        {
          "internalType": "string",
          "name": "uid",
          "type": "string"
        },
        {
          "internalType": "string",
          "name": "referCode",
          "type": "string"
        }
      ],
      "name": "joinProgram",
      "outputs": [],
      "stateMutability": "nonpayable",
      "type": "function"
    },
    {
      "inputs": [
        {
          "internalType": "string",
          "name": "programCode",
          "type": "string"
        }
      ],
      "name": "leaveProgram",
      "outputs": [],
      "stateMutability": "nonpayable",
      "type": "function"
    },
    {
      "inputs": [],
      "name": "owner",
      "outputs": [
        {
          "internalType": "address",
          "name": "",
          "type": "address"
        }
      ],
      "stateMutability": "view",
      "type": "function"
    },
    {
      "inputs": [
        {
          "internalType": "string",
          "name": "",
          "type": "string"
        }
      ],
      "name": "programs",
      "outputs": [
        {
          "internalType": "string",
          "name": "code",
          "type": "string"
        },
        {
          "internalType": "address",
          "name": "tokenAddress",
          "type": "address"
        },
        {
          "internalType": "uint256",
          "name": "incentiveL0",
          "type": "uint256"
        },
        {
          "internalType": "uint256",
          "name": "incentiveL1",
          "type": "uint256"
        },
        {
          "internalType": "uint256",
          "name": "incentiveL2",
          "type": "uint256"
        },
        {
          "internalType": "bool",
          "name": "paused",
          "type": "bool"
        }
      ],
      "stateMutability": "view",
      "type": "function"
    },
    {
      "inputs": [
        {
          "internalType": "string",
          "name": "",
          "type": "string"
        },
        {
          "internalType": "address",
          "name": "",
          "type": "address"
        }
      ],
      "name": "rUserFromUser",
      "outputs": [
        {
          "internalType": "address",
          "name": "",
          "type": "address"
        }
      ],
      "stateMutability": "view",
      "type": "function"
    },
    {
      "inputs": [
        {
          "internalType": "string",
          "name": "programCode",
          "type": "string"
        }
      ],
      "name": "removeCampaign",
      "outputs": [],
      "stateMutability": "nonpayable",
      "type": "function"
    },
    {
      "inputs": [],
      "name": "renounceOwnership",
      "outputs": [],
      "stateMutability": "nonpayable",
      "type": "function"
    },
    {
      "inputs": [
        {
          "internalType": "string",
          "name": "programCode",
          "type": "string"
        },
        {
          "internalType": "uint256",
          "name": "amount",
          "type": "uint256"
        }
      ],
      "name": "setIncentiveAmountL0",
      "outputs": [],
      "stateMutability": "nonpayable",
      "type": "function"
    },
    {
      "inputs": [
        {
          "internalType": "string",
          "name": "programCode",
          "type": "string"
        },
        {
          "internalType": "uint256",
          "name": "amount",
          "type": "uint256"
        }
      ],
      "name": "setIncentiveAmountL1",
      "outputs": [],
      "stateMutability": "nonpayable",
      "type": "function"
    },
    {
      "inputs": [
        {
          "internalType": "string",
          "name": "programCode",
          "type": "string"
        },
        {
          "internalType": "uint256",
          "name": "amount",
          "type": "uint256"
        }
      ],
      "name": "setIncentiveAmountL2",
      "outputs": [],
      "stateMutability": "nonpayable",
      "type": "function"
    },
    {
      "inputs": [
        {
          "internalType": "string",
          "name": "programCode",
          "type": "string"
        }
      ],
      "name": "setPause",
      "outputs": [],
      "stateMutability": "nonpayable",
      "type": "function"
    },
    {
      "inputs": [
        {
          "internalType": "string",
          "name": "programCode",
          "type": "string"
        }
      ],
      "name": "setUnPause",
      "outputs": [],
      "stateMutability": "nonpayable",
      "type": "function"
    },
    {
      "inputs": [],
      "name": "token",
      "outputs": [
        {
          "internalType": "contract IERC20Upgradeable",
          "name": "",
          "type": "address"
        }
      ],
      "stateMutability": "view",
      "type": "function"
    },
    {
      "inputs": [
        {
          "internalType": "address",
          "name": "tokenAddress",
          "type": "address"
        },
        {
          "internalType": "uint256",
          "name": "amount",
          "type": "uint256"
        }
      ],
      "name": "transferBack",
      "outputs": [],
      "stateMutability": "nonpayable",
      "type": "function"
    },
    {
      "inputs": [
        {
          "internalType": "address",
          "name": "newOwner",
          "type": "address"
        }
      ],
      "name": "transferOwnership",
      "outputs": [],
      "stateMutability": "nonpayable",
      "type": "function"
    },
    {
      "inputs": [
        {
          "internalType": "string",
          "name": "",
          "type": "string"
        },
        {
          "internalType": "string",
          "name": "",
          "type": "string"
        }
      ],
      "name": "uidJoined",
      "outputs": [
        {
          "internalType": "address",
          "name": "",
          "type": "address"
        }
      ],
      "stateMutability": "view",
      "type": "function"
    },
    {
      "inputs": [
        {
          "internalType": "address",
          "name": "newImplementation",
          "type": "address"
        }
      ],
      "name": "upgradeTo",
      "outputs": [],
      "stateMutability": "nonpayable",
      "type": "function"
    },
    {
      "inputs": [
        {
          "internalType": "address",
          "name": "newImplementation",
          "type": "address"
        },
        {
          "internalType": "bytes",
          "name": "data",
          "type": "bytes"
        }
      ],
      "name": "upgradeToAndCall",
      "outputs": [],
      "stateMutability": "payable",
      "type": "function"
    },
    {
      "inputs": [
        {
          "internalType": "string",
          "name": "",
          "type": "string"
        },
        {
          "internalType": "address",
          "name": "",
          "type": "address"
        },
        {
          "internalType": "uint256",
          "name": "",
          "type": "uint256"
        }
      ],
      "name": "userFollowers",
      "outputs": [
        {
          "internalType": "address",
          "name": "",
          "type": "address"
        }
      ],
      "stateMutability": "view",
      "type": "function"
    },
    {
      "inputs": [
        {
          "internalType": "string",
          "name": "",
          "type": "string"
        }
      ],
      "name": "userJoined",
      "outputs": [
        {
          "internalType": "address",
          "name": "",
          "type": "address"
        }
      ],
      "stateMutability": "view",
      "type": "function"
    },
    {
      "inputs": [],
      "name": "version",
      "outputs": [
        {
          "internalType": "string",
          "name": "",
          "type": "string"
        }
      ],
      "stateMutability": "pure",
      "type": "function"
    }
  ],
  "bytecode": "0x60a06040523073ffffffffffffffffffffffffffffffffffffffff1660809073ffffffffffffffffffffffffffffffffffffffff1660601b8152503480156200004757600080fd5b50600060019054906101000a900460ff16806200006f575060008054906101000a900460ff16155b620000b1576040517f08c379a0000000000000000000000000000000000000000000000000000000008152600401620000a89062000152565b60405180910390fd5b60008060019054906101000a900460ff16159050801562000102576001600060016101000a81548160ff02191690831515021790555060016000806101000a81548160ff0219169083151502179055505b8015620001245760008060016101000a81548160ff0219169083151502179055505b50620001d4565b60006200013a602e8362000174565b9150620001478262000185565b604082019050919050565b600060208201905081810360008301526200016d816200012b565b9050919050565b600082825260208201905092915050565b7f496e697469616c697a61626c653a20636f6e747261637420697320616c72656160008201527f647920696e697469616c697a6564000000000000000000000000000000000000602082015250565b60805160601c614db762000208600039600081816109af01528181610a3e01528181610bcf0152610c5e0152614db76000f3fe6080604052600436106101b75760003560e01c8063922f9178116100ec578063c8f2835f1161008a578063de4e023011610064578063de4e023014610613578063e9bd87631461063c578063f2fde38b14610665578063fc0c546a1461068e576101b7565b8063c8f2835f14610584578063cb25b67d146105ad578063d075d344146105d6576101b7565b8063a0d0e36e116100c6578063a0d0e36e146104ae578063a4c3b091146104f0578063b5dd4a3214610519578063befe75731461055b576101b7565b8063922f91781461041f578063986419631461045c5780639e3c2fc714610485576101b7565b80636326a0a0116101595780637374251411610133578063737425141461037757806379c7d9c4146103b45780638129fc1c146103dd5780638da5cb5b146103f4576101b7565b80636326a0a0146102e65780636890228c14610323578063715018a614610360576101b7565b80633bdc4cb6116101955780633bdc4cb6146102375780634f1ef2861461027457806354fd4d5014610290578063588ee29b146102bb576101b7565b80630b3d3f46146101bc5780632edcf7c9146101e55780633659cfe61461020e575b600080fd5b3480156101c857600080fd5b506101e360048036038101906101de9190613bb0565b6106b9565b005b3480156101f157600080fd5b5061020c60048036038101906102079190613d6e565b610907565b005b34801561021a57600080fd5b5061023560048036038101906102309190613a8d565b6109ad565b005b34801561024357600080fd5b5061025e60048036038101906102599190613c04565b610b5c565b60405161026b9190614265565b60405180910390f35b61028e60048036038101906102899190613ab6565b610bcd565b005b34801561029c57600080fd5b506102a5610d0a565b6040516102b291906142df565b60405180910390f35b3480156102c757600080fd5b506102d0610d47565b6040516102dd91906142df565b60405180910390f35b3480156102f257600080fd5b5061030d60048036038101906103089190613a8d565b610dd5565b60405161031a91906142df565b60405180910390f35b34801561032f57600080fd5b5061034a60048036038101906103459190613bb0565b610e75565b60405161035791906142a9565b60405180910390f35b34801561036c57600080fd5b50610375610f2a565b005b34801561038357600080fd5b5061039e60048036038101906103999190613c6b565b610fb2565b6040516103ab9190614265565b60405180910390f35b3480156103c057600080fd5b506103db60048036038101906103d69190613b6f565b611020565b005b3480156103e957600080fd5b506103f261114e565b005b34801561040057600080fd5b5061040961122f565b6040516104169190614265565b60405180910390f35b34801561042b57600080fd5b5061044660048036038101906104419190613b6f565b611259565b6040516104539190614265565b60405180910390f35b34801561046857600080fd5b50610483600480360381019061047e9190613b6f565b6112a2565b005b34801561049157600080fd5b506104ac60048036038101906104a79190613d6e565b6114b6565b005b3480156104ba57600080fd5b506104d560048036038101906104d09190613b6f565b61155c565b6040516104e796959493929190614301565b60405180910390f35b3480156104fc57600080fd5b5061051760048036038101906105129190613b0a565b6116e7565b005b34801561052557600080fd5b50610540600480360381019061053b9190613b6f565b6117fc565b60405161055296959493929190614301565b60405180910390f35b34801561056757600080fd5b50610582600480360381019061057d9190613b6f565b611903565b005b34801561059057600080fd5b506105ab60048036038101906105a69190613b0a565b611ab7565b005b3480156105b957600080fd5b506105d460048036038101906105cf9190613cd7565b611d14565b005b3480156105e257600080fd5b506105fd60048036038101906105f89190613bb0565b612a29565b60405161060a9190614265565b60405180910390f35b34801561061f57600080fd5b5061063a60048036038101906106359190613d6e565b612a81565b005b34801561064857600080fd5b50610663600480360381019061065e9190613b6f565b612b27565b005b34801561067157600080fd5b5061068c60048036038101906106879190613a8d565b612c55565b005b34801561069a57600080fd5b506106a3612d4d565b6040516106b091906142c4565b60405180910390f35b6106c1612d73565b73ffffffffffffffffffffffffffffffffffffffff166106df61122f565b73ffffffffffffffffffffffffffffffffffffffff1614610735576040517f08c379a000000000000000000000000000000000000000000000000000000000815260040161072c906144a9565b60405180910390fd5b600073ffffffffffffffffffffffffffffffffffffffff1660c98360405161075d919061424e565b908152602001604051809103902060010160009054906101000a900473ffffffffffffffffffffffffffffffffffffffff1673ffffffffffffffffffffffffffffffffffffffff16146107e5576040517f08c379a00000000000000000000000000000000000000000000000000000000081526004016107dc90614589565b60405180910390fd5b6040518060c001604052808381526020018273ffffffffffffffffffffffffffffffffffffffff16815260200166470de4df8200008152602001662386f26fc10000815260200166038d7ea4c6800081526020016000151581525060c983604051610850919061424e565b9081526020016040518091039020600082015181600001908051906020019061087a929190613886565b5060208201518160010160006101000a81548173ffffffffffffffffffffffffffffffffffffffff021916908373ffffffffffffffffffffffffffffffffffffffff16021790555060408201518160020155606082015181600301556080820151816004015560a08201518160050160006101000a81548160ff0219169083151502179055509050505050565b61090f612d73565b73ffffffffffffffffffffffffffffffffffffffff1661092d61122f565b73ffffffffffffffffffffffffffffffffffffffff1614610983576040517f08c379a000000000000000000000000000000000000000000000000000000000815260040161097a906144a9565b60405180910390fd5b8060c983604051610994919061424e565b9081526020016040518091039020600401819055505050565b7f000000000000000000000000000000000000000000000000000000000000000073ffffffffffffffffffffffffffffffffffffffff163073ffffffffffffffffffffffffffffffffffffffff161415610a3c576040517f08c379a0000000000000000000000000000000000000000000000000000000008152600401610a33906143a9565b60405180910390fd5b7f000000000000000000000000000000000000000000000000000000000000000073ffffffffffffffffffffffffffffffffffffffff16610a7b612d7b565b73ffffffffffffffffffffffffffffffffffffffff1614610ad1576040517f08c379a0000000000000000000000000000000000000000000000000000000008152600401610ac8906143c9565b60405180910390fd5b610ada81612dd2565b610b5981600067ffffffffffffffff811115610b1f577f4e487b7100000000000000000000000000000000000000000000000000000000600052604160045260246000fd5b6040519080825280601f01601f191660200182016040528015610b515781602001600182028036833780820191505090505b506000612e51565b50565b60cc838051602081018201805184825260208301602085012081835280955050505050506020528160005260406000208181548110610b9a57600080fd5b90600052602060002001600092509250509054906101000a900473ffffffffffffffffffffffffffffffffffffffff1681565b7f000000000000000000000000000000000000000000000000000000000000000073ffffffffffffffffffffffffffffffffffffffff163073ffffffffffffffffffffffffffffffffffffffff161415610c5c576040517f08c379a0000000000000000000000000000000000000000000000000000000008152600401610c53906143a9565b60405180910390fd5b7f000000000000000000000000000000000000000000000000000000000000000073ffffffffffffffffffffffffffffffffffffffff16610c9b612d7b565b73ffffffffffffffffffffffffffffffffffffffff1614610cf1576040517f08c379a0000000000000000000000000000000000000000000000000000000008152600401610ce8906143c9565b60405180910390fd5b610cfa82612dd2565b610d0682826001612e51565b5050565b60606040518060400160405280600281526020017f7631000000000000000000000000000000000000000000000000000000000000815250905090565b60d08054610d5490614790565b80601f0160208091040260200160405190810160405280929190818152602001828054610d8090614790565b8015610dcd5780601f10610da257610100808354040283529160200191610dcd565b820191906000526020600020905b815481529060010190602001808311610db057829003601f168201915b505050505081565b60ce6020528060005260406000206000915090508054610df490614790565b80601f0160208091040260200160405190810160405280929190818152602001828054610e2090614790565b8015610e6d5780601f10610e4257610100808354040283529160200191610e6d565b820191906000526020600020905b815481529060010190602001808311610e5057829003601f168201915b505050505081565b60008073ffffffffffffffffffffffffffffffffffffffff1660cb84604051610e9e919061424e565b908152602001604051809103902060008473ffffffffffffffffffffffffffffffffffffffff1673ffffffffffffffffffffffffffffffffffffffff16815260200190815260200160002060009054906101000a900473ffffffffffffffffffffffffffffffffffffffff1673ffffffffffffffffffffffffffffffffffffffff161415905092915050565b610f32612d73565b73ffffffffffffffffffffffffffffffffffffffff16610f5061122f565b73ffffffffffffffffffffffffffffffffffffffff1614610fa6576040517f08c379a0000000000000000000000000000000000000000000000000000000008152600401610f9d906144a9565b60405180910390fd5b610fb06000613022565b565b60ca82805160208101820180518482526020830160208501208183528095505050505050818051602081018201805184825260208301602085012081835280955050505050506000915091509054906101000a900473ffffffffffffffffffffffffffffffffffffffff1681565b611028612d73565b73ffffffffffffffffffffffffffffffffffffffff1661104661122f565b73ffffffffffffffffffffffffffffffffffffffff161461109c576040517f08c379a0000000000000000000000000000000000000000000000000000000008152600401611093906144a9565b60405180910390fd5b6000151560c9826040516110b0919061424e565b908152602001604051809103902060050160009054906101000a900460ff16151514611111576040517f08c379a0000000000000000000000000000000000000000000000000000000008152600401611108906144c9565b60405180910390fd5b600160c982604051611123919061424e565b908152602001604051809103902060050160006101000a81548160ff02191690831515021790555050565b600060019054906101000a900460ff1680611174575060008054906101000a900460ff16155b6111b3576040517f08c379a00000000000000000000000000000000000000000000000000000000081526004016111aa90614449565b60405180910390fd5b60008060019054906101000a900460ff161590508015611203576001600060016101000a81548160ff02191690831515021790555060016000806101000a81548160ff0219169083151502179055505b61120b6130e8565b801561122c5760008060016101000a81548160ff0219169083151502179055505b50565b6000609760009054906101000a900473ffffffffffffffffffffffffffffffffffffffff16905090565b60cd818051602081018201805184825260208301602085012081835280955050505050506000915054906101000a900473ffffffffffffffffffffffffffffffffffffffff1681565b600060ce60003373ffffffffffffffffffffffffffffffffffffffff1673ffffffffffffffffffffffffffffffffffffffff16815260200190815260200160002080546112ee90614790565b80601f016020809104026020016040519081016040528092919081815260200182805461131a90614790565b80156113675780601f1061133c57610100808354040283529160200191611367565b820191906000526020600020905b81548152906001019060200180831161134a57829003601f168201915b50505050509050600073ffffffffffffffffffffffffffffffffffffffff1660ca83604051611396919061424e565b9081526020016040518091039020826040516113b2919061424e565b908152602001604051809103902060009054906101000a900473ffffffffffffffffffffffffffffffffffffffff1673ffffffffffffffffffffffffffffffffffffffff161415611438576040517f08c379a000000000000000000000000000000000000000000000000000000000815260040161142f90614469565b60405180910390fd5b600060ca8360405161144a919061424e565b908152602001604051809103902082604051611466919061424e565b908152602001604051809103902060006101000a81548173ffffffffffffffffffffffffffffffffffffffff021916908373ffffffffffffffffffffffffffffffffffffffff1602179055505050565b6114be612d73565b73ffffffffffffffffffffffffffffffffffffffff166114dc61122f565b73ffffffffffffffffffffffffffffffffffffffff1614611532576040517f08c379a0000000000000000000000000000000000000000000000000000000008152600401611529906144a9565b60405180910390fd5b8060c983604051611543919061424e565b9081526020016040518091039020600201819055505050565b606060008060008060008060c988604051611577919061424e565b90815260200160405180910390206040518060c00160405290816000820180546115a090614790565b80601f01602080910402602001604051908101604052809291908181526020018280546115cc90614790565b80156116195780601f106115ee57610100808354040283529160200191611619565b820191906000526020600020905b8154815290600101906020018083116115fc57829003601f168201915b505050505081526020016001820160009054906101000a900473ffffffffffffffffffffffffffffffffffffffff1673ffffffffffffffffffffffffffffffffffffffff1673ffffffffffffffffffffffffffffffffffffffff1681526020016002820154815260200160038201548152602001600482015481526020016005820160009054906101000a900460ff1615151515815250509050806000015181602001518260400151836060015184608001518560a001519650965096509650965096505091939550919395565b6116ef612d73565b73ffffffffffffffffffffffffffffffffffffffff1661170d61122f565b73ffffffffffffffffffffffffffffffffffffffff1614611763576040517f08c379a000000000000000000000000000000000000000000000000000000000815260040161175a906144a9565b60405180910390fd5b8160cf60006101000a81548173ffffffffffffffffffffffffffffffffffffffff021916908373ffffffffffffffffffffffffffffffffffffffff1602179055506117f86117af61122f565b8260cf60009054906101000a900473ffffffffffffffffffffffffffffffffffffffff1673ffffffffffffffffffffffffffffffffffffffff166131d19092919063ffffffff16565b5050565b60c98180516020810182018051848252602083016020850120818352809550505050505060009150905080600001805461183590614790565b80601f016020809104026020016040519081016040528092919081815260200182805461186190614790565b80156118ae5780601f10611883576101008083540402835291602001916118ae565b820191906000526020600020905b81548152906001019060200180831161189157829003601f168201915b5050505050908060010160009054906101000a900473ffffffffffffffffffffffffffffffffffffffff16908060020154908060030154908060040154908060050160009054906101000a900460ff16905086565b61190b612d73565b73ffffffffffffffffffffffffffffffffffffffff1661192961122f565b73ffffffffffffffffffffffffffffffffffffffff161461197f576040517f08c379a0000000000000000000000000000000000000000000000000000000008152600401611976906144a9565b60405180910390fd5b600073ffffffffffffffffffffffffffffffffffffffff1660c9826040516119a7919061424e565b908152602001604051809103902060010160009054906101000a900473ffffffffffffffffffffffffffffffffffffffff1673ffffffffffffffffffffffffffffffffffffffff161415611a30576040517f08c379a0000000000000000000000000000000000000000000000000000000008152600401611a2790614429565b60405180910390fd5b60c981604051611a40919061424e565b908152602001604051809103902060008082016000611a5f919061390c565b6001820160006101000a81549073ffffffffffffffffffffffffffffffffffffffff02191690556002820160009055600382016000905560048201600090556005820160006101000a81549060ff0219169055505050565b611abf612d73565b73ffffffffffffffffffffffffffffffffffffffff16611add61122f565b73ffffffffffffffffffffffffffffffffffffffff1614611b33576040517f08c379a0000000000000000000000000000000000000000000000000000000008152600401611b2a906144a9565b60405180910390fd5b8160cf60006101000a81548173ffffffffffffffffffffffffffffffffffffffff021916908373ffffffffffffffffffffffffffffffffffffffff1602179055508060cf60009054906101000a900473ffffffffffffffffffffffffffffffffffffffff1673ffffffffffffffffffffffffffffffffffffffff166370a08231306040518263ffffffff1660e01b8152600401611bd09190614265565b60206040518083038186803b158015611be857600080fd5b505afa158015611bfc573d6000803e3d6000fd5b505050506040513d601f19601f82011682018060405250810190611c209190613dc2565b11611c60576040517f08c379a0000000000000000000000000000000000000000000000000000000008152600401611c57906145c9565b60405180910390fd5b60cf60009054906101000a900473ffffffffffffffffffffffffffffffffffffffff1673ffffffffffffffffffffffffffffffffffffffff1663a9059cbb33836040518363ffffffff1660e01b8152600401611cbd929190614280565b602060405180830381600087803b158015611cd757600080fd5b505af1158015611ceb573d6000803e3d6000fd5b505050506040513d601f19601f82011682018060405250810190611d0f9190613b46565b505050565b6000151560c984604051611d28919061424e565b908152602001604051809103902060050160009054906101000a900460ff16151514611d89576040517f08c379a0000000000000000000000000000000000000000000000000000000008152600401611d8090614569565b60405180910390fd5b600073ffffffffffffffffffffffffffffffffffffffff1660c984604051611db1919061424e565b908152602001604051809103902060010160009054906101000a900473ffffffffffffffffffffffffffffffffffffffff1673ffffffffffffffffffffffffffffffffffffffff161415611e3a576040517f08c379a0000000000000000000000000000000000000000000000000000000008152600401611e3190614429565b60405180910390fd5b6000819050600081511115611f4957818051906020012083805190602001201415611e9a576040517f08c379a0000000000000000000000000000000000000000000000000000000008152600401611e9190614529565b60405180910390fd5b600073ffffffffffffffffffffffffffffffffffffffff1660cd83604051611ec2919061424e565b908152602001604051809103902060009054906101000a900473ffffffffffffffffffffffffffffffffffffffff1673ffffffffffffffffffffffffffffffffffffffff161415611f48576040517f08c379a0000000000000000000000000000000000000000000000000000000008152600401611f3f906143e9565b60405180910390fd5b5b600073ffffffffffffffffffffffffffffffffffffffff1660ca85604051611f71919061424e565b908152602001604051809103902084604051611f8d919061424e565b908152602001604051809103902060009054906101000a900473ffffffffffffffffffffffffffffffffffffffff1673ffffffffffffffffffffffffffffffffffffffff1614612012576040517f08c379a0000000000000000000000000000000000000000000000000000000008152600401612009906145e9565b60405180910390fd5b600073ffffffffffffffffffffffffffffffffffffffff1660cb8560405161203a919061424e565b908152602001604051809103902060003373ffffffffffffffffffffffffffffffffffffffff1673ffffffffffffffffffffffffffffffffffffffff16815260200190815260200160002060009054906101000a900473ffffffffffffffffffffffffffffffffffffffff1673ffffffffffffffffffffffffffffffffffffffff161461215e5760ce60003373ffffffffffffffffffffffffffffffffffffffff1673ffffffffffffffffffffffffffffffffffffffff16815260200190815260200160002060405161210d9190614237565b604051809103902083805190602001201461215d576040517f08c379a0000000000000000000000000000000000000000000000000000000008152600401612154906145a9565b60405180910390fd5b5b6000815111156128f957600060cd8360405161217a919061424e565b908152602001604051809103902060009054906101000a900473ffffffffffffffffffffffffffffffffffffffff169050600060019050600073ffffffffffffffffffffffffffffffffffffffff1660cb876040516121d9919061424e565b908152602001604051809103902060003373ffffffffffffffffffffffffffffffffffffffff1673ffffffffffffffffffffffffffffffffffffffff16815260200190815260200160002060009054906101000a900473ffffffffffffffffffffffffffffffffffffffff1673ffffffffffffffffffffffffffffffffffffffff161461226557600090505b80156128f657600060c98760405161227d919061424e565b908152602001604051809103902060010160009054906101000a900473ffffffffffffffffffffffffffffffffffffffff1690508060cf60006101000a81548173ffffffffffffffffffffffffffffffffffffffff021916908373ffffffffffffffffffffffffffffffffffffffff1602179055508260cb88604051612303919061424e565b908152602001604051809103902060003373ffffffffffffffffffffffffffffffffffffffff1673ffffffffffffffffffffffffffffffffffffffff16815260200190815260200160002060006101000a81548173ffffffffffffffffffffffffffffffffffffffff021916908373ffffffffffffffffffffffffffffffffffffffff16021790555060cc8760405161239c919061424e565b908152602001604051809103902060008473ffffffffffffffffffffffffffffffffffffffff1673ffffffffffffffffffffffffffffffffffffffff168152602001908152602001600020339080600181540180825580915050600190039060005260206000200160009091909190916101000a81548173ffffffffffffffffffffffffffffffffffffffff021916908373ffffffffffffffffffffffffffffffffffffffff160217905550600060c98860405161245a919061424e565b90815260200160405180910390206002015411156125445760cf60009054906101000a900473ffffffffffffffffffffffffffffffffffffffff1673ffffffffffffffffffffffffffffffffffffffff1663a9059cbb8460c98a6040516124c1919061424e565b9081526020016040518091039020600201546040518363ffffffff1660e01b81526004016124f0929190614280565b602060405180830381600087803b15801561250a57600080fd5b505af115801561251e573d6000803e3d6000fd5b505050506040513d601f19601f820116820180604052508101906125429190613b46565b505b6040518060400160405280600e81526020017f616c6c6f77496e63656e7469766500000000000000000000000000000000000081525060d0908051906020019061258f929190613886565b50600060cb886040516125a2919061424e565b908152602001604051809103902060008573ffffffffffffffffffffffffffffffffffffffff1673ffffffffffffffffffffffffffffffffffffffff16815260200190815260200160002060009054906101000a900473ffffffffffffffffffffffffffffffffffffffff169050600073ffffffffffffffffffffffffffffffffffffffff168173ffffffffffffffffffffffffffffffffffffffff16146128f357600060c989604051612656919061424e565b90815260200160405180910390206003015411156127405760cf60009054906101000a900473ffffffffffffffffffffffffffffffffffffffff1673ffffffffffffffffffffffffffffffffffffffff1663a9059cbb8260c98b6040516126bd919061424e565b9081526020016040518091039020600301546040518363ffffffff1660e01b81526004016126ec929190614280565b602060405180830381600087803b15801561270657600080fd5b505af115801561271a573d6000803e3d6000fd5b505050506040513d601f19601f8201168201806040525081019061273e9190613b46565b505b600060cb89604051612752919061424e565b908152602001604051809103902060008373ffffffffffffffffffffffffffffffffffffffff1673ffffffffffffffffffffffffffffffffffffffff16815260200190815260200160002060009054906101000a900473ffffffffffffffffffffffffffffffffffffffff169050600073ffffffffffffffffffffffffffffffffffffffff168173ffffffffffffffffffffffffffffffffffffffff16146128f157600060c98a604051612806919061424e565b90815260200160405180910390206004015411156128f05760cf60009054906101000a900473ffffffffffffffffffffffffffffffffffffffff1673ffffffffffffffffffffffffffffffffffffffff1663a9059cbb8260c98c60405161286d919061424e565b9081526020016040518091039020600401546040518363ffffffff1660e01b815260040161289c929190614280565b602060405180830381600087803b1580156128b657600080fd5b505af11580156128ca573d6000803e3d6000fd5b505050506040513d601f19601f820116820180604052508101906128ee9190613b46565b505b5b505b50505b50505b3360ca8560405161290a919061424e565b908152602001604051809103902084604051612926919061424e565b908152602001604051809103902060006101000a81548173ffffffffffffffffffffffffffffffffffffffff021916908373ffffffffffffffffffffffffffffffffffffffff1602179055503360cd84604051612983919061424e565b908152602001604051809103902060006101000a81548173ffffffffffffffffffffffffffffffffffffffff021916908373ffffffffffffffffffffffffffffffffffffffff1602179055508260ce60003373ffffffffffffffffffffffffffffffffffffffff1673ffffffffffffffffffffffffffffffffffffffff1681526020019081526020016000209080519060200190612a22929190613886565b5050505050565b60cb828051602081018201805184825260208301602085012081835280955050505050506020528060005260406000206000915091509054906101000a900473ffffffffffffffffffffffffffffffffffffffff1681565b612a89612d73565b73ffffffffffffffffffffffffffffffffffffffff16612aa761122f565b73ffffffffffffffffffffffffffffffffffffffff1614612afd576040517f08c379a0000000000000000000000000000000000000000000000000000000008152600401612af4906144a9565b60405180910390fd5b8060c983604051612b0e919061424e565b9081526020016040518091039020600301819055505050565b612b2f612d73565b73ffffffffffffffffffffffffffffffffffffffff16612b4d61122f565b73ffffffffffffffffffffffffffffffffffffffff1614612ba3576040517f08c379a0000000000000000000000000000000000000000000000000000000008152600401612b9a906144a9565b60405180910390fd5b6001151560c982604051612bb7919061424e565b908152602001604051809103902060050160009054906101000a900460ff16151514612c18576040517f08c379a0000000000000000000000000000000000000000000000000000000008152600401612c0f90614569565b60405180910390fd5b600060c982604051612c2a919061424e565b908152602001604051809103902060050160006101000a81548160ff02191690831515021790555050565b612c5d612d73565b73ffffffffffffffffffffffffffffffffffffffff16612c7b61122f565b73ffffffffffffffffffffffffffffffffffffffff1614612cd1576040517f08c379a0000000000000000000000000000000000000000000000000000000008152600401612cc8906144a9565b60405180910390fd5b600073ffffffffffffffffffffffffffffffffffffffff168173ffffffffffffffffffffffffffffffffffffffff161415612d41576040517f08c379a0000000000000000000000000000000000000000000000000000000008152600401612d3890614389565b60405180910390fd5b612d4a81613022565b50565b60cf60009054906101000a900473ffffffffffffffffffffffffffffffffffffffff1681565b600033905090565b6000612da97f360894a13ba1a3210667c828492db98dca3e2076cc3735a920a3ca505d382bbc60001b613257565b60000160009054906101000a900473ffffffffffffffffffffffffffffffffffffffff16905090565b612dda612d73565b73ffffffffffffffffffffffffffffffffffffffff16612df861122f565b73ffffffffffffffffffffffffffffffffffffffff1614612e4e576040517f08c379a0000000000000000000000000000000000000000000000000000000008152600401612e45906144a9565b60405180910390fd5b50565b6000612e5b612d7b565b9050612e6684613261565b600083511180612e735750815b15612e8457612e82848461331a565b505b6000612eb27f4910fdfa16fed3260ed0e7147f7cc6da11a60208b5b9406d12a635614ffd914360001b6133fe565b90508060000160009054906101000a900460ff1661301b5760018160000160006101000a81548160ff021916908315150217905550612f7e8583604051602401612efc9190614265565b6040516020818303038152906040527f3659cfe6000000000000000000000000000000000000000000000000000000007bffffffffffffffffffffffffffffffffffffffffffffffffffffffff19166020820180517bffffffffffffffffffffffffffffffffffffffffffffffffffffffff838183161783525050505061331a565b5060008160000160006101000a81548160ff021916908315150217905550612fa4612d7b565b73ffffffffffffffffffffffffffffffffffffffff168273ffffffffffffffffffffffffffffffffffffffff1614613011576040517f08c379a000000000000000000000000000000000000000000000000000000000815260040161300890614369565b60405180910390fd5b61301a85613408565b5b5050505050565b6000609760009054906101000a900473ffffffffffffffffffffffffffffffffffffffff16905081609760006101000a81548173ffffffffffffffffffffffffffffffffffffffff021916908373ffffffffffffffffffffffffffffffffffffffff1602179055508173ffffffffffffffffffffffffffffffffffffffff168173ffffffffffffffffffffffffffffffffffffffff167f8be0079c531659141344cd1fd0a4f28419497f9722a3daafe3b4186f6b6457e060405160405180910390a35050565b600060019054906101000a900460ff168061310e575060008054906101000a900460ff16155b61314d576040517f08c379a000000000000000000000000000000000000000000000000000000000815260040161314490614449565b60405180910390fd5b60008060019054906101000a900460ff16159050801561319d576001600060016101000a81548160ff02191690831515021790555060016000806101000a81548160ff0219169083151502179055505b6131a5613457565b6131ad613530565b80156131ce5760008060016101000a81548160ff0219169083151502179055505b50565b6132528363a9059cbb60e01b84846040516024016131f0929190614280565b604051602081830303815290604052907bffffffffffffffffffffffffffffffffffffffffffffffffffffffff19166020820180517bffffffffffffffffffffffffffffffffffffffffffffffffffffffff8381831617835250505050613619565b505050565b6000819050919050565b61326a816136e0565b6132a9576040517f08c379a00000000000000000000000000000000000000000000000000000000081526004016132a090614489565b60405180910390fd5b806132d67f360894a13ba1a3210667c828492db98dca3e2076cc3735a920a3ca505d382bbc60001b613257565b60000160006101000a81548173ffffffffffffffffffffffffffffffffffffffff021916908373ffffffffffffffffffffffffffffffffffffffff16021790555050565b6060613325836136e0565b613364576040517f08c379a000000000000000000000000000000000000000000000000000000000815260040161335b906144e9565b60405180910390fd5b6000808473ffffffffffffffffffffffffffffffffffffffff168460405161338c9190614220565b600060405180830381855af49150503d80600081146133c7576040519150601f19603f3d011682016040523d82523d6000602084013e6133cc565b606091505b50915091506133f48282604051806060016040528060278152602001614d5b602791396136f3565b9250505092915050565b6000819050919050565b61341181613261565b8073ffffffffffffffffffffffffffffffffffffffff167fbc7cd75a20ee27fd9adebab32041f755214dbc6bffa90cc0225b39da2e5c2d3b60405160405180910390a250565b600060019054906101000a900460ff168061347d575060008054906101000a900460ff16155b6134bc576040517f08c379a00000000000000000000000000000000000000000000000000000000081526004016134b390614449565b60405180910390fd5b60008060019054906101000a900460ff16159050801561350c576001600060016101000a81548160ff02191690831515021790555060016000806101000a81548160ff0219169083151502179055505b801561352d5760008060016101000a81548160ff0219169083151502179055505b50565b600060019054906101000a900460ff1680613556575060008054906101000a900460ff16155b613595576040517f08c379a000000000000000000000000000000000000000000000000000000000815260040161358c90614449565b60405180910390fd5b60008060019054906101000a900460ff1615905080156135e5576001600060016101000a81548160ff02191690831515021790555060016000806101000a81548160ff0219169083151502179055505b6135f56135f0612d73565b613022565b80156136165760008060016101000a81548160ff0219169083151502179055505b50565b600061367b826040518060400160405280602081526020017f5361666545524332303a206c6f772d6c6576656c2063616c6c206661696c65648152508573ffffffffffffffffffffffffffffffffffffffff1661375a9092919063ffffffff16565b90506000815111156136db578080602001905181019061369b9190613b46565b6136da576040517f08c379a00000000000000000000000000000000000000000000000000000000081526004016136d190614549565b60405180910390fd5b5b505050565b600080823b905060008111915050919050565b6060831561370357829050613753565b6000835111156137165782518084602001fd5b816040517f08c379a000000000000000000000000000000000000000000000000000000000815260040161374a91906142df565b60405180910390fd5b9392505050565b60606137698484600085613772565b90509392505050565b6060824710156137b7576040517f08c379a00000000000000000000000000000000000000000000000000000000081526004016137ae90614409565b60405180910390fd5b6137c0856136e0565b6137ff576040517f08c379a00000000000000000000000000000000000000000000000000000000081526004016137f690614509565b60405180910390fd5b6000808673ffffffffffffffffffffffffffffffffffffffff1685876040516138289190614220565b60006040518083038185875af1925050503d8060008114613865576040519150601f19603f3d011682016040523d82523d6000602084013e61386a565b606091505b509150915061387a8282866136f3565b92505050949350505050565b82805461389290614790565b90600052602060002090601f0160209004810192826138b457600085556138fb565b82601f106138cd57805160ff19168380011785556138fb565b828001600101855582156138fb579182015b828111156138fa5782518255916020019190600101906138df565b5b509050613908919061394c565b5090565b50805461391890614790565b6000825580601f1061392a5750613949565b601f016020900490600052602060002090810190613948919061394c565b5b50565b5b8082111561396557600081600090555060010161394d565b5090565b600061397c6139778461462e565b614609565b90508281526020810184848401111561399457600080fd5b61399f84828561474e565b509392505050565b60006139ba6139b58461465f565b614609565b9050828152602081018484840111156139d257600080fd5b6139dd84828561474e565b509392505050565b6000813590506139f481614d15565b92915050565b600081519050613a0981614d2c565b92915050565b600082601f830112613a2057600080fd5b8135613a30848260208601613969565b91505092915050565b600082601f830112613a4a57600080fd5b8135613a5a8482602086016139a7565b91505092915050565b600081359050613a7281614d43565b92915050565b600081519050613a8781614d43565b92915050565b600060208284031215613a9f57600080fd5b6000613aad848285016139e5565b91505092915050565b60008060408385031215613ac957600080fd5b6000613ad7858286016139e5565b925050602083013567ffffffffffffffff811115613af457600080fd5b613b0085828601613a0f565b9150509250929050565b60008060408385031215613b1d57600080fd5b6000613b2b858286016139e5565b9250506020613b3c85828601613a63565b9150509250929050565b600060208284031215613b5857600080fd5b6000613b66848285016139fa565b91505092915050565b600060208284031215613b8157600080fd5b600082013567ffffffffffffffff811115613b9b57600080fd5b613ba784828501613a39565b91505092915050565b60008060408385031215613bc357600080fd5b600083013567ffffffffffffffff811115613bdd57600080fd5b613be985828601613a39565b9250506020613bfa858286016139e5565b9150509250929050565b600080600060608486031215613c1957600080fd5b600084013567ffffffffffffffff811115613c3357600080fd5b613c3f86828701613a39565b9350506020613c50868287016139e5565b9250506040613c6186828701613a63565b9150509250925092565b60008060408385031215613c7e57600080fd5b600083013567ffffffffffffffff811115613c9857600080fd5b613ca485828601613a39565b925050602083013567ffffffffffffffff811115613cc157600080fd5b613ccd85828601613a39565b9150509250929050565b600080600060608486031215613cec57600080fd5b600084013567ffffffffffffffff811115613d0657600080fd5b613d1286828701613a39565b935050602084013567ffffffffffffffff811115613d2f57600080fd5b613d3b86828701613a39565b925050604084013567ffffffffffffffff811115613d5857600080fd5b613d6486828701613a39565b9150509250925092565b60008060408385031215613d8157600080fd5b600083013567ffffffffffffffff811115613d9b57600080fd5b613da785828601613a39565b9250506020613db885828601613a63565b9150509250929050565b600060208284031215613dd457600080fd5b6000613de284828501613a78565b91505092915050565b613df4816146e2565b82525050565b613e03816146f4565b82525050565b6000613e14826146a5565b613e1e81856146bb565b9350613e2e81856020860161475d565b80840191505092915050565b60008154613e4781614790565b613e5181866146bb565b94506001821660008114613e6c5760018114613e7d57613eb0565b60ff19831686528186019350613eb0565b613e8685614690565b60005b83811015613ea857815481890152600182019150602081019050613e89565b838801955050505b50505092915050565b613ec28161472a565b82525050565b6000613ed3826146b0565b613edd81856146c6565b9350613eed81856020860161475d565b613ef681614851565b840191505092915050565b6000613f0c826146b0565b613f1681856146d7565b9350613f2681856020860161475d565b80840191505092915050565b6000613f3f602f836146c6565b9150613f4a82614862565b604082019050919050565b6000613f626026836146c6565b9150613f6d826148b1565b604082019050919050565b6000613f85602c836146c6565b9150613f9082614900565b604082019050919050565b6000613fa8602c836146c6565b9150613fb38261494f565b604082019050919050565b6000613fcb6010836146c6565b9150613fd68261499e565b602082019050919050565b6000613fee6026836146c6565b9150613ff9826149c7565b604082019050919050565b60006140116011836146c6565b915061401c82614a16565b602082019050919050565b6000614034602e836146c6565b915061403f82614a3f565b604082019050919050565b60006140576011836146c6565b915061406282614a8e565b602082019050919050565b600061407a602d836146c6565b915061408582614ab7565b604082019050919050565b600061409d6020836146c6565b91506140a882614b06565b602082019050919050565b60006140c06012836146c6565b91506140cb82614b2f565b602082019050919050565b60006140e36026836146c6565b91506140ee82614b58565b604082019050919050565b6000614106601d836146c6565b915061411182614ba7565b602082019050919050565b60006141296014836146c6565b915061413482614bd0565b602082019050919050565b600061414c602a836146c6565b915061415782614bf9565b604082019050919050565b600061416f6012836146c6565b915061417a82614c48565b602082019050919050565b60006141926013836146c6565b915061419d82614c71565b602082019050919050565b60006141b5601b836146c6565b91506141c082614c9a565b602082019050919050565b60006141d8600e836146c6565b91506141e382614cc3565b602082019050919050565b60006141fb600b836146c6565b915061420682614cec565b602082019050919050565b61421a81614720565b82525050565b600061422c8284613e09565b915081905092915050565b60006142438284613e3a565b915081905092915050565b600061425a8284613f01565b915081905092915050565b600060208201905061427a6000830184613deb565b92915050565b60006040820190506142956000830185613deb565b6142a26020830184614211565b9392505050565b60006020820190506142be6000830184613dfa565b92915050565b60006020820190506142d96000830184613eb9565b92915050565b600060208201905081810360008301526142f98184613ec8565b905092915050565b600060c082019050818103600083015261431b8189613ec8565b905061432a6020830188613deb565b6143376040830187614211565b6143446060830186614211565b6143516080830185614211565b61435e60a0830184613dfa565b979650505050505050565b6000602082019050818103600083015261438281613f32565b9050919050565b600060208201905081810360008301526143a281613f55565b9050919050565b600060208201905081810360008301526143c281613f78565b9050919050565b600060208201905081810360008301526143e281613f9b565b9050919050565b6000602082019050818103600083015261440281613fbe565b9050919050565b6000602082019050818103600083015261442281613fe1565b9050919050565b6000602082019050818103600083015261444281614004565b9050919050565b6000602082019050818103600083015261446281614027565b9050919050565b600060208201905081810360008301526144828161404a565b9050919050565b600060208201905081810360008301526144a28161406d565b9050919050565b600060208201905081810360008301526144c281614090565b9050919050565b600060208201905081810360008301526144e2816140b3565b9050919050565b60006020820190508181036000830152614502816140d6565b9050919050565b60006020820190508181036000830152614522816140f9565b9050919050565b600060208201905081810360008301526145428161411c565b9050919050565b600060208201905081810360008301526145628161413f565b9050919050565b6000602082019050818103600083015261458281614162565b9050919050565b600060208201905081810360008301526145a281614185565b9050919050565b600060208201905081810360008301526145c2816141a8565b9050919050565b600060208201905081810360008301526145e2816141cb565b9050919050565b60006020820190508181036000830152614602816141ee565b9050919050565b6000614613614624565b905061461f82826147c2565b919050565b6000604051905090565b600067ffffffffffffffff82111561464957614648614822565b5b61465282614851565b9050602081019050919050565b600067ffffffffffffffff82111561467a57614679614822565b5b61468382614851565b9050602081019050919050565b60008190508160005260206000209050919050565b600081519050919050565b600081519050919050565b600081905092915050565b600082825260208201905092915050565b600081905092915050565b60006146ed82614700565b9050919050565b60008115159050919050565b600073ffffffffffffffffffffffffffffffffffffffff82169050919050565b6000819050919050565b60006147358261473c565b9050919050565b600061474782614700565b9050919050565b82818337600083830152505050565b60005b8381101561477b578082015181840152602081019050614760565b8381111561478a576000848401525b50505050565b600060028204905060018216806147a857607f821691505b602082108114156147bc576147bb6147f3565b5b50919050565b6147cb82614851565b810181811067ffffffffffffffff821117156147ea576147e9614822565b5b80604052505050565b7f4e487b7100000000000000000000000000000000000000000000000000000000600052602260045260246000fd5b7f4e487b7100000000000000000000000000000000000000000000000000000000600052604160045260246000fd5b6000601f19601f8301169050919050565b7f45524331393637557067726164653a207570677261646520627265616b73206660008201527f7572746865722075706772616465730000000000000000000000000000000000602082015250565b7f4f776e61626c653a206e6577206f776e657220697320746865207a65726f206160008201527f6464726573730000000000000000000000000000000000000000000000000000602082015250565b7f46756e6374696f6e206d7573742062652063616c6c6564207468726f7567682060008201527f64656c656761746563616c6c0000000000000000000000000000000000000000602082015250565b7f46756e6374696f6e206d7573742062652063616c6c6564207468726f7567682060008201527f6163746976652070726f78790000000000000000000000000000000000000000602082015250565b7f57726f6e6720726566657220636f646500000000000000000000000000000000600082015250565b7f416464726573733a20696e73756666696369656e742062616c616e636520666f60008201527f722063616c6c0000000000000000000000000000000000000000000000000000602082015250565b7f50726f6772616d206e6f7420666f756e64000000000000000000000000000000600082015250565b7f496e697469616c697a61626c653a20636f6e747261637420697320616c72656160008201527f647920696e697469616c697a6564000000000000000000000000000000000000602082015250565b7f4163636f756e74206e6f7420666f756e64000000000000000000000000000000600082015250565b7f455243313936373a206e657720696d706c656d656e746174696f6e206973206e60008201527f6f74206120636f6e747261637400000000000000000000000000000000000000602082015250565b7f4f776e61626c653a2063616c6c6572206973206e6f7420746865206f776e6572600082015250565b7f50726f6772616d2069732072756e6e696e670000000000000000000000000000600082015250565b7f416464726573733a2064656c65676174652063616c6c20746f206e6f6e2d636f60008201527f6e74726163740000000000000000000000000000000000000000000000000000602082015250565b7f416464726573733a2063616c6c20746f206e6f6e2d636f6e7472616374000000600082015250565b7f43616e6e6f74206a6f696e20796f757273656c66000000000000000000000000600082015250565b7f5361666545524332303a204552433230206f7065726174696f6e20646964206e60008201527f6f74207375636365656400000000000000000000000000000000000000000000602082015250565b7f50726f6772616d2069732070617573696e670000000000000000000000000000600082015250565b7f50726f6772616d206973206578697374696e6700000000000000000000000000600082015250565b7f54686973207569642075736564206f7468657220616464726573730000000000600082015250565b7f416d6f756e742065786365656473000000000000000000000000000000000000600082015250565b7f55736572206a6f696e6564000000000000000000000000000000000000000000600082015250565b614d1e816146e2565b8114614d2957600080fd5b50565b614d35816146f4565b8114614d4057600080fd5b50565b614d4c81614720565b8114614d5757600080fd5b5056fe416464726573733a206c6f772d6c6576656c2064656c65676174652063616c6c206661696c6564a2646970667358221220d0a9bd0cdf490a23cbee6db9ade3195b78e6af61cfcd445dda583937870ef13464736f6c63430008020033",
  "linkReferences": {},
  "deployedLinkReferences": {}
}