{
  "_format": "hh-sol-artifact-1",
  "contractName": "ReferralContract",
  "sourceName": "contracts/ReferralContract.sol",
  "abi": [
    {
      "inputs": [],
      "stateMutability": "nonpayable",
      "type": "constructor"
    },
    {
      "anonymous": false,
      "inputs": [
        {
          "indexed": false,
          "internalType": "address",
          "name": "previousAdmin",
          "type": "address"
        },
        {
          "indexed": false,
          "internalType": "address",
          "name": "newAdmin",
          "type": "address"
        }
      ],
      "name": "AdminChanged",
      "type": "event"
    },
    {
      "anonymous": false,
      "inputs": [
        {
          "indexed": true,
          "internalType": "address",
          "name": "beacon",
          "type": "address"
        }
      ],
      "name": "BeaconUpgraded",
      "type": "event"
    },
    {
      "anonymous": false,
      "inputs": [
        {
          "indexed": true,
          "internalType": "address",
          "name": "previousOwner",
          "type": "address"
        },
        {
          "indexed": true,
          "internalType": "address",
          "name": "newOwner",
          "type": "address"
        }
      ],
      "name": "OwnershipTransferred",
      "type": "event"
    },
    {
      "anonymous": false,
      "inputs": [
        {
          "indexed": true,
          "internalType": "address",
          "name": "implementation",
          "type": "address"
        }
      ],
      "name": "Upgraded",
      "type": "event"
    },
    {
      "inputs": [
        {
          "internalType": "string",
          "name": "programCode",
          "type": "string"
        },
        {
          "internalType": "address",
          "name": "tokenAddress",
          "type": "address"
        }
      ],
      "name": "addProgram",
      "outputs": [],
      "stateMutability": "nonpayable",
      "type": "function"
    },
    {
      "inputs": [],
      "name": "admin",
      "outputs": [
        {
          "internalType": "address",
          "name": "",
          "type": "address"
        }
      ],
      "stateMutability": "view",
      "type": "function"
    },
    {
      "inputs": [
        {
          "internalType": "string",
          "name": "programCode",
          "type": "string"
        },
        {
          "internalType": "address",
          "name": "userAddress",
          "type": "address"
        }
      ],
      "name": "checkJoined",
      "outputs": [
        {
          "internalType": "bool",
          "name": "",
          "type": "bool"
        }
      ],
      "stateMutability": "view",
      "type": "function"
    },
    {
      "inputs": [
        {
          "internalType": "address",
          "name": "userAddress",
          "type": "address"
        }
      ],
      "name": "getUserUid",
      "outputs": [
        {
          "internalType": "string",
          "name": "",
          "type": "string"
        }
      ],
      "stateMutability": "view",
      "type": "function"
    },
    {
      "inputs": [
        {
          "internalType": "address",
          "name": "_validUserAddresses",
          "type": "address"
        }
      ],
      "name": "initialize",
      "outputs": [],
      "stateMutability": "nonpayable",
      "type": "function"
    },
    {
      "inputs": [
        {
          "internalType": "string",
          "name": "programCode",
          "type": "string"
        },
        {
          "internalType": "string",
          "name": "referCode",
          "type": "string"
        }
      ],
      "name": "joinProgram",
      "outputs": [],
      "stateMutability": "nonpayable",
      "type": "function"
    },
    {
      "inputs": [],
      "name": "owner",
      "outputs": [
        {
          "internalType": "address",
          "name": "",
          "type": "address"
        }
      ],
      "stateMutability": "view",
      "type": "function"
    },
    {
      "inputs": [
        {
          "internalType": "string",
          "name": "",
          "type": "string"
        }
      ],
      "name": "paused",
      "outputs": [
        {
          "internalType": "bool",
          "name": "",
          "type": "bool"
        }
      ],
      "stateMutability": "view",
      "type": "function"
    },
    {
      "inputs": [
        {
          "internalType": "string",
          "name": "",
          "type": "string"
        },
        {
          "internalType": "string",
          "name": "",
          "type": "string"
        }
      ],
      "name": "programIncentive",
      "outputs": [
        {
          "internalType": "uint256",
          "name": "",
          "type": "uint256"
        }
      ],
      "stateMutability": "view",
      "type": "function"
    },
    {
      "inputs": [
        {
          "internalType": "string",
          "name": "",
          "type": "string"
        }
      ],
      "name": "programs",
      "outputs": [
        {
          "internalType": "address",
          "name": "",
          "type": "address"
        }
      ],
      "stateMutability": "view",
      "type": "function"
    },
    {
      "inputs": [
        {
          "internalType": "string",
          "name": "",
          "type": "string"
        },
        {
          "internalType": "address",
          "name": "",
          "type": "address"
        }
      ],
      "name": "rUserFromUser",
      "outputs": [
        {
          "internalType": "address",
          "name": "",
          "type": "address"
        }
      ],
      "stateMutability": "view",
      "type": "function"
    },
    {
      "inputs": [
        {
          "internalType": "string",
          "name": "programCode",
          "type": "string"
        }
      ],
      "name": "removeCampaign",
      "outputs": [],
      "stateMutability": "nonpayable",
      "type": "function"
    },
    {
      "inputs": [],
      "name": "renounceOwnership",
      "outputs": [],
      "stateMutability": "nonpayable",
      "type": "function"
    },
    {
      "inputs": [
        {
          "internalType": "string",
          "name": "programCode",
          "type": "string"
        },
        {
          "internalType": "uint256",
          "name": "amount",
          "type": "uint256"
        }
      ],
      "name": "setIncentiveAmountL0",
      "outputs": [],
      "stateMutability": "nonpayable",
      "type": "function"
    },
    {
      "inputs": [
        {
          "internalType": "string",
          "name": "programCode",
          "type": "string"
        },
        {
          "internalType": "uint256",
          "name": "amount",
          "type": "uint256"
        }
      ],
      "name": "setIncentiveAmountL1",
      "outputs": [],
      "stateMutability": "nonpayable",
      "type": "function"
    },
    {
      "inputs": [
        {
          "internalType": "string",
          "name": "programCode",
          "type": "string"
        },
        {
          "internalType": "uint256",
          "name": "amount",
          "type": "uint256"
        }
      ],
      "name": "setIncentiveAmountL2",
      "outputs": [],
      "stateMutability": "nonpayable",
      "type": "function"
    },
    {
      "inputs": [
        {
          "internalType": "string",
          "name": "programCode",
          "type": "string"
        }
      ],
      "name": "setPause",
      "outputs": [],
      "stateMutability": "nonpayable",
      "type": "function"
    },
    {
      "inputs": [
        {
          "internalType": "string",
          "name": "programCode",
          "type": "string"
        }
      ],
      "name": "setUnPause",
      "outputs": [],
      "stateMutability": "nonpayable",
      "type": "function"
    },
    {
      "inputs": [],
      "name": "token",
      "outputs": [
        {
          "internalType": "contract IERC20",
          "name": "",
          "type": "address"
        }
      ],
      "stateMutability": "view",
      "type": "function"
    },
    {
      "inputs": [
        {
          "internalType": "address",
          "name": "tokenAddress",
          "type": "address"
        },
        {
          "internalType": "uint256",
          "name": "amount",
          "type": "uint256"
        }
      ],
      "name": "transferBack",
      "outputs": [],
      "stateMutability": "nonpayable",
      "type": "function"
    },
    {
      "inputs": [
        {
          "internalType": "address",
          "name": "newOwner",
          "type": "address"
        }
      ],
      "name": "transferOwnership",
      "outputs": [],
      "stateMutability": "nonpayable",
      "type": "function"
    },
    {
      "inputs": [
        {
          "internalType": "string",
          "name": "",
          "type": "string"
        },
        {
          "internalType": "string",
          "name": "",
          "type": "string"
        }
      ],
      "name": "uidJoined",
      "outputs": [
        {
          "internalType": "bool",
          "name": "",
          "type": "bool"
        }
      ],
      "stateMutability": "view",
      "type": "function"
    },
    {
      "inputs": [
        {
          "internalType": "address",
          "name": "newImplementation",
          "type": "address"
        }
      ],
      "name": "upgradeTo",
      "outputs": [],
      "stateMutability": "nonpayable",
      "type": "function"
    },
    {
      "inputs": [
        {
          "internalType": "address",
          "name": "newImplementation",
          "type": "address"
        },
        {
          "internalType": "bytes",
          "name": "data",
          "type": "bytes"
        }
      ],
      "name": "upgradeToAndCall",
      "outputs": [],
      "stateMutability": "payable",
      "type": "function"
    },
    {
      "inputs": [
        {
          "internalType": "string",
          "name": "",
          "type": "string"
        },
        {
          "internalType": "address",
          "name": "",
          "type": "address"
        },
        {
          "internalType": "uint256",
          "name": "",
          "type": "uint256"
        }
      ],
      "name": "userFollowers",
      "outputs": [
        {
          "internalType": "address",
          "name": "",
          "type": "address"
        }
      ],
      "stateMutability": "view",
      "type": "function"
    },
    {
      "inputs": [],
      "name": "version",
      "outputs": [
        {
          "internalType": "string",
          "name": "",
          "type": "string"
        }
      ],
      "stateMutability": "pure",
      "type": "function"
    },
    {
      "inputs": [
        {
          "internalType": "string",
          "name": "programCode",
          "type": "string"
        }
      ],
      "name": "z_leaveProgram",
      "outputs": [],
      "stateMutability": "nonpayable",
      "type": "function"
    }
  ],
  "bytecode": "0x60a06040523073ffffffffffffffffffffffffffffffffffffffff1660809073ffffffffffffffffffffffffffffffffffffffff1660601b8152503480156200004757600080fd5b50600060019054906101000a900460ff16806200006f575060008054906101000a900460ff16155b620000b1576040517f08c379a0000000000000000000000000000000000000000000000000000000008152600401620000a89062000152565b60405180910390fd5b60008060019054906101000a900460ff16159050801562000102576001600060016101000a81548160ff02191690831515021790555060016000806101000a81548160ff0219169083151502179055505b8015620001245760008060016101000a81548160ff0219169083151502179055505b50620001d4565b60006200013a602e8362000174565b9150620001478262000185565b604082019050919050565b600060208201905081810360008301526200016d816200012b565b9050919050565b600082825260208201905092915050565b7f496e697469616c697a61626c653a20636f6e747261637420697320616c72656160008201527f647920696e697469616c697a6564000000000000000000000000000000000000602082015250565b60805160601c61451b6200020860003960008181610a8101528181610b1001528181610ca10152610d30015261451b6000f3fe60806040526004361061019c5760003560e01c806388be56d0116100ec578063d075d3441161008a578063e9bd876311610064578063e9bd8763146105d5578063f2fde38b146105fe578063f851a44014610627578063fc0c546a146106525761019c565b8063d075d34414610546578063d5dbb5bd14610583578063de4e0230146105ac5761019c565b8063b5dd4a32116100c6578063b5dd4a321461048e578063befe7573146104cb578063c4d66de8146104f4578063c8f2835f1461051d5761019c565b806388be56d0146104115780638da5cb5b1461043a5780639e3c2fc7146104655761019c565b80634f1ef286116101595780636b57551e116101335780636b57551e14610357578063715018a61461039457806373742514146103ab57806379c7d9c4146103e85761019c565b80634f1ef286146102d357806354fd4d50146102ef5780636890228c1461031a5761019c565b80630b3d3f46146101a15780631ac260e8146101ca5780632a7dbb58146102075780632edcf7c9146102445780633659cfe61461026d5780633bdc4cb614610296575b600080fd5b3480156101ad57600080fd5b506101c860048036038101906101c391906135dd565b61067d565b005b3480156101d657600080fd5b506101f160048036038101906101ec919061355b565b6108d3565b6040516101fe9190613bc5565b60405180910390f35b34801561021357600080fd5b5061022e60048036038101906102299190613450565b610909565b60405161023b9190613bfb565b60405180910390f35b34801561025057600080fd5b5061026b60048036038101906102669190613704565b6109c2565b005b34801561027957600080fd5b50610294600480360381019061028f9190613450565b610a7f565b005b3480156102a257600080fd5b506102bd60048036038101906102b89190613631565b610c2e565b6040516102ca9190613b81565b60405180910390f35b6102ed60048036038101906102e891906134a2565b610c9f565b005b3480156102fb57600080fd5b50610304610ddc565b6040516103119190613bfb565b60405180910390f35b34801561032657600080fd5b50610341600480360381019061033c91906135dd565b610e19565b60405161034e9190613bc5565b60405180910390f35b34801561036357600080fd5b5061037e60048036038101906103799190613698565b610ece565b60405161038b9190613e3d565b60405180910390f35b3480156103a057600080fd5b506103a9610f1f565b005b3480156103b757600080fd5b506103d260048036038101906103cd9190613698565b610fa7565b6040516103df9190613bc5565b60405180910390f35b3480156103f457600080fd5b5061040f600480360381019061040a919061355b565b611002565b005b34801561041d57600080fd5b5061043860048036038101906104339190613698565b61112a565b005b34801561044657600080fd5b5061044f611f0d565b60405161045c9190613b81565b60405180910390f35b34801561047157600080fd5b5061048c60048036038101906104879190613704565b611f37565b005b34801561049a57600080fd5b506104b560048036038101906104b0919061355b565b611ff4565b6040516104c29190613b81565b60405180910390f35b3480156104d757600080fd5b506104f260048036038101906104ed919061355b565b61203d565b005b34801561050057600080fd5b5061051b60048036038101906105169190613450565b6121c8565b005b34801561052957600080fd5b50610544600480360381019061053f91906134f6565b61232c565b005b34801561055257600080fd5b5061056d600480360381019061056891906135dd565b612589565b60405161057a9190613b81565b60405180910390f35b34801561058f57600080fd5b506105aa60048036038101906105a5919061355b565b6125e1565b005b3480156105b857600080fd5b506105d360048036038101906105ce9190613704565b6126ec565b005b3480156105e157600080fd5b506105fc60048036038101906105f7919061355b565b6127a9565b005b34801561060a57600080fd5b5061062560048036038101906106209190613450565b6128d1565b005b34801561063357600080fd5b5061063c6129c9565b6040516106499190613b81565b60405180910390f35b34801561065e57600080fd5b506106676129ef565b6040516106749190613be0565b60405180910390f35b610685612a15565b73ffffffffffffffffffffffffffffffffffffffff166106a3611f0d565b73ffffffffffffffffffffffffffffffffffffffff16146106f9576040517f08c379a00000000000000000000000000000000000000000000000000000000081526004016106f090613d3d565b60405180910390fd5b600073ffffffffffffffffffffffffffffffffffffffff1660cc836040516107219190613b2b565b908152602001604051809103902060009054906101000a900473ffffffffffffffffffffffffffffffffffffffff1673ffffffffffffffffffffffffffffffffffffffff16146107a6576040517f08c379a000000000000000000000000000000000000000000000000000000000815260040161079d90613dfd565b60405180910390fd5b8060cc836040516107b79190613b2b565b908152602001604051809103902060006101000a81548173ffffffffffffffffffffffffffffffffffffffff021916908373ffffffffffffffffffffffffffffffffffffffff16021790555066470de4df82000060cd8360405161081b9190613b2b565b908152602001604051809103902060405161083590613b6c565b908152602001604051809103902081905550662386f26fc1000060cd8360405161085f9190613b2b565b908152602001604051809103902060405161087990613b57565b90815260200160405180910390208190555066038d7ea4c6800060cd836040516108a39190613b2b565b90815260200160405180910390206040516108bd90613b42565b9081526020016040518091039020819055505050565b60cb818051602081018201805184825260208301602085012081835280955050505050506000915054906101000a900460ff1681565b606060ca60009054906101000a900473ffffffffffffffffffffffffffffffffffffffff1673ffffffffffffffffffffffffffffffffffffffff16634a44211b836040518263ffffffff1660e01b81526004016109669190613b81565b60006040518083038186803b15801561097e57600080fd5b505afa158015610992573d6000803e3d6000fd5b505050506040513d6000823e3d601f19601f820116820180604052508101906109bb919061359c565b9050919050565b6109ca612a15565b73ffffffffffffffffffffffffffffffffffffffff166109e8611f0d565b73ffffffffffffffffffffffffffffffffffffffff1614610a3e576040517f08c379a0000000000000000000000000000000000000000000000000000000008152600401610a3590613d3d565b60405180910390fd5b8060cd83604051610a4f9190613b2b565b9081526020016040518091039020604051610a6990613b42565b9081526020016040518091039020819055505050565b7f000000000000000000000000000000000000000000000000000000000000000073ffffffffffffffffffffffffffffffffffffffff163073ffffffffffffffffffffffffffffffffffffffff161415610b0e576040517f08c379a0000000000000000000000000000000000000000000000000000000008152600401610b0590613c9d565b60405180910390fd5b7f000000000000000000000000000000000000000000000000000000000000000073ffffffffffffffffffffffffffffffffffffffff16610b4d612a1d565b73ffffffffffffffffffffffffffffffffffffffff1614610ba3576040517f08c379a0000000000000000000000000000000000000000000000000000000008152600401610b9a90613cbd565b60405180910390fd5b610bac81612a74565b610c2b81600067ffffffffffffffff811115610bf1577f4e487b7100000000000000000000000000000000000000000000000000000000600052604160045260246000fd5b6040519080825280601f01601f191660200182016040528015610c235781602001600182028036833780820191505090505b506000612af3565b50565b60d0838051602081018201805184825260208301602085012081835280955050505050506020528160005260406000208181548110610c6c57600080fd5b90600052602060002001600092509250509054906101000a900473ffffffffffffffffffffffffffffffffffffffff1681565b7f000000000000000000000000000000000000000000000000000000000000000073ffffffffffffffffffffffffffffffffffffffff163073ffffffffffffffffffffffffffffffffffffffff161415610d2e576040517f08c379a0000000000000000000000000000000000000000000000000000000008152600401610d2590613c9d565b60405180910390fd5b7f000000000000000000000000000000000000000000000000000000000000000073ffffffffffffffffffffffffffffffffffffffff16610d6d612a1d565b73ffffffffffffffffffffffffffffffffffffffff1614610dc3576040517f08c379a0000000000000000000000000000000000000000000000000000000008152600401610dba90613cbd565b60405180910390fd5b610dcc82612a74565b610dd882826001612af3565b5050565b60606040518060400160405280600281526020017f7631000000000000000000000000000000000000000000000000000000000000815250905090565b60008073ffffffffffffffffffffffffffffffffffffffff1660cf84604051610e429190613b2b565b908152602001604051809103902060008473ffffffffffffffffffffffffffffffffffffffff1673ffffffffffffffffffffffffffffffffffffffff16815260200190815260200160002060009054906101000a900473ffffffffffffffffffffffffffffffffffffffff1673ffffffffffffffffffffffffffffffffffffffff161415905092915050565b60cd8280516020810182018051848252602083016020850120818352809550505050505081805160208101820180518482526020830160208501208183528095505050505050600091509150505481565b610f27612a15565b73ffffffffffffffffffffffffffffffffffffffff16610f45611f0d565b73ffffffffffffffffffffffffffffffffffffffff1614610f9b576040517f08c379a0000000000000000000000000000000000000000000000000000000008152600401610f9290613d3d565b60405180910390fd5b610fa56000612cc4565b565b60ce82805160208101820180518482526020830160208501208183528095505050505050818051602081018201805184825260208301602085012081835280955050505050506000915091509054906101000a900460ff1681565b61100a612a15565b73ffffffffffffffffffffffffffffffffffffffff16611028611f0d565b73ffffffffffffffffffffffffffffffffffffffff161461107e576040517f08c379a000000000000000000000000000000000000000000000000000000000815260040161107590613d3d565b60405180910390fd5b6000151560cb826040516110929190613b2b565b908152602001604051809103902060009054906101000a900460ff161515146110f0576040517f08c379a00000000000000000000000000000000000000000000000000000000081526004016110e790613d5d565b60405180910390fd5b600160cb826040516111029190613b2b565b908152602001604051809103902060006101000a81548160ff02191690831515021790555050565b6000151560cb8360405161113e9190613b2b565b908152602001604051809103902060009054906101000a900460ff1615151461119c576040517f08c379a000000000000000000000000000000000000000000000000000000000815260040161119390613ddd565b60405180910390fd5b600073ffffffffffffffffffffffffffffffffffffffff1660cc836040516111c49190613b2b565b908152602001604051809103902060009054906101000a900473ffffffffffffffffffffffffffffffffffffffff1673ffffffffffffffffffffffffffffffffffffffff16141561124a576040517f08c379a000000000000000000000000000000000000000000000000000000000815260040161124190613cdd565b60405180910390fd5b600081905060008151111561148d57600073ffffffffffffffffffffffffffffffffffffffff1660ca60009054906101000a900473ffffffffffffffffffffffffffffffffffffffff1673ffffffffffffffffffffffffffffffffffffffff166356de10e8846040518263ffffffff1660e01b81526004016112cc9190613bfb565b60206040518083038186803b1580156112e457600080fd5b505afa1580156112f8573d6000803e3d6000fd5b505050506040513d601f19601f8201168201806040525081019061131c9190613479565b73ffffffffffffffffffffffffffffffffffffffff161415611373576040517f08c379a000000000000000000000000000000000000000000000000000000000815260040161136a90613d9d565b60405180910390fd5b60ca60009054906101000a900473ffffffffffffffffffffffffffffffffffffffff1673ffffffffffffffffffffffffffffffffffffffff166356de10e8836040518263ffffffff1660e01b81526004016113ce9190613bfb565b60206040518083038186803b1580156113e657600080fd5b505afa1580156113fa573d6000803e3d6000fd5b505050506040513d601f19601f8201168201806040525081019061141e9190613479565b73ffffffffffffffffffffffffffffffffffffffff163373ffffffffffffffffffffffffffffffffffffffff16141561148c576040517f08c379a000000000000000000000000000000000000000000000000000000000815260040161148390613dbd565b60405180910390fd5b5b600060ca60009054906101000a900473ffffffffffffffffffffffffffffffffffffffff1673ffffffffffffffffffffffffffffffffffffffff16634a44211b336040518263ffffffff1660e01b81526004016114ea9190613b81565b60006040518083038186803b15801561150257600080fd5b505afa158015611516573d6000803e3d6000fd5b505050506040513d6000823e3d601f19601f8201168201806040525081019061153f919061359c565b90506000819050600081511161158a576040517f08c379a000000000000000000000000000000000000000000000000000000000815260040161158190613c7d565b60405180910390fd5b6000151560ce8660405161159e9190613b2b565b9081526020016040518091039020836040516115ba9190613b2b565b908152602001604051809103902060009054906101000a900460ff16151514611618576040517f08c379a000000000000000000000000000000000000000000000000000000000815260040161160f90613c1d565b60405180910390fd5b600083511115611eb357600060ca60009054906101000a900473ffffffffffffffffffffffffffffffffffffffff1673ffffffffffffffffffffffffffffffffffffffff166356de10e8866040518263ffffffff1660e01b815260040161167f9190613bfb565b60206040518083038186803b15801561169757600080fd5b505afa1580156116ab573d6000803e3d6000fd5b505050506040513d601f19601f820116820180604052508101906116cf9190613479565b9050600060019050600073ffffffffffffffffffffffffffffffffffffffff1660cf886040516116ff9190613b2b565b908152602001604051809103902060003373ffffffffffffffffffffffffffffffffffffffff1673ffffffffffffffffffffffffffffffffffffffff16815260200190815260200160002060009054906101000a900473ffffffffffffffffffffffffffffffffffffffff1673ffffffffffffffffffffffffffffffffffffffff161461178b57600090505b6001151560ce8860405161179f9190613b2b565b9081526020016040518091039020856040516117bb9190613b2b565b908152602001604051809103902060009054906101000a900460ff16151514156117e457600090505b8015611eb057600060cc886040516117fc9190613b2b565b908152602001604051809103902060009054906101000a900473ffffffffffffffffffffffffffffffffffffffff1690508060d160006101000a81548173ffffffffffffffffffffffffffffffffffffffff021916908373ffffffffffffffffffffffffffffffffffffffff1602179055508260cf8960405161187f9190613b2b565b908152602001604051809103902060003373ffffffffffffffffffffffffffffffffffffffff1673ffffffffffffffffffffffffffffffffffffffff16815260200190815260200160002060006101000a81548173ffffffffffffffffffffffffffffffffffffffff021916908373ffffffffffffffffffffffffffffffffffffffff16021790555060d0886040516119189190613b2b565b908152602001604051809103902060008473ffffffffffffffffffffffffffffffffffffffff1673ffffffffffffffffffffffffffffffffffffffff168152602001908152602001600020339080600181540180825580915050600190039060005260206000200160009091909190916101000a81548173ffffffffffffffffffffffffffffffffffffffff021916908373ffffffffffffffffffffffffffffffffffffffff160217905550600060cd896040516119d69190613b2b565b90815260200160405180910390206040516119f090613b6c565b9081526020016040518091039020541115611aee5760d160009054906101000a900473ffffffffffffffffffffffffffffffffffffffff1673ffffffffffffffffffffffffffffffffffffffff1663a9059cbb8460cd8b604051611a549190613b2b565b9081526020016040518091039020604051611a6e90613b6c565b9081526020016040518091039020546040518363ffffffff1660e01b8152600401611a9a929190613b9c565b602060405180830381600087803b158015611ab457600080fd5b505af1158015611ac8573d6000803e3d6000fd5b505050506040513d601f19601f82011682018060405250810190611aec9190613532565b505b600060cf89604051611b009190613b2b565b908152602001604051809103902060008573ffffffffffffffffffffffffffffffffffffffff1673ffffffffffffffffffffffffffffffffffffffff16815260200190815260200160002060009054906101000a900473ffffffffffffffffffffffffffffffffffffffff169050600073ffffffffffffffffffffffffffffffffffffffff168173ffffffffffffffffffffffffffffffffffffffff1614611ead57600060cd8a604051611bb49190613b2b565b9081526020016040518091039020604051611bce90613b57565b9081526020016040518091039020541115611ccc5760d160009054906101000a900473ffffffffffffffffffffffffffffffffffffffff1673ffffffffffffffffffffffffffffffffffffffff1663a9059cbb8260cd8c604051611c329190613b2b565b9081526020016040518091039020604051611c4c90613b57565b9081526020016040518091039020546040518363ffffffff1660e01b8152600401611c78929190613b9c565b602060405180830381600087803b158015611c9257600080fd5b505af1158015611ca6573d6000803e3d6000fd5b505050506040513d601f19601f82011682018060405250810190611cca9190613532565b505b600060cf8a604051611cde9190613b2b565b908152602001604051809103902060008373ffffffffffffffffffffffffffffffffffffffff1673ffffffffffffffffffffffffffffffffffffffff16815260200190815260200160002060009054906101000a900473ffffffffffffffffffffffffffffffffffffffff169050600073ffffffffffffffffffffffffffffffffffffffff168173ffffffffffffffffffffffffffffffffffffffff1614611eab57600060cd8b604051611d929190613b2b565b9081526020016040518091039020604051611dac90613b42565b9081526020016040518091039020541115611eaa5760d160009054906101000a900473ffffffffffffffffffffffffffffffffffffffff1673ffffffffffffffffffffffffffffffffffffffff1663a9059cbb8260cd8d604051611e109190613b2b565b9081526020016040518091039020604051611e2a90613b42565b9081526020016040518091039020546040518363ffffffff1660e01b8152600401611e56929190613b9c565b602060405180830381600087803b158015611e7057600080fd5b505af1158015611e84573d6000803e3d6000fd5b505050506040513d601f19601f82011682018060405250810190611ea89190613532565b505b5b505b50505b50505b600160ce86604051611ec59190613b2b565b908152602001604051809103902083604051611ee19190613b2b565b908152602001604051809103902060006101000a81548160ff0219169083151502179055505050505050565b6000609760009054906101000a900473ffffffffffffffffffffffffffffffffffffffff16905090565b611f3f612a15565b73ffffffffffffffffffffffffffffffffffffffff16611f5d611f0d565b73ffffffffffffffffffffffffffffffffffffffff1614611fb3576040517f08c379a0000000000000000000000000000000000000000000000000000000008152600401611faa90613d3d565b60405180910390fd5b8060cd83604051611fc49190613b2b565b9081526020016040518091039020604051611fde90613b6c565b9081526020016040518091039020819055505050565b60cc818051602081018201805184825260208301602085012081835280955050505050506000915054906101000a900473ffffffffffffffffffffffffffffffffffffffff1681565b612045612a15565b73ffffffffffffffffffffffffffffffffffffffff16612063611f0d565b73ffffffffffffffffffffffffffffffffffffffff16146120b9576040517f08c379a00000000000000000000000000000000000000000000000000000000081526004016120b090613d3d565b60405180910390fd5b600073ffffffffffffffffffffffffffffffffffffffff1660cc826040516120e19190613b2b565b908152602001604051809103902060009054906101000a900473ffffffffffffffffffffffffffffffffffffffff1673ffffffffffffffffffffffffffffffffffffffff161415612167576040517f08c379a000000000000000000000000000000000000000000000000000000000815260040161215e90613cdd565b60405180910390fd5b600060cc826040516121799190613b2b565b908152602001604051809103902060006101000a81548173ffffffffffffffffffffffffffffffffffffffff021916908373ffffffffffffffffffffffffffffffffffffffff16021790555050565b600060019054906101000a900460ff16806121ee575060008054906101000a900460ff16155b61222d576040517f08c379a000000000000000000000000000000000000000000000000000000000815260040161222490613cfd565b60405180910390fd5b60008060019054906101000a900460ff16159050801561227d576001600060016101000a81548160ff02191690831515021790555060016000806101000a81548160ff0219169083151502179055505b612285612d8a565b3360c960006101000a81548173ffffffffffffffffffffffffffffffffffffffff021916908373ffffffffffffffffffffffffffffffffffffffff1602179055508160ca60006101000a81548173ffffffffffffffffffffffffffffffffffffffff021916908373ffffffffffffffffffffffffffffffffffffffff16021790555080156123285760008060016101000a81548160ff0219169083151502179055505b5050565b612334612a15565b73ffffffffffffffffffffffffffffffffffffffff16612352611f0d565b73ffffffffffffffffffffffffffffffffffffffff16146123a8576040517f08c379a000000000000000000000000000000000000000000000000000000000815260040161239f90613d3d565b60405180910390fd5b8160d160006101000a81548173ffffffffffffffffffffffffffffffffffffffff021916908373ffffffffffffffffffffffffffffffffffffffff1602179055508060d160009054906101000a900473ffffffffffffffffffffffffffffffffffffffff1673ffffffffffffffffffffffffffffffffffffffff166370a08231306040518263ffffffff1660e01b81526004016124459190613b81565b60206040518083038186803b15801561245d57600080fd5b505afa158015612471573d6000803e3d6000fd5b505050506040513d601f19601f820116820180604052508101906124959190613758565b116124d5576040517f08c379a00000000000000000000000000000000000000000000000000000000081526004016124cc90613e1d565b60405180910390fd5b60d160009054906101000a900473ffffffffffffffffffffffffffffffffffffffff1673ffffffffffffffffffffffffffffffffffffffff1663a9059cbb33836040518363ffffffff1660e01b8152600401612532929190613b9c565b602060405180830381600087803b15801561254c57600080fd5b505af1158015612560573d6000803e3d6000fd5b505050506040513d601f19601f820116820180604052508101906125849190613532565b505050565b60cf828051602081018201805184825260208301602085012081835280955050505050506020528060005260406000206000915091509054906101000a900473ffffffffffffffffffffffffffffffffffffffff1681565b600060ca60009054906101000a900473ffffffffffffffffffffffffffffffffffffffff1673ffffffffffffffffffffffffffffffffffffffff16634a44211b336040518263ffffffff1660e01b815260040161263e9190613b81565b60006040518083038186803b15801561265657600080fd5b505afa15801561266a573d6000803e3d6000fd5b505050506040513d6000823e3d601f19601f82011682018060405250810190612693919061359c565b9050600060ce836040516126a79190613b2b565b9081526020016040518091039020826040516126c39190613b2b565b908152602001604051809103902060006101000a81548160ff0219169083151502179055505050565b6126f4612a15565b73ffffffffffffffffffffffffffffffffffffffff16612712611f0d565b73ffffffffffffffffffffffffffffffffffffffff1614612768576040517f08c379a000000000000000000000000000000000000000000000000000000000815260040161275f90613d3d565b60405180910390fd5b8060cd836040516127799190613b2b565b908152602001604051809103902060405161279390613b57565b9081526020016040518091039020819055505050565b6127b1612a15565b73ffffffffffffffffffffffffffffffffffffffff166127cf611f0d565b73ffffffffffffffffffffffffffffffffffffffff1614612825576040517f08c379a000000000000000000000000000000000000000000000000000000000815260040161281c90613d3d565b60405180910390fd5b6001151560cb826040516128399190613b2b565b908152602001604051809103902060009054906101000a900460ff16151514612897576040517f08c379a000000000000000000000000000000000000000000000000000000000815260040161288e90613ddd565b60405180910390fd5b600060cb826040516128a99190613b2b565b908152602001604051809103902060006101000a81548160ff02191690831515021790555050565b6128d9612a15565b73ffffffffffffffffffffffffffffffffffffffff166128f7611f0d565b73ffffffffffffffffffffffffffffffffffffffff161461294d576040517f08c379a000000000000000000000000000000000000000000000000000000000815260040161294490613d3d565b60405180910390fd5b600073ffffffffffffffffffffffffffffffffffffffff168173ffffffffffffffffffffffffffffffffffffffff1614156129bd576040517f08c379a00000000000000000000000000000000000000000000000000000000081526004016129b490613c5d565b60405180910390fd5b6129c681612cc4565b50565b60c960009054906101000a900473ffffffffffffffffffffffffffffffffffffffff1681565b60d160009054906101000a900473ffffffffffffffffffffffffffffffffffffffff1681565b600033905090565b6000612a4b7f360894a13ba1a3210667c828492db98dca3e2076cc3735a920a3ca505d382bbc60001b612e73565b60000160009054906101000a900473ffffffffffffffffffffffffffffffffffffffff16905090565b612a7c612a15565b73ffffffffffffffffffffffffffffffffffffffff16612a9a611f0d565b73ffffffffffffffffffffffffffffffffffffffff1614612af0576040517f08c379a0000000000000000000000000000000000000000000000000000000008152600401612ae790613d3d565b60405180910390fd5b50565b6000612afd612a1d565b9050612b0884612e7d565b600083511180612b155750815b15612b2657612b248484612f36565b505b6000612b547f4910fdfa16fed3260ed0e7147f7cc6da11a60208b5b9406d12a635614ffd914360001b61301a565b90508060000160009054906101000a900460ff16612cbd5760018160000160006101000a81548160ff021916908315150217905550612c208583604051602401612b9e9190613b81565b6040516020818303038152906040527f3659cfe6000000000000000000000000000000000000000000000000000000007bffffffffffffffffffffffffffffffffffffffffffffffffffffffff19166020820180517bffffffffffffffffffffffffffffffffffffffffffffffffffffffff8381831617835250505050612f36565b5060008160000160006101000a81548160ff021916908315150217905550612c46612a1d565b73ffffffffffffffffffffffffffffffffffffffff168273ffffffffffffffffffffffffffffffffffffffff1614612cb3576040517f08c379a0000000000000000000000000000000000000000000000000000000008152600401612caa90613c3d565b60405180910390fd5b612cbc85613024565b5b5050505050565b6000609760009054906101000a900473ffffffffffffffffffffffffffffffffffffffff16905081609760006101000a81548173ffffffffffffffffffffffffffffffffffffffff021916908373ffffffffffffffffffffffffffffffffffffffff1602179055508173ffffffffffffffffffffffffffffffffffffffff168173ffffffffffffffffffffffffffffffffffffffff167f8be0079c531659141344cd1fd0a4f28419497f9722a3daafe3b4186f6b6457e060405160405180910390a35050565b600060019054906101000a900460ff1680612db0575060008054906101000a900460ff16155b612def576040517f08c379a0000000000000000000000000000000000000000000000000000000008152600401612de690613cfd565b60405180910390fd5b60008060019054906101000a900460ff161590508015612e3f576001600060016101000a81548160ff02191690831515021790555060016000806101000a81548160ff0219169083151502179055505b612e47613073565b612e4f61314c565b8015612e705760008060016101000a81548160ff0219169083151502179055505b50565b6000819050919050565b612e8681613235565b612ec5576040517f08c379a0000000000000000000000000000000000000000000000000000000008152600401612ebc90613d1d565b60405180910390fd5b80612ef27f360894a13ba1a3210667c828492db98dca3e2076cc3735a920a3ca505d382bbc60001b612e73565b60000160006101000a81548173ffffffffffffffffffffffffffffffffffffffff021916908373ffffffffffffffffffffffffffffffffffffffff16021790555050565b6060612f4183613235565b612f80576040517f08c379a0000000000000000000000000000000000000000000000000000000008152600401612f7790613d7d565b60405180910390fd5b6000808473ffffffffffffffffffffffffffffffffffffffff1684604051612fa89190613b14565b600060405180830381855af49150503d8060008114612fe3576040519150601f19603f3d011682016040523d82523d6000602084013e612fe8565b606091505b509150915061301082826040518060600160405280602781526020016144bf60279139613248565b9250505092915050565b6000819050919050565b61302d81612e7d565b8073ffffffffffffffffffffffffffffffffffffffff167fbc7cd75a20ee27fd9adebab32041f755214dbc6bffa90cc0225b39da2e5c2d3b60405160405180910390a250565b600060019054906101000a900460ff1680613099575060008054906101000a900460ff16155b6130d8576040517f08c379a00000000000000000000000000000000000000000000000000000000081526004016130cf90613cfd565b60405180910390fd5b60008060019054906101000a900460ff161590508015613128576001600060016101000a81548160ff02191690831515021790555060016000806101000a81548160ff0219169083151502179055505b80156131495760008060016101000a81548160ff0219169083151502179055505b50565b600060019054906101000a900460ff1680613172575060008054906101000a900460ff16155b6131b1576040517f08c379a00000000000000000000000000000000000000000000000000000000081526004016131a890613cfd565b60405180910390fd5b60008060019054906101000a900460ff161590508015613201576001600060016101000a81548160ff02191690831515021790555060016000806101000a81548160ff0219169083151502179055505b61321161320c612a15565b612cc4565b80156132325760008060016101000a81548160ff0219169083151502179055505b50565b600080823b905060008111915050919050565b60608315613258578290506132a8565b60008351111561326b5782518084602001fd5b816040517f08c379a000000000000000000000000000000000000000000000000000000000815260040161329f9190613bfb565b60405180910390fd5b9392505050565b60006132c26132bd84613e7d565b613e58565b9050828152602081018484840111156132da57600080fd5b6132e5848285613f88565b509392505050565b60006133006132fb84613eae565b613e58565b90508281526020810184848401111561331857600080fd5b613323848285613f88565b509392505050565b600061333e61333984613eae565b613e58565b90508281526020810184848401111561335657600080fd5b613361848285613f97565b509392505050565b60008135905061337881614479565b92915050565b60008151905061338d81614479565b92915050565b6000815190506133a281614490565b92915050565b600082601f8301126133b957600080fd5b81356133c98482602086016132af565b91505092915050565b600082601f8301126133e357600080fd5b81356133f38482602086016132ed565b91505092915050565b600082601f83011261340d57600080fd5b815161341d84826020860161332b565b91505092915050565b600081359050613435816144a7565b92915050565b60008151905061344a816144a7565b92915050565b60006020828403121561346257600080fd5b600061347084828501613369565b91505092915050565b60006020828403121561348b57600080fd5b60006134998482850161337e565b91505092915050565b600080604083850312156134b557600080fd5b60006134c385828601613369565b925050602083013567ffffffffffffffff8111156134e057600080fd5b6134ec858286016133a8565b9150509250929050565b6000806040838503121561350957600080fd5b600061351785828601613369565b925050602061352885828601613426565b9150509250929050565b60006020828403121561354457600080fd5b600061355284828501613393565b91505092915050565b60006020828403121561356d57600080fd5b600082013567ffffffffffffffff81111561358757600080fd5b613593848285016133d2565b91505092915050565b6000602082840312156135ae57600080fd5b600082015167ffffffffffffffff8111156135c857600080fd5b6135d4848285016133fc565b91505092915050565b600080604083850312156135f057600080fd5b600083013567ffffffffffffffff81111561360a57600080fd5b613616858286016133d2565b925050602061362785828601613369565b9150509250929050565b60008060006060848603121561364657600080fd5b600084013567ffffffffffffffff81111561366057600080fd5b61366c868287016133d2565b935050602061367d86828701613369565b925050604061368e86828701613426565b9150509250925092565b600080604083850312156136ab57600080fd5b600083013567ffffffffffffffff8111156136c557600080fd5b6136d1858286016133d2565b925050602083013567ffffffffffffffff8111156136ee57600080fd5b6136fa858286016133d2565b9150509250929050565b6000806040838503121561371757600080fd5b600083013567ffffffffffffffff81111561373157600080fd5b61373d858286016133d2565b925050602061374e85828601613426565b9150509250929050565b60006020828403121561376a57600080fd5b60006137788482850161343b565b91505092915050565b61378a81613f1c565b82525050565b61379981613f2e565b82525050565b60006137aa82613edf565b6137b48185613ef5565b93506137c4818560208601613f97565b80840191505092915050565b6137d981613f64565b82525050565b60006137ea82613eea565b6137f48185613f00565b9350613804818560208601613f97565b61380d8161402a565b840191505092915050565b600061382382613eea565b61382d8185613f11565b935061383d818560208601613f97565b80840191505092915050565b6000613856600f83613f00565b91506138618261403b565b602082019050919050565b6000613879602f83613f00565b915061388482614064565b604082019050919050565b600061389c602683613f00565b91506138a7826140b3565b604082019050919050565b60006138bf601783613f00565b91506138ca82614102565b602082019050919050565b60006138e2602c83613f00565b91506138ed8261412b565b604082019050919050565b6000613905602c83613f00565b91506139108261417a565b604082019050919050565b6000613928601183613f00565b9150613933826141c9565b602082019050919050565b600061394b602e83613f00565b9150613956826141f2565b604082019050919050565b600061396e601183613f11565b915061397982614241565b601182019050919050565b6000613991601183613f11565b915061399c8261426a565b601182019050919050565b60006139b4602d83613f00565b91506139bf82614293565b604082019050919050565b60006139d7602083613f00565b91506139e2826142e2565b602082019050919050565b60006139fa601283613f00565b9150613a058261430b565b602082019050919050565b6000613a1d602683613f00565b9150613a2882614334565b604082019050919050565b6000613a40601183613f11565b9150613a4b82614383565b601182019050919050565b6000613a63601483613f00565b9150613a6e826143ac565b602082019050919050565b6000613a86601483613f00565b9150613a91826143d5565b602082019050919050565b6000613aa9601283613f00565b9150613ab4826143fe565b602082019050919050565b6000613acc601383613f00565b9150613ad782614427565b602082019050919050565b6000613aef600e83613f00565b9150613afa82614450565b602082019050919050565b613b0e81613f5a565b82525050565b6000613b20828461379f565b915081905092915050565b6000613b378284613818565b915081905092915050565b6000613b4d82613961565b9150819050919050565b6000613b6282613984565b9150819050919050565b6000613b7782613a33565b9150819050919050565b6000602082019050613b966000830184613781565b92915050565b6000604082019050613bb16000830185613781565b613bbe6020830184613b05565b9392505050565b6000602082019050613bda6000830184613790565b92915050565b6000602082019050613bf560008301846137d0565b92915050565b60006020820190508181036000830152613c1581846137df565b905092915050565b60006020820190508181036000830152613c3681613849565b9050919050565b60006020820190508181036000830152613c568161386c565b9050919050565b60006020820190508181036000830152613c768161388f565b9050919050565b60006020820190508181036000830152613c96816138b2565b9050919050565b60006020820190508181036000830152613cb6816138d5565b9050919050565b60006020820190508181036000830152613cd6816138f8565b9050919050565b60006020820190508181036000830152613cf68161391b565b9050919050565b60006020820190508181036000830152613d168161393e565b9050919050565b60006020820190508181036000830152613d36816139a7565b9050919050565b60006020820190508181036000830152613d56816139ca565b9050919050565b60006020820190508181036000830152613d76816139ed565b9050919050565b60006020820190508181036000830152613d9681613a10565b9050919050565b60006020820190508181036000830152613db681613a56565b9050919050565b60006020820190508181036000830152613dd681613a79565b9050919050565b60006020820190508181036000830152613df681613a9c565b9050919050565b60006020820190508181036000830152613e1681613abf565b9050919050565b60006020820190508181036000830152613e3681613ae2565b9050919050565b6000602082019050613e526000830184613b05565b92915050565b6000613e62613e73565b9050613e6e8282613fca565b919050565b6000604051905090565b600067ffffffffffffffff821115613e9857613e97613ffb565b5b613ea18261402a565b9050602081019050919050565b600067ffffffffffffffff821115613ec957613ec8613ffb565b5b613ed28261402a565b9050602081019050919050565b600081519050919050565b600081519050919050565b600081905092915050565b600082825260208201905092915050565b600081905092915050565b6000613f2782613f3a565b9050919050565b60008115159050919050565b600073ffffffffffffffffffffffffffffffffffffffff82169050919050565b6000819050919050565b6000613f6f82613f76565b9050919050565b6000613f8182613f3a565b9050919050565b82818337600083830152505050565b60005b83811015613fb5578082015181840152602081019050613f9a565b83811115613fc4576000848401525b50505050565b613fd38261402a565b810181811067ffffffffffffffff82111715613ff257613ff1613ffb565b5b80604052505050565b7f4e487b7100000000000000000000000000000000000000000000000000000000600052604160045260246000fd5b6000601f19601f8301169050919050565b7f5468652075736572206a6f696e65640000000000000000000000000000000000600082015250565b7f45524331393637557067726164653a207570677261646520627265616b73206660008201527f7572746865722075706772616465730000000000000000000000000000000000602082015250565b7f4f776e61626c653a206e6577206f776e657220697320746865207a65726f206160008201527f6464726573730000000000000000000000000000000000000000000000000000602082015250565b7f5468652075736572206973206e6f7420656e61626c6564000000000000000000600082015250565b7f46756e6374696f6e206d7573742062652063616c6c6564207468726f7567682060008201527f64656c656761746563616c6c0000000000000000000000000000000000000000602082015250565b7f46756e6374696f6e206d7573742062652063616c6c6564207468726f7567682060008201527f6163746976652070726f78790000000000000000000000000000000000000000602082015250565b7f50726f6772616d206e6f7420666f756e64000000000000000000000000000000600082015250565b7f496e697469616c697a61626c653a20636f6e747261637420697320616c72656160008201527f647920696e697469616c697a6564000000000000000000000000000000000000602082015250565b7f616d6f756e74496e63656e746976654c32000000000000000000000000000000600082015250565b7f616d6f756e74496e63656e746976654c31000000000000000000000000000000600082015250565b7f455243313936373a206e657720696d706c656d656e746174696f6e206973206e60008201527f6f74206120636f6e747261637400000000000000000000000000000000000000602082015250565b7f4f776e61626c653a2063616c6c6572206973206e6f7420746865206f776e6572600082015250565b7f50726f6772616d2069732072756e6e696e670000000000000000000000000000600082015250565b7f416464726573733a2064656c65676174652063616c6c20746f206e6f6e2d636f60008201527f6e74726163740000000000000000000000000000000000000000000000000000602082015250565b7f616d6f756e74496e63656e746976654c30000000000000000000000000000000600082015250565b7f4e6f7420666f756e6420726566657220636f6465000000000000000000000000600082015250565b7f43616e6e6f74206a6f696e20796f757273656c66000000000000000000000000600082015250565b7f50726f6772616d2069732070617573696e670000000000000000000000000000600082015250565b7f50726f6772616d206973206578697374696e6700000000000000000000000000600082015250565b7f416d6f756e742065786365656473000000000000000000000000000000000000600082015250565b61448281613f1c565b811461448d57600080fd5b50565b61449981613f2e565b81146144a457600080fd5b50565b6144b081613f5a565b81146144bb57600080fd5b5056fe416464726573733a206c6f772d6c6576656c2064656c65676174652063616c6c206661696c6564a26469706673582212206481083a32455bc099044f741b5f89f491c41189e42dc31a9ebdd20a795ad50864736f6c63430008020033",
  "linkReferences": {},
  "deployedLinkReferences": {}
}