{
  "_format": "hh-sol-artifact-1",
  "contractName": "ReferralContract",
  "sourceName": "contracts/ReferralContract.sol",
  "abi": [
    {
      "inputs": [],
      "stateMutability": "nonpayable",
      "type": "constructor"
    },
    {
      "anonymous": false,
      "inputs": [
        {
          "indexed": false,
          "internalType": "address",
          "name": "previousAdmin",
          "type": "address"
        },
        {
          "indexed": false,
          "internalType": "address",
          "name": "newAdmin",
          "type": "address"
        }
      ],
      "name": "AdminChanged",
      "type": "event"
    },
    {
      "anonymous": false,
      "inputs": [
        {
          "indexed": true,
          "internalType": "address",
          "name": "beacon",
          "type": "address"
        }
      ],
      "name": "BeaconUpgraded",
      "type": "event"
    },
    {
      "anonymous": false,
      "inputs": [
        {
          "indexed": true,
          "internalType": "address",
          "name": "previousOwner",
          "type": "address"
        },
        {
          "indexed": true,
          "internalType": "address",
          "name": "newOwner",
          "type": "address"
        }
      ],
      "name": "OwnershipTransferred",
      "type": "event"
    },
    {
      "anonymous": false,
      "inputs": [
        {
          "indexed": true,
          "internalType": "address",
          "name": "implementation",
          "type": "address"
        }
      ],
      "name": "Upgraded",
      "type": "event"
    },
    {
      "inputs": [
        {
          "internalType": "string",
          "name": "programCode",
          "type": "string"
        },
        {
          "internalType": "address",
          "name": "tokenAddress",
          "type": "address"
        }
      ],
      "name": "addProgram",
      "outputs": [],
      "stateMutability": "nonpayable",
      "type": "function"
    },
    {
      "inputs": [
        {
          "internalType": "address",
          "name": "",
          "type": "address"
        }
      ],
      "name": "addressJoined",
      "outputs": [
        {
          "internalType": "string",
          "name": "",
          "type": "string"
        }
      ],
      "stateMutability": "view",
      "type": "function"
    },
    {
      "inputs": [
        {
          "internalType": "string",
          "name": "programCode",
          "type": "string"
        },
        {
          "internalType": "address",
          "name": "userAddress",
          "type": "address"
        }
      ],
      "name": "checkJoined",
      "outputs": [
        {
          "internalType": "bool",
          "name": "",
          "type": "bool"
        }
      ],
      "stateMutability": "view",
      "type": "function"
    },
    {
      "inputs": [],
      "name": "debug",
      "outputs": [
        {
          "internalType": "string",
          "name": "",
          "type": "string"
        }
      ],
      "stateMutability": "view",
      "type": "function"
    },
    {
      "inputs": [
        {
          "internalType": "address",
          "name": "tokenAddress",
          "type": "address"
        },
        {
          "internalType": "uint256",
          "name": "_amount",
          "type": "uint256"
        }
      ],
      "name": "emergencyWithdrawToken",
      "outputs": [],
      "stateMutability": "nonpayable",
      "type": "function"
    },
    {
      "inputs": [
        {
          "internalType": "string",
          "name": "programCode",
          "type": "string"
        }
      ],
      "name": "getInfoProgram",
      "outputs": [
        {
          "internalType": "string",
          "name": "code",
          "type": "string"
        },
        {
          "internalType": "address",
          "name": "tokenAddress",
          "type": "address"
        },
        {
          "internalType": "uint256",
          "name": "incentiveL0",
          "type": "uint256"
        },
        {
          "internalType": "uint256",
          "name": "incentiveL1",
          "type": "uint256"
        },
        {
          "internalType": "uint256",
          "name": "incentiveL2",
          "type": "uint256"
        },
        {
          "internalType": "bool",
          "name": "paused",
          "type": "bool"
        }
      ],
      "stateMutability": "view",
      "type": "function"
    },
    {
      "inputs": [],
      "name": "initialize",
      "outputs": [],
      "stateMutability": "nonpayable",
      "type": "function"
    },
    {
      "inputs": [
        {
          "internalType": "string",
          "name": "programCode",
          "type": "string"
        },
        {
          "internalType": "string",
          "name": "uid",
          "type": "string"
        },
        {
          "internalType": "string",
          "name": "referCode",
          "type": "string"
        }
      ],
      "name": "joinProgram",
      "outputs": [],
      "stateMutability": "nonpayable",
      "type": "function"
    },
    {
      "inputs": [
        {
          "internalType": "string",
          "name": "programCode",
          "type": "string"
        }
      ],
      "name": "leaveProgram",
      "outputs": [],
      "stateMutability": "nonpayable",
      "type": "function"
    },
    {
      "inputs": [],
      "name": "owner",
      "outputs": [
        {
          "internalType": "address",
          "name": "",
          "type": "address"
        }
      ],
      "stateMutability": "view",
      "type": "function"
    },
    {
      "inputs": [
        {
          "internalType": "string",
          "name": "",
          "type": "string"
        }
      ],
      "name": "programs",
      "outputs": [
        {
          "internalType": "string",
          "name": "code",
          "type": "string"
        },
        {
          "internalType": "address",
          "name": "tokenAddress",
          "type": "address"
        },
        {
          "internalType": "uint256",
          "name": "incentiveL0",
          "type": "uint256"
        },
        {
          "internalType": "uint256",
          "name": "incentiveL1",
          "type": "uint256"
        },
        {
          "internalType": "uint256",
          "name": "incentiveL2",
          "type": "uint256"
        },
        {
          "internalType": "bool",
          "name": "paused",
          "type": "bool"
        }
      ],
      "stateMutability": "view",
      "type": "function"
    },
    {
      "inputs": [
        {
          "internalType": "string",
          "name": "",
          "type": "string"
        },
        {
          "internalType": "address",
          "name": "",
          "type": "address"
        }
      ],
      "name": "rUserFromUser",
      "outputs": [
        {
          "internalType": "address",
          "name": "",
          "type": "address"
        }
      ],
      "stateMutability": "view",
      "type": "function"
    },
    {
      "inputs": [
        {
          "internalType": "string",
          "name": "programCode",
          "type": "string"
        }
      ],
      "name": "removeCampaign",
      "outputs": [],
      "stateMutability": "nonpayable",
      "type": "function"
    },
    {
      "inputs": [
        {
          "internalType": "string",
          "name": "programCode",
          "type": "string"
        },
        {
          "internalType": "string",
          "name": "uid",
          "type": "string"
        }
      ],
      "name": "removeJoinProgram",
      "outputs": [],
      "stateMutability": "nonpayable",
      "type": "function"
    },
    {
      "inputs": [],
      "name": "renounceOwnership",
      "outputs": [],
      "stateMutability": "nonpayable",
      "type": "function"
    },
    {
      "inputs": [
        {
          "internalType": "string",
          "name": "programCode",
          "type": "string"
        },
        {
          "internalType": "uint256",
          "name": "amount",
          "type": "uint256"
        }
      ],
      "name": "setIncentiveAmountL0",
      "outputs": [],
      "stateMutability": "nonpayable",
      "type": "function"
    },
    {
      "inputs": [
        {
          "internalType": "string",
          "name": "programCode",
          "type": "string"
        },
        {
          "internalType": "uint256",
          "name": "amount",
          "type": "uint256"
        }
      ],
      "name": "setIncentiveAmountL1",
      "outputs": [],
      "stateMutability": "nonpayable",
      "type": "function"
    },
    {
      "inputs": [
        {
          "internalType": "string",
          "name": "programCode",
          "type": "string"
        },
        {
          "internalType": "uint256",
          "name": "amount",
          "type": "uint256"
        }
      ],
      "name": "setIncentiveAmountL2",
      "outputs": [],
      "stateMutability": "nonpayable",
      "type": "function"
    },
    {
      "inputs": [
        {
          "internalType": "string",
          "name": "programCode",
          "type": "string"
        }
      ],
      "name": "setPause",
      "outputs": [],
      "stateMutability": "nonpayable",
      "type": "function"
    },
    {
      "inputs": [
        {
          "internalType": "string",
          "name": "programCode",
          "type": "string"
        }
      ],
      "name": "setUnPause",
      "outputs": [],
      "stateMutability": "nonpayable",
      "type": "function"
    },
    {
      "inputs": [],
      "name": "token",
      "outputs": [
        {
          "internalType": "contract IERC20Upgradeable",
          "name": "",
          "type": "address"
        }
      ],
      "stateMutability": "view",
      "type": "function"
    },
    {
      "inputs": [
        {
          "internalType": "address",
          "name": "tokenAddress",
          "type": "address"
        },
        {
          "internalType": "uint256",
          "name": "amount",
          "type": "uint256"
        }
      ],
      "name": "transferBack",
      "outputs": [],
      "stateMutability": "nonpayable",
      "type": "function"
    },
    {
      "inputs": [
        {
          "internalType": "address",
          "name": "newOwner",
          "type": "address"
        }
      ],
      "name": "transferOwnership",
      "outputs": [],
      "stateMutability": "nonpayable",
      "type": "function"
    },
    {
      "inputs": [
        {
          "internalType": "string",
          "name": "",
          "type": "string"
        },
        {
          "internalType": "string",
          "name": "",
          "type": "string"
        }
      ],
      "name": "uidJoined",
      "outputs": [
        {
          "internalType": "address",
          "name": "",
          "type": "address"
        }
      ],
      "stateMutability": "view",
      "type": "function"
    },
    {
      "inputs": [
        {
          "internalType": "address",
          "name": "newImplementation",
          "type": "address"
        }
      ],
      "name": "upgradeTo",
      "outputs": [],
      "stateMutability": "nonpayable",
      "type": "function"
    },
    {
      "inputs": [
        {
          "internalType": "address",
          "name": "newImplementation",
          "type": "address"
        },
        {
          "internalType": "bytes",
          "name": "data",
          "type": "bytes"
        }
      ],
      "name": "upgradeToAndCall",
      "outputs": [],
      "stateMutability": "payable",
      "type": "function"
    },
    {
      "inputs": [
        {
          "internalType": "string",
          "name": "",
          "type": "string"
        },
        {
          "internalType": "address",
          "name": "",
          "type": "address"
        },
        {
          "internalType": "uint256",
          "name": "",
          "type": "uint256"
        }
      ],
      "name": "userFollowers",
      "outputs": [
        {
          "internalType": "address",
          "name": "",
          "type": "address"
        }
      ],
      "stateMutability": "view",
      "type": "function"
    },
    {
      "inputs": [
        {
          "internalType": "string",
          "name": "",
          "type": "string"
        }
      ],
      "name": "userJoined",
      "outputs": [
        {
          "internalType": "address",
          "name": "",
          "type": "address"
        }
      ],
      "stateMutability": "view",
      "type": "function"
    },
    {
      "inputs": [],
      "name": "version",
      "outputs": [
        {
          "internalType": "string",
          "name": "",
          "type": "string"
        }
      ],
      "stateMutability": "pure",
      "type": "function"
    }
  ],
  "bytecode": "0x60a06040523073ffffffffffffffffffffffffffffffffffffffff1660809073ffffffffffffffffffffffffffffffffffffffff1660601b8152503480156200004757600080fd5b50600060019054906101000a900460ff16806200006f575060008054906101000a900460ff16155b620000b1576040517f08c379a0000000000000000000000000000000000000000000000000000000008152600401620000a89062000152565b60405180910390fd5b60008060019054906101000a900460ff16159050801562000102576001600060016101000a81548160ff02191690831515021790555060016000806101000a81548160ff0219169083151502179055505b8015620001245760008060016101000a81548160ff0219169083151502179055505b50620001d4565b60006200013a602e8362000174565b9150620001478262000185565b604082019050919050565b600060208201905081810360008301526200016d816200012b565b9050919050565b600082825260208201905092915050565b7f496e697469616c697a61626c653a20636f6e747261637420697320616c72656160008201527f647920696e697469616c697a6564000000000000000000000000000000000000602082015250565b60805160601c614faf62000208600039600081816109e301528181610a7201528181610c030152610c920152614faf6000f3fe6080604052600436106101c25760003560e01c80638da5cb5b116100f7578063befe757311610095578063de4e023011610064578063de4e023014610647578063e9bd876314610670578063f2fde38b14610699578063fc0c546a146106c2576101c2565b8063befe75731461058f578063c8f2835f146105b8578063cb25b67d146105e1578063d075d3441461060a576101c2565b80639e3c2fc7116100d15780639e3c2fc7146104b9578063a0d0e36e146104e2578063a4c3b09114610524578063b5dd4a321461054d576101c2565b80638da5cb5b14610428578063922f9178146104535780639864196314610490576101c2565b80636326a0a011610164578063737425141161013e578063737425141461038257806375f274a2146103bf57806379c7d9c4146103e85780638129fc1c14610411576101c2565b80636326a0a0146102f15780636890228c1461032e578063715018a61461036b576101c2565b80633bdc4cb6116101a05780633bdc4cb6146102425780634f1ef2861461027f57806354fd4d501461029b578063588ee29b146102c6576101c2565b80630b3d3f46146101c75780632edcf7c9146101f05780633659cfe614610219575b600080fd5b3480156101d357600080fd5b506101ee60048036038101906101e99190613da8565b6106ed565b005b3480156101fc57600080fd5b5061021760048036038101906102129190613f66565b61093b565b005b34801561022557600080fd5b50610240600480360381019061023b9190613c85565b6109e1565b005b34801561024e57600080fd5b5061026960048036038101906102649190613dfc565b610b90565b604051610276919061445d565b60405180910390f35b61029960048036038101906102949190613cae565b610c01565b005b3480156102a757600080fd5b506102b0610d3e565b6040516102bd91906144d7565b60405180910390f35b3480156102d257600080fd5b506102db610d7b565b6040516102e891906144d7565b60405180910390f35b3480156102fd57600080fd5b5061031860048036038101906103139190613c85565b610e09565b60405161032591906144d7565b60405180910390f35b34801561033a57600080fd5b5061035560048036038101906103509190613da8565b610ea9565b60405161036291906144a1565b60405180910390f35b34801561037757600080fd5b50610380610f5e565b005b34801561038e57600080fd5b506103a960048036038101906103a49190613e63565b610fe6565b6040516103b6919061445d565b60405180910390f35b3480156103cb57600080fd5b506103e660048036038101906103e19190613e63565b611054565b005b3480156103f457600080fd5b5061040f600480360381019061040a9190613d67565b611218565b005b34801561041d57600080fd5b50610426611346565b005b34801561043457600080fd5b5061043d611427565b60405161044a919061445d565b60405180910390f35b34801561045f57600080fd5b5061047a60048036038101906104759190613d67565b611451565b604051610487919061445d565b60405180910390f35b34801561049c57600080fd5b506104b760048036038101906104b29190613d67565b61149a565b005b3480156104c557600080fd5b506104e060048036038101906104db9190613f66565b6116ae565b005b3480156104ee57600080fd5b5061050960048036038101906105049190613d67565b611754565b60405161051b969594939291906144f9565b60405180910390f35b34801561053057600080fd5b5061054b60048036038101906105469190613d02565b6118df565b005b34801561055957600080fd5b50610574600480360381019061056f9190613d67565b6119f4565b604051610586969594939291906144f9565b60405180910390f35b34801561059b57600080fd5b506105b660048036038101906105b19190613d67565b611afb565b005b3480156105c457600080fd5b506105df60048036038101906105da9190613d02565b611caf565b005b3480156105ed57600080fd5b5061060860048036038101906106039190613ecf565b611f0c565b005b34801561061657600080fd5b50610631600480360381019061062c9190613da8565b612c21565b60405161063e919061445d565b60405180910390f35b34801561065357600080fd5b5061066e60048036038101906106699190613f66565b612c79565b005b34801561067c57600080fd5b5061069760048036038101906106929190613d67565b612d1f565b005b3480156106a557600080fd5b506106c060048036038101906106bb9190613c85565b612e4d565b005b3480156106ce57600080fd5b506106d7612f45565b6040516106e491906144bc565b60405180910390f35b6106f5612f6b565b73ffffffffffffffffffffffffffffffffffffffff16610713611427565b73ffffffffffffffffffffffffffffffffffffffff1614610769576040517f08c379a0000000000000000000000000000000000000000000000000000000008152600401610760906146a1565b60405180910390fd5b600073ffffffffffffffffffffffffffffffffffffffff1660c9836040516107919190614446565b908152602001604051809103902060010160009054906101000a900473ffffffffffffffffffffffffffffffffffffffff1673ffffffffffffffffffffffffffffffffffffffff1614610819576040517f08c379a000000000000000000000000000000000000000000000000000000000815260040161081090614781565b60405180910390fd5b6040518060c001604052808381526020018273ffffffffffffffffffffffffffffffffffffffff16815260200166470de4df8200008152602001662386f26fc10000815260200166038d7ea4c6800081526020016000151581525060c9836040516108849190614446565b908152602001604051809103902060008201518160000190805190602001906108ae929190613a7e565b5060208201518160010160006101000a81548173ffffffffffffffffffffffffffffffffffffffff021916908373ffffffffffffffffffffffffffffffffffffffff16021790555060408201518160020155606082015181600301556080820151816004015560a08201518160050160006101000a81548160ff0219169083151502179055509050505050565b610943612f6b565b73ffffffffffffffffffffffffffffffffffffffff16610961611427565b73ffffffffffffffffffffffffffffffffffffffff16146109b7576040517f08c379a00000000000000000000000000000000000000000000000000000000081526004016109ae906146a1565b60405180910390fd5b8060c9836040516109c89190614446565b9081526020016040518091039020600401819055505050565b7f000000000000000000000000000000000000000000000000000000000000000073ffffffffffffffffffffffffffffffffffffffff163073ffffffffffffffffffffffffffffffffffffffff161415610a70576040517f08c379a0000000000000000000000000000000000000000000000000000000008152600401610a67906145a1565b60405180910390fd5b7f000000000000000000000000000000000000000000000000000000000000000073ffffffffffffffffffffffffffffffffffffffff16610aaf612f73565b73ffffffffffffffffffffffffffffffffffffffff1614610b05576040517f08c379a0000000000000000000000000000000000000000000000000000000008152600401610afc906145c1565b60405180910390fd5b610b0e81612fca565b610b8d81600067ffffffffffffffff811115610b53577f4e487b7100000000000000000000000000000000000000000000000000000000600052604160045260246000fd5b6040519080825280601f01601f191660200182016040528015610b855781602001600182028036833780820191505090505b506000613049565b50565b60cc838051602081018201805184825260208301602085012081835280955050505050506020528160005260406000208181548110610bce57600080fd5b90600052602060002001600092509250509054906101000a900473ffffffffffffffffffffffffffffffffffffffff1681565b7f000000000000000000000000000000000000000000000000000000000000000073ffffffffffffffffffffffffffffffffffffffff163073ffffffffffffffffffffffffffffffffffffffff161415610c90576040517f08c379a0000000000000000000000000000000000000000000000000000000008152600401610c87906145a1565b60405180910390fd5b7f000000000000000000000000000000000000000000000000000000000000000073ffffffffffffffffffffffffffffffffffffffff16610ccf612f73565b73ffffffffffffffffffffffffffffffffffffffff1614610d25576040517f08c379a0000000000000000000000000000000000000000000000000000000008152600401610d1c906145c1565b60405180910390fd5b610d2e82612fca565b610d3a82826001613049565b5050565b60606040518060400160405280600281526020017f7631000000000000000000000000000000000000000000000000000000000000815250905090565b60d08054610d8890614988565b80601f0160208091040260200160405190810160405280929190818152602001828054610db490614988565b8015610e015780601f10610dd657610100808354040283529160200191610e01565b820191906000526020600020905b815481529060010190602001808311610de457829003601f168201915b505050505081565b60ce6020528060005260406000206000915090508054610e2890614988565b80601f0160208091040260200160405190810160405280929190818152602001828054610e5490614988565b8015610ea15780601f10610e7657610100808354040283529160200191610ea1565b820191906000526020600020905b815481529060010190602001808311610e8457829003601f168201915b505050505081565b60008073ffffffffffffffffffffffffffffffffffffffff1660cb84604051610ed29190614446565b908152602001604051809103902060008473ffffffffffffffffffffffffffffffffffffffff1673ffffffffffffffffffffffffffffffffffffffff16815260200190815260200160002060009054906101000a900473ffffffffffffffffffffffffffffffffffffffff1673ffffffffffffffffffffffffffffffffffffffff161415905092915050565b610f66612f6b565b73ffffffffffffffffffffffffffffffffffffffff16610f84611427565b73ffffffffffffffffffffffffffffffffffffffff1614610fda576040517f08c379a0000000000000000000000000000000000000000000000000000000008152600401610fd1906146a1565b60405180910390fd5b610fe4600061321a565b565b60ca82805160208101820180518482526020830160208501208183528095505050505050818051602081018201805184825260208301602085012081835280955050505050506000915091509054906101000a900473ffffffffffffffffffffffffffffffffffffffff1681565b61105c612f6b565b73ffffffffffffffffffffffffffffffffffffffff1661107a611427565b73ffffffffffffffffffffffffffffffffffffffff16146110d0576040517f08c379a00000000000000000000000000000000000000000000000000000000081526004016110c7906146a1565b60405180910390fd5b600073ffffffffffffffffffffffffffffffffffffffff1660ca836040516110f89190614446565b9081526020016040518091039020826040516111149190614446565b908152602001604051809103902060009054906101000a900473ffffffffffffffffffffffffffffffffffffffff1673ffffffffffffffffffffffffffffffffffffffff16141561119a576040517f08c379a000000000000000000000000000000000000000000000000000000000815260040161119190614661565b60405180910390fd5b600060ca836040516111ac9190614446565b9081526020016040518091039020826040516111c89190614446565b908152602001604051809103902060006101000a81548173ffffffffffffffffffffffffffffffffffffffff021916908373ffffffffffffffffffffffffffffffffffffffff1602179055505050565b611220612f6b565b73ffffffffffffffffffffffffffffffffffffffff1661123e611427565b73ffffffffffffffffffffffffffffffffffffffff1614611294576040517f08c379a000000000000000000000000000000000000000000000000000000000815260040161128b906146a1565b60405180910390fd5b6000151560c9826040516112a89190614446565b908152602001604051809103902060050160009054906101000a900460ff16151514611309576040517f08c379a0000000000000000000000000000000000000000000000000000000008152600401611300906146c1565b60405180910390fd5b600160c98260405161131b9190614446565b908152602001604051809103902060050160006101000a81548160ff02191690831515021790555050565b600060019054906101000a900460ff168061136c575060008054906101000a900460ff16155b6113ab576040517f08c379a00000000000000000000000000000000000000000000000000000000081526004016113a290614641565b60405180910390fd5b60008060019054906101000a900460ff1615905080156113fb576001600060016101000a81548160ff02191690831515021790555060016000806101000a81548160ff0219169083151502179055505b6114036132e0565b80156114245760008060016101000a81548160ff0219169083151502179055505b50565b6000609760009054906101000a900473ffffffffffffffffffffffffffffffffffffffff16905090565b60cd818051602081018201805184825260208301602085012081835280955050505050506000915054906101000a900473ffffffffffffffffffffffffffffffffffffffff1681565b600060ce60003373ffffffffffffffffffffffffffffffffffffffff1673ffffffffffffffffffffffffffffffffffffffff16815260200190815260200160002080546114e690614988565b80601f016020809104026020016040519081016040528092919081815260200182805461151290614988565b801561155f5780601f106115345761010080835404028352916020019161155f565b820191906000526020600020905b81548152906001019060200180831161154257829003601f168201915b50505050509050600073ffffffffffffffffffffffffffffffffffffffff1660ca8360405161158e9190614446565b9081526020016040518091039020826040516115aa9190614446565b908152602001604051809103902060009054906101000a900473ffffffffffffffffffffffffffffffffffffffff1673ffffffffffffffffffffffffffffffffffffffff161415611630576040517f08c379a000000000000000000000000000000000000000000000000000000000815260040161162790614661565b60405180910390fd5b600060ca836040516116429190614446565b90815260200160405180910390208260405161165e9190614446565b908152602001604051809103902060006101000a81548173ffffffffffffffffffffffffffffffffffffffff021916908373ffffffffffffffffffffffffffffffffffffffff1602179055505050565b6116b6612f6b565b73ffffffffffffffffffffffffffffffffffffffff166116d4611427565b73ffffffffffffffffffffffffffffffffffffffff161461172a576040517f08c379a0000000000000000000000000000000000000000000000000000000008152600401611721906146a1565b60405180910390fd5b8060c98360405161173b9190614446565b9081526020016040518091039020600201819055505050565b606060008060008060008060c98860405161176f9190614446565b90815260200160405180910390206040518060c001604052908160008201805461179890614988565b80601f01602080910402602001604051908101604052809291908181526020018280546117c490614988565b80156118115780601f106117e657610100808354040283529160200191611811565b820191906000526020600020905b8154815290600101906020018083116117f457829003601f168201915b505050505081526020016001820160009054906101000a900473ffffffffffffffffffffffffffffffffffffffff1673ffffffffffffffffffffffffffffffffffffffff1673ffffffffffffffffffffffffffffffffffffffff1681526020016002820154815260200160038201548152602001600482015481526020016005820160009054906101000a900460ff1615151515815250509050806000015181602001518260400151836060015184608001518560a001519650965096509650965096505091939550919395565b6118e7612f6b565b73ffffffffffffffffffffffffffffffffffffffff16611905611427565b73ffffffffffffffffffffffffffffffffffffffff161461195b576040517f08c379a0000000000000000000000000000000000000000000000000000000008152600401611952906146a1565b60405180910390fd5b8160cf60006101000a81548173ffffffffffffffffffffffffffffffffffffffff021916908373ffffffffffffffffffffffffffffffffffffffff1602179055506119f06119a7611427565b8260cf60009054906101000a900473ffffffffffffffffffffffffffffffffffffffff1673ffffffffffffffffffffffffffffffffffffffff166133c99092919063ffffffff16565b5050565b60c981805160208101820180518482526020830160208501208183528095505050505050600091509050806000018054611a2d90614988565b80601f0160208091040260200160405190810160405280929190818152602001828054611a5990614988565b8015611aa65780601f10611a7b57610100808354040283529160200191611aa6565b820191906000526020600020905b815481529060010190602001808311611a8957829003601f168201915b5050505050908060010160009054906101000a900473ffffffffffffffffffffffffffffffffffffffff16908060020154908060030154908060040154908060050160009054906101000a900460ff16905086565b611b03612f6b565b73ffffffffffffffffffffffffffffffffffffffff16611b21611427565b73ffffffffffffffffffffffffffffffffffffffff1614611b77576040517f08c379a0000000000000000000000000000000000000000000000000000000008152600401611b6e906146a1565b60405180910390fd5b600073ffffffffffffffffffffffffffffffffffffffff1660c982604051611b9f9190614446565b908152602001604051809103902060010160009054906101000a900473ffffffffffffffffffffffffffffffffffffffff1673ffffffffffffffffffffffffffffffffffffffff161415611c28576040517f08c379a0000000000000000000000000000000000000000000000000000000008152600401611c1f90614621565b60405180910390fd5b60c981604051611c389190614446565b908152602001604051809103902060008082016000611c579190613b04565b6001820160006101000a81549073ffffffffffffffffffffffffffffffffffffffff02191690556002820160009055600382016000905560048201600090556005820160006101000a81549060ff0219169055505050565b611cb7612f6b565b73ffffffffffffffffffffffffffffffffffffffff16611cd5611427565b73ffffffffffffffffffffffffffffffffffffffff1614611d2b576040517f08c379a0000000000000000000000000000000000000000000000000000000008152600401611d22906146a1565b60405180910390fd5b8160cf60006101000a81548173ffffffffffffffffffffffffffffffffffffffff021916908373ffffffffffffffffffffffffffffffffffffffff1602179055508060cf60009054906101000a900473ffffffffffffffffffffffffffffffffffffffff1673ffffffffffffffffffffffffffffffffffffffff166370a08231306040518263ffffffff1660e01b8152600401611dc8919061445d565b60206040518083038186803b158015611de057600080fd5b505afa158015611df4573d6000803e3d6000fd5b505050506040513d601f19601f82011682018060405250810190611e189190613fba565b11611e58576040517f08c379a0000000000000000000000000000000000000000000000000000000008152600401611e4f906147c1565b60405180910390fd5b60cf60009054906101000a900473ffffffffffffffffffffffffffffffffffffffff1673ffffffffffffffffffffffffffffffffffffffff1663a9059cbb33836040518363ffffffff1660e01b8152600401611eb5929190614478565b602060405180830381600087803b158015611ecf57600080fd5b505af1158015611ee3573d6000803e3d6000fd5b505050506040513d601f19601f82011682018060405250810190611f079190613d3e565b505050565b6000151560c984604051611f209190614446565b908152602001604051809103902060050160009054906101000a900460ff16151514611f81576040517f08c379a0000000000000000000000000000000000000000000000000000000008152600401611f7890614761565b60405180910390fd5b600073ffffffffffffffffffffffffffffffffffffffff1660c984604051611fa99190614446565b908152602001604051809103902060010160009054906101000a900473ffffffffffffffffffffffffffffffffffffffff1673ffffffffffffffffffffffffffffffffffffffff161415612032576040517f08c379a000000000000000000000000000000000000000000000000000000000815260040161202990614621565b60405180910390fd5b600081905060008151111561214157818051906020012083805190602001201415612092576040517f08c379a000000000000000000000000000000000000000000000000000000000815260040161208990614721565b60405180910390fd5b600073ffffffffffffffffffffffffffffffffffffffff1660cd836040516120ba9190614446565b908152602001604051809103902060009054906101000a900473ffffffffffffffffffffffffffffffffffffffff1673ffffffffffffffffffffffffffffffffffffffff161415612140576040517f08c379a0000000000000000000000000000000000000000000000000000000008152600401612137906145e1565b60405180910390fd5b5b600073ffffffffffffffffffffffffffffffffffffffff1660ca856040516121699190614446565b9081526020016040518091039020846040516121859190614446565b908152602001604051809103902060009054906101000a900473ffffffffffffffffffffffffffffffffffffffff1673ffffffffffffffffffffffffffffffffffffffff161461220a576040517f08c379a0000000000000000000000000000000000000000000000000000000008152600401612201906147e1565b60405180910390fd5b600073ffffffffffffffffffffffffffffffffffffffff1660cb856040516122329190614446565b908152602001604051809103902060003373ffffffffffffffffffffffffffffffffffffffff1673ffffffffffffffffffffffffffffffffffffffff16815260200190815260200160002060009054906101000a900473ffffffffffffffffffffffffffffffffffffffff1673ffffffffffffffffffffffffffffffffffffffff16146123565760ce60003373ffffffffffffffffffffffffffffffffffffffff1673ffffffffffffffffffffffffffffffffffffffff168152602001908152602001600020604051612305919061442f565b6040518091039020838051906020012014612355576040517f08c379a000000000000000000000000000000000000000000000000000000000815260040161234c906147a1565b60405180910390fd5b5b600081511115612af157600060cd836040516123729190614446565b908152602001604051809103902060009054906101000a900473ffffffffffffffffffffffffffffffffffffffff169050600060019050600073ffffffffffffffffffffffffffffffffffffffff1660cb876040516123d19190614446565b908152602001604051809103902060003373ffffffffffffffffffffffffffffffffffffffff1673ffffffffffffffffffffffffffffffffffffffff16815260200190815260200160002060009054906101000a900473ffffffffffffffffffffffffffffffffffffffff1673ffffffffffffffffffffffffffffffffffffffff161461245d57600090505b8015612aee57600060c9876040516124759190614446565b908152602001604051809103902060010160009054906101000a900473ffffffffffffffffffffffffffffffffffffffff1690508060cf60006101000a81548173ffffffffffffffffffffffffffffffffffffffff021916908373ffffffffffffffffffffffffffffffffffffffff1602179055508260cb886040516124fb9190614446565b908152602001604051809103902060003373ffffffffffffffffffffffffffffffffffffffff1673ffffffffffffffffffffffffffffffffffffffff16815260200190815260200160002060006101000a81548173ffffffffffffffffffffffffffffffffffffffff021916908373ffffffffffffffffffffffffffffffffffffffff16021790555060cc876040516125949190614446565b908152602001604051809103902060008473ffffffffffffffffffffffffffffffffffffffff1673ffffffffffffffffffffffffffffffffffffffff168152602001908152602001600020339080600181540180825580915050600190039060005260206000200160009091909190916101000a81548173ffffffffffffffffffffffffffffffffffffffff021916908373ffffffffffffffffffffffffffffffffffffffff160217905550600060c9886040516126529190614446565b908152602001604051809103902060020154111561273c5760cf60009054906101000a900473ffffffffffffffffffffffffffffffffffffffff1673ffffffffffffffffffffffffffffffffffffffff1663a9059cbb8460c98a6040516126b99190614446565b9081526020016040518091039020600201546040518363ffffffff1660e01b81526004016126e8929190614478565b602060405180830381600087803b15801561270257600080fd5b505af1158015612716573d6000803e3d6000fd5b505050506040513d601f19601f8201168201806040525081019061273a9190613d3e565b505b6040518060400160405280600e81526020017f616c6c6f77496e63656e7469766500000000000000000000000000000000000081525060d09080519060200190612787929190613a7e565b50600060cb8860405161279a9190614446565b908152602001604051809103902060008573ffffffffffffffffffffffffffffffffffffffff1673ffffffffffffffffffffffffffffffffffffffff16815260200190815260200160002060009054906101000a900473ffffffffffffffffffffffffffffffffffffffff169050600073ffffffffffffffffffffffffffffffffffffffff168173ffffffffffffffffffffffffffffffffffffffff1614612aeb57600060c98960405161284e9190614446565b90815260200160405180910390206003015411156129385760cf60009054906101000a900473ffffffffffffffffffffffffffffffffffffffff1673ffffffffffffffffffffffffffffffffffffffff1663a9059cbb8260c98b6040516128b59190614446565b9081526020016040518091039020600301546040518363ffffffff1660e01b81526004016128e4929190614478565b602060405180830381600087803b1580156128fe57600080fd5b505af1158015612912573d6000803e3d6000fd5b505050506040513d601f19601f820116820180604052508101906129369190613d3e565b505b600060cb8960405161294a9190614446565b908152602001604051809103902060008373ffffffffffffffffffffffffffffffffffffffff1673ffffffffffffffffffffffffffffffffffffffff16815260200190815260200160002060009054906101000a900473ffffffffffffffffffffffffffffffffffffffff169050600073ffffffffffffffffffffffffffffffffffffffff168173ffffffffffffffffffffffffffffffffffffffff1614612ae957600060c98a6040516129fe9190614446565b9081526020016040518091039020600401541115612ae85760cf60009054906101000a900473ffffffffffffffffffffffffffffffffffffffff1673ffffffffffffffffffffffffffffffffffffffff1663a9059cbb8260c98c604051612a659190614446565b9081526020016040518091039020600401546040518363ffffffff1660e01b8152600401612a94929190614478565b602060405180830381600087803b158015612aae57600080fd5b505af1158015612ac2573d6000803e3d6000fd5b505050506040513d601f19601f82011682018060405250810190612ae69190613d3e565b505b5b505b50505b50505b3360ca85604051612b029190614446565b908152602001604051809103902084604051612b1e9190614446565b908152602001604051809103902060006101000a81548173ffffffffffffffffffffffffffffffffffffffff021916908373ffffffffffffffffffffffffffffffffffffffff1602179055503360cd84604051612b7b9190614446565b908152602001604051809103902060006101000a81548173ffffffffffffffffffffffffffffffffffffffff021916908373ffffffffffffffffffffffffffffffffffffffff1602179055508260ce60003373ffffffffffffffffffffffffffffffffffffffff1673ffffffffffffffffffffffffffffffffffffffff1681526020019081526020016000209080519060200190612c1a929190613a7e565b5050505050565b60cb828051602081018201805184825260208301602085012081835280955050505050506020528060005260406000206000915091509054906101000a900473ffffffffffffffffffffffffffffffffffffffff1681565b612c81612f6b565b73ffffffffffffffffffffffffffffffffffffffff16612c9f611427565b73ffffffffffffffffffffffffffffffffffffffff1614612cf5576040517f08c379a0000000000000000000000000000000000000000000000000000000008152600401612cec906146a1565b60405180910390fd5b8060c983604051612d069190614446565b9081526020016040518091039020600301819055505050565b612d27612f6b565b73ffffffffffffffffffffffffffffffffffffffff16612d45611427565b73ffffffffffffffffffffffffffffffffffffffff1614612d9b576040517f08c379a0000000000000000000000000000000000000000000000000000000008152600401612d92906146a1565b60405180910390fd5b6001151560c982604051612daf9190614446565b908152602001604051809103902060050160009054906101000a900460ff16151514612e10576040517f08c379a0000000000000000000000000000000000000000000000000000000008152600401612e0790614761565b60405180910390fd5b600060c982604051612e229190614446565b908152602001604051809103902060050160006101000a81548160ff02191690831515021790555050565b612e55612f6b565b73ffffffffffffffffffffffffffffffffffffffff16612e73611427565b73ffffffffffffffffffffffffffffffffffffffff1614612ec9576040517f08c379a0000000000000000000000000000000000000000000000000000000008152600401612ec0906146a1565b60405180910390fd5b600073ffffffffffffffffffffffffffffffffffffffff168173ffffffffffffffffffffffffffffffffffffffff161415612f39576040517f08c379a0000000000000000000000000000000000000000000000000000000008152600401612f3090614581565b60405180910390fd5b612f428161321a565b50565b60cf60009054906101000a900473ffffffffffffffffffffffffffffffffffffffff1681565b600033905090565b6000612fa17f360894a13ba1a3210667c828492db98dca3e2076cc3735a920a3ca505d382bbc60001b61344f565b60000160009054906101000a900473ffffffffffffffffffffffffffffffffffffffff16905090565b612fd2612f6b565b73ffffffffffffffffffffffffffffffffffffffff16612ff0611427565b73ffffffffffffffffffffffffffffffffffffffff1614613046576040517f08c379a000000000000000000000000000000000000000000000000000000000815260040161303d906146a1565b60405180910390fd5b50565b6000613053612f73565b905061305e84613459565b60008351118061306b5750815b1561307c5761307a8484613512565b505b60006130aa7f4910fdfa16fed3260ed0e7147f7cc6da11a60208b5b9406d12a635614ffd914360001b6135f6565b90508060000160009054906101000a900460ff166132135760018160000160006101000a81548160ff02191690831515021790555061317685836040516024016130f4919061445d565b6040516020818303038152906040527f3659cfe6000000000000000000000000000000000000000000000000000000007bffffffffffffffffffffffffffffffffffffffffffffffffffffffff19166020820180517bffffffffffffffffffffffffffffffffffffffffffffffffffffffff8381831617835250505050613512565b5060008160000160006101000a81548160ff02191690831515021790555061319c612f73565b73ffffffffffffffffffffffffffffffffffffffff168273ffffffffffffffffffffffffffffffffffffffff1614613209576040517f08c379a000000000000000000000000000000000000000000000000000000000815260040161320090614561565b60405180910390fd5b61321285613600565b5b5050505050565b6000609760009054906101000a900473ffffffffffffffffffffffffffffffffffffffff16905081609760006101000a81548173ffffffffffffffffffffffffffffffffffffffff021916908373ffffffffffffffffffffffffffffffffffffffff1602179055508173ffffffffffffffffffffffffffffffffffffffff168173ffffffffffffffffffffffffffffffffffffffff167f8be0079c531659141344cd1fd0a4f28419497f9722a3daafe3b4186f6b6457e060405160405180910390a35050565b600060019054906101000a900460ff1680613306575060008054906101000a900460ff16155b613345576040517f08c379a000000000000000000000000000000000000000000000000000000000815260040161333c90614641565b60405180910390fd5b60008060019054906101000a900460ff161590508015613395576001600060016101000a81548160ff02191690831515021790555060016000806101000a81548160ff0219169083151502179055505b61339d61364f565b6133a5613728565b80156133c65760008060016101000a81548160ff0219169083151502179055505b50565b61344a8363a9059cbb60e01b84846040516024016133e8929190614478565b604051602081830303815290604052907bffffffffffffffffffffffffffffffffffffffffffffffffffffffff19166020820180517bffffffffffffffffffffffffffffffffffffffffffffffffffffffff8381831617835250505050613811565b505050565b6000819050919050565b613462816138d8565b6134a1576040517f08c379a000000000000000000000000000000000000000000000000000000000815260040161349890614681565b60405180910390fd5b806134ce7f360894a13ba1a3210667c828492db98dca3e2076cc3735a920a3ca505d382bbc60001b61344f565b60000160006101000a81548173ffffffffffffffffffffffffffffffffffffffff021916908373ffffffffffffffffffffffffffffffffffffffff16021790555050565b606061351d836138d8565b61355c576040517f08c379a0000000000000000000000000000000000000000000000000000000008152600401613553906146e1565b60405180910390fd5b6000808473ffffffffffffffffffffffffffffffffffffffff16846040516135849190614418565b600060405180830381855af49150503d80600081146135bf576040519150601f19603f3d011682016040523d82523d6000602084013e6135c4565b606091505b50915091506135ec8282604051806060016040528060278152602001614f53602791396138eb565b9250505092915050565b6000819050919050565b61360981613459565b8073ffffffffffffffffffffffffffffffffffffffff167fbc7cd75a20ee27fd9adebab32041f755214dbc6bffa90cc0225b39da2e5c2d3b60405160405180910390a250565b600060019054906101000a900460ff1680613675575060008054906101000a900460ff16155b6136b4576040517f08c379a00000000000000000000000000000000000000000000000000000000081526004016136ab90614641565b60405180910390fd5b60008060019054906101000a900460ff161590508015613704576001600060016101000a81548160ff02191690831515021790555060016000806101000a81548160ff0219169083151502179055505b80156137255760008060016101000a81548160ff0219169083151502179055505b50565b600060019054906101000a900460ff168061374e575060008054906101000a900460ff16155b61378d576040517f08c379a000000000000000000000000000000000000000000000000000000000815260040161378490614641565b60405180910390fd5b60008060019054906101000a900460ff1615905080156137dd576001600060016101000a81548160ff02191690831515021790555060016000806101000a81548160ff0219169083151502179055505b6137ed6137e8612f6b565b61321a565b801561380e5760008060016101000a81548160ff0219169083151502179055505b50565b6000613873826040518060400160405280602081526020017f5361666545524332303a206c6f772d6c6576656c2063616c6c206661696c65648152508573ffffffffffffffffffffffffffffffffffffffff166139529092919063ffffffff16565b90506000815111156138d357808060200190518101906138939190613d3e565b6138d2576040517f08c379a00000000000000000000000000000000000000000000000000000000081526004016138c990614741565b60405180910390fd5b5b505050565b600080823b905060008111915050919050565b606083156138fb5782905061394b565b60008351111561390e5782518084602001fd5b816040517f08c379a000000000000000000000000000000000000000000000000000000000815260040161394291906144d7565b60405180910390fd5b9392505050565b6060613961848460008561396a565b90509392505050565b6060824710156139af576040517f08c379a00000000000000000000000000000000000000000000000000000000081526004016139a690614601565b60405180910390fd5b6139b8856138d8565b6139f7576040517f08c379a00000000000000000000000000000000000000000000000000000000081526004016139ee90614701565b60405180910390fd5b6000808673ffffffffffffffffffffffffffffffffffffffff168587604051613a209190614418565b60006040518083038185875af1925050503d8060008114613a5d576040519150601f19603f3d011682016040523d82523d6000602084013e613a62565b606091505b5091509150613a728282866138eb565b92505050949350505050565b828054613a8a90614988565b90600052602060002090601f016020900481019282613aac5760008555613af3565b82601f10613ac557805160ff1916838001178555613af3565b82800160010185558215613af3579182015b82811115613af2578251825591602001919060010190613ad7565b5b509050613b009190613b44565b5090565b508054613b1090614988565b6000825580601f10613b225750613b41565b601f016020900490600052602060002090810190613b409190613b44565b5b50565b5b80821115613b5d576000816000905550600101613b45565b5090565b6000613b74613b6f84614826565b614801565b905082815260208101848484011115613b8c57600080fd5b613b97848285614946565b509392505050565b6000613bb2613bad84614857565b614801565b905082815260208101848484011115613bca57600080fd5b613bd5848285614946565b509392505050565b600081359050613bec81614f0d565b92915050565b600081519050613c0181614f24565b92915050565b600082601f830112613c1857600080fd5b8135613c28848260208601613b61565b91505092915050565b600082601f830112613c4257600080fd5b8135613c52848260208601613b9f565b91505092915050565b600081359050613c6a81614f3b565b92915050565b600081519050613c7f81614f3b565b92915050565b600060208284031215613c9757600080fd5b6000613ca584828501613bdd565b91505092915050565b60008060408385031215613cc157600080fd5b6000613ccf85828601613bdd565b925050602083013567ffffffffffffffff811115613cec57600080fd5b613cf885828601613c07565b9150509250929050565b60008060408385031215613d1557600080fd5b6000613d2385828601613bdd565b9250506020613d3485828601613c5b565b9150509250929050565b600060208284031215613d5057600080fd5b6000613d5e84828501613bf2565b91505092915050565b600060208284031215613d7957600080fd5b600082013567ffffffffffffffff811115613d9357600080fd5b613d9f84828501613c31565b91505092915050565b60008060408385031215613dbb57600080fd5b600083013567ffffffffffffffff811115613dd557600080fd5b613de185828601613c31565b9250506020613df285828601613bdd565b9150509250929050565b600080600060608486031215613e1157600080fd5b600084013567ffffffffffffffff811115613e2b57600080fd5b613e3786828701613c31565b9350506020613e4886828701613bdd565b9250506040613e5986828701613c5b565b9150509250925092565b60008060408385031215613e7657600080fd5b600083013567ffffffffffffffff811115613e9057600080fd5b613e9c85828601613c31565b925050602083013567ffffffffffffffff811115613eb957600080fd5b613ec585828601613c31565b9150509250929050565b600080600060608486031215613ee457600080fd5b600084013567ffffffffffffffff811115613efe57600080fd5b613f0a86828701613c31565b935050602084013567ffffffffffffffff811115613f2757600080fd5b613f3386828701613c31565b925050604084013567ffffffffffffffff811115613f5057600080fd5b613f5c86828701613c31565b9150509250925092565b60008060408385031215613f7957600080fd5b600083013567ffffffffffffffff811115613f9357600080fd5b613f9f85828601613c31565b9250506020613fb085828601613c5b565b9150509250929050565b600060208284031215613fcc57600080fd5b6000613fda84828501613c70565b91505092915050565b613fec816148da565b82525050565b613ffb816148ec565b82525050565b600061400c8261489d565b61401681856148b3565b9350614026818560208601614955565b80840191505092915050565b6000815461403f81614988565b61404981866148b3565b945060018216600081146140645760018114614075576140a8565b60ff198316865281860193506140a8565b61407e85614888565b60005b838110156140a057815481890152600182019150602081019050614081565b838801955050505b50505092915050565b6140ba81614922565b82525050565b60006140cb826148a8565b6140d581856148be565b93506140e5818560208601614955565b6140ee81614a49565b840191505092915050565b6000614104826148a8565b61410e81856148cf565b935061411e818560208601614955565b80840191505092915050565b6000614137602f836148be565b915061414282614a5a565b604082019050919050565b600061415a6026836148be565b915061416582614aa9565b604082019050919050565b600061417d602c836148be565b915061418882614af8565b604082019050919050565b60006141a0602c836148be565b91506141ab82614b47565b604082019050919050565b60006141c36010836148be565b91506141ce82614b96565b602082019050919050565b60006141e66026836148be565b91506141f182614bbf565b604082019050919050565b60006142096011836148be565b915061421482614c0e565b602082019050919050565b600061422c602e836148be565b915061423782614c37565b604082019050919050565b600061424f6011836148be565b915061425a82614c86565b602082019050919050565b6000614272602d836148be565b915061427d82614caf565b604082019050919050565b60006142956020836148be565b91506142a082614cfe565b602082019050919050565b60006142b86012836148be565b91506142c382614d27565b602082019050919050565b60006142db6026836148be565b91506142e682614d50565b604082019050919050565b60006142fe601d836148be565b915061430982614d9f565b602082019050919050565b60006143216014836148be565b915061432c82614dc8565b602082019050919050565b6000614344602a836148be565b915061434f82614df1565b604082019050919050565b60006143676012836148be565b915061437282614e40565b602082019050919050565b600061438a6013836148be565b915061439582614e69565b602082019050919050565b60006143ad601b836148be565b91506143b882614e92565b602082019050919050565b60006143d0600e836148be565b91506143db82614ebb565b602082019050919050565b60006143f3600b836148be565b91506143fe82614ee4565b602082019050919050565b61441281614918565b82525050565b60006144248284614001565b915081905092915050565b600061443b8284614032565b915081905092915050565b600061445282846140f9565b915081905092915050565b60006020820190506144726000830184613fe3565b92915050565b600060408201905061448d6000830185613fe3565b61449a6020830184614409565b9392505050565b60006020820190506144b66000830184613ff2565b92915050565b60006020820190506144d160008301846140b1565b92915050565b600060208201905081810360008301526144f181846140c0565b905092915050565b600060c082019050818103600083015261451381896140c0565b90506145226020830188613fe3565b61452f6040830187614409565b61453c6060830186614409565b6145496080830185614409565b61455660a0830184613ff2565b979650505050505050565b6000602082019050818103600083015261457a8161412a565b9050919050565b6000602082019050818103600083015261459a8161414d565b9050919050565b600060208201905081810360008301526145ba81614170565b9050919050565b600060208201905081810360008301526145da81614193565b9050919050565b600060208201905081810360008301526145fa816141b6565b9050919050565b6000602082019050818103600083015261461a816141d9565b9050919050565b6000602082019050818103600083015261463a816141fc565b9050919050565b6000602082019050818103600083015261465a8161421f565b9050919050565b6000602082019050818103600083015261467a81614242565b9050919050565b6000602082019050818103600083015261469a81614265565b9050919050565b600060208201905081810360008301526146ba81614288565b9050919050565b600060208201905081810360008301526146da816142ab565b9050919050565b600060208201905081810360008301526146fa816142ce565b9050919050565b6000602082019050818103600083015261471a816142f1565b9050919050565b6000602082019050818103600083015261473a81614314565b9050919050565b6000602082019050818103600083015261475a81614337565b9050919050565b6000602082019050818103600083015261477a8161435a565b9050919050565b6000602082019050818103600083015261479a8161437d565b9050919050565b600060208201905081810360008301526147ba816143a0565b9050919050565b600060208201905081810360008301526147da816143c3565b9050919050565b600060208201905081810360008301526147fa816143e6565b9050919050565b600061480b61481c565b905061481782826149ba565b919050565b6000604051905090565b600067ffffffffffffffff82111561484157614840614a1a565b5b61484a82614a49565b9050602081019050919050565b600067ffffffffffffffff82111561487257614871614a1a565b5b61487b82614a49565b9050602081019050919050565b60008190508160005260206000209050919050565b600081519050919050565b600081519050919050565b600081905092915050565b600082825260208201905092915050565b600081905092915050565b60006148e5826148f8565b9050919050565b60008115159050919050565b600073ffffffffffffffffffffffffffffffffffffffff82169050919050565b6000819050919050565b600061492d82614934565b9050919050565b600061493f826148f8565b9050919050565b82818337600083830152505050565b60005b83811015614973578082015181840152602081019050614958565b83811115614982576000848401525b50505050565b600060028204905060018216806149a057607f821691505b602082108114156149b4576149b36149eb565b5b50919050565b6149c382614a49565b810181811067ffffffffffffffff821117156149e2576149e1614a1a565b5b80604052505050565b7f4e487b7100000000000000000000000000000000000000000000000000000000600052602260045260246000fd5b7f4e487b7100000000000000000000000000000000000000000000000000000000600052604160045260246000fd5b6000601f19601f8301169050919050565b7f45524331393637557067726164653a207570677261646520627265616b73206660008201527f7572746865722075706772616465730000000000000000000000000000000000602082015250565b7f4f776e61626c653a206e6577206f776e657220697320746865207a65726f206160008201527f6464726573730000000000000000000000000000000000000000000000000000602082015250565b7f46756e6374696f6e206d7573742062652063616c6c6564207468726f7567682060008201527f64656c656761746563616c6c0000000000000000000000000000000000000000602082015250565b7f46756e6374696f6e206d7573742062652063616c6c6564207468726f7567682060008201527f6163746976652070726f78790000000000000000000000000000000000000000602082015250565b7f57726f6e6720726566657220636f646500000000000000000000000000000000600082015250565b7f416464726573733a20696e73756666696369656e742062616c616e636520666f60008201527f722063616c6c0000000000000000000000000000000000000000000000000000602082015250565b7f50726f6772616d206e6f7420666f756e64000000000000000000000000000000600082015250565b7f496e697469616c697a61626c653a20636f6e747261637420697320616c72656160008201527f647920696e697469616c697a6564000000000000000000000000000000000000602082015250565b7f4163636f756e74206e6f7420666f756e64000000000000000000000000000000600082015250565b7f455243313936373a206e657720696d706c656d656e746174696f6e206973206e60008201527f6f74206120636f6e747261637400000000000000000000000000000000000000602082015250565b7f4f776e61626c653a2063616c6c6572206973206e6f7420746865206f776e6572600082015250565b7f50726f6772616d2069732072756e6e696e670000000000000000000000000000600082015250565b7f416464726573733a2064656c65676174652063616c6c20746f206e6f6e2d636f60008201527f6e74726163740000000000000000000000000000000000000000000000000000602082015250565b7f416464726573733a2063616c6c20746f206e6f6e2d636f6e7472616374000000600082015250565b7f43616e6e6f74206a6f696e20796f757273656c66000000000000000000000000600082015250565b7f5361666545524332303a204552433230206f7065726174696f6e20646964206e60008201527f6f74207375636365656400000000000000000000000000000000000000000000602082015250565b7f50726f6772616d2069732070617573696e670000000000000000000000000000600082015250565b7f50726f6772616d206973206578697374696e6700000000000000000000000000600082015250565b7f54686973207569642075736564206f7468657220616464726573730000000000600082015250565b7f416d6f756e742065786365656473000000000000000000000000000000000000600082015250565b7f55736572206a6f696e6564000000000000000000000000000000000000000000600082015250565b614f16816148da565b8114614f2157600080fd5b50565b614f2d816148ec565b8114614f3857600080fd5b50565b614f4481614918565b8114614f4f57600080fd5b5056fe416464726573733a206c6f772d6c6576656c2064656c65676174652063616c6c206661696c6564a264697066735822122012ec703146005f08042aad253600f7d4a2027d2b3b359a7f2f5e1a0429b48b2964736f6c63430008020033",
  "linkReferences": {},
  "deployedLinkReferences": {}
}